:10000000DDC00000F8C00000F6C00000F4C0000031
:10001000F2C00000F0C00000EEC00000ECC0000024
:10002000EAC00000E8C0000089C30000E4C000008E
:10003000E2C00000E0C00000DEC00000DCC0000044
:10004000DAC00000D8C00000D6C00000D4C0000054
:10005000D2C00000D0C00000CEC00000CCC0000064
:10006000CAC00000C8C00000C6C00000C4C0000074
:10007000C2C00000C0C00000BEC00000BCC0000084
:10008000BAC00000B8C00000B6C00000B4C0000094
:10009000B2C00000B0C0000005010902A1010901C1
:1000A000A100050919012903150025019503750112
:1000B000810295017505810105010930093115FF9E
:1000C000250135FF4501950275088106C0C005016F
:1000D0000906A101050719E029E7150025017501A9
:1000E0009508810295017508810105081901290506
:1000F000950575019102950175039101150025651E
:10010000050719002965950675088100C0120110C0
:100110000100000008EB034D20010001020001096D
:10012000024200020100C032090400000203010182
:1001300000092111010001223F0007058103080089
:10014000010705020308000109040100010301027F
:100150000009211101000122360007058303080070
:10016000010403090418034400650061006E0020C7
:1001700000430061006D0065007200610000003AFC
:10018000034C0055004600410020004D006F0075F3
:100190000073006500200061006E00640020004BC9
:1001A000006500790062006F006100720064002049
:1001B00000440065006D006F0000000011241FBEA8
:1001C000CFEFD0E2DEBFCDBF11E0A0E0B1E0E4E3CD
:1001D000FEE000E00BBF02C007900D92A030B10717
:1001E000D9F711E0A0E0B1E001C01D92A831B1073C
:1001F000E1F765D11DC604CF8BB18F70806A8BB9D2
:1002000008958BB18F7080618BB9089580FD02C015
:1002100020E201C020E381FD206882FD20648BB1D3
:100220008F70282B2BB90895FF920F931F9323B142
:100230009CB180910F01843009F03FC0629924C0C5
:100240009095892F90E08073907095958795922F67
:100250009095907E982B97FF02C081E003C094FF99
:1002600003C08FEF80930A0193FF02C081E003C0B7
:1002700096FF03C08FEF8093090195FF05C0809121
:10028000080181608093080183E0F82EF092E90074
:100290008091E80085FF11C008E011E0C80163E02B
:1002A00070E040E050E058D58091E8008E77809370
:1002B000E800F8011192FA94E9F71F910F91FF906D
:1002C00008950F931F9333B18CB120910F01243007
:1002D00009F04FC0629B25C0809590E080739070BC
:1002E00095958795932F9095907E982B82E080939B
:1002F000000197FF03C02093020105C094FF03C0D3
:1003000085E08093020196FF02C086E003C093FF60
:1003100003C087E08093020195FF03C088E08093CB
:10032000020181E08093E9008091E80085FF12C01E
:1003300000E011E0C80168E070E040E050E00CD55A
:100340008091E8008E778093E80088E0F8011192B0
:100350008A95E9F782E08093E9008091E80085FFC3
:1003600008C08091F10052DF8091E8008B77809384
:10037000E8001F910F9108951F93CF93DF93809111
:100380001101813021F0893009F044C027C08091EB
:100390001001813A09F03EC08091E800877F809388
:1003A000E8008091140190911501892B21F0C8E09B
:1003B000D1E013E003C0C0E0D1E018E0CE01612F2E
:1003C00070E00BD48091E8008B778093E800CE0139
:1003D00060E070E0412F50E024D51CC080911001F6
:1003E0008132C1F48091E800877F8093E80004C0E7
:1003F00080910F01882371F08091E80082FFF8CF8F
:100400001091F1008091E8008B778093E800E4D0B0
:10041000812FFCDEDF91CF911F910895EF92FF9223
:100420000F931F9381E061EC42E0A1D0082F82E09E
:1004300060EC42E09CD0E82E83E061EC42E097D093
:1004400010E0FF240E211F210170107090E008239E
:100450001923012B11F490E901C090E68BB18F7044
:10046000982B9BB91F910F91FF90EF90089584B73F
:10047000877F84BF88E10FB6F89480936000109264
:1004800060000FBE80E090E020E80FB6F894209363
:100490006100809361000FBE84B18F7184B98DB10A
:1004A0008F7C8DB985B1806E85B98EB180638EB930
:1004B0008AB1806F8AB98BB18F708BB929C1D7DFB0
:1004C0008BB18F7080618BB97894FBDEADDE96D4F2
:1004D000FCCFDA019330C1F0943030F4913051F018
:1004E000923009F03CC00BC0913219F1923209F000
:1004F00036C029C0EDE0F1E022E130E034C0EFE1A8
:10050000F1E022E430E02FC0813049F0813018F072
:10051000823029F50AC0E1E6F1E0849103C0E5E606
:10052000F1E08491282F30E01EC0EFE7F1E08491E4
:10053000F9CF662319F0E1E5F1E002C0E1E3F1E073
:1005400029E030E010C0662329F0E8E9F0E026E376
:1005500030E009C0EEECF0E02FE330E004C0E0E072
:10056000F0E020E030E0ED93FC93C9010895382FCE
:10057000282F2CC02093E900231721F4762F942FE5
:1005800050E006C07091EC009091ED005091F000A9
:1005900091FF1BC08091EB008E7F8093EB008091D8
:1005A000ED0082708093ED008091EB00816080937C
:1005B000EB007093EC009093ED005093F00080916D
:1005C000EE0087FD02C080E008952F5F273090F293
:1005D0003093E90081E008958091100188239CF414
:1005E00004C080910F018823B9F08091E80082FF58
:1005F000F8CF8091E8008B778093E8000895809190
:100600000F01882349F08091E80080FFF8CF8091A6
:10061000E8008E778093E80008954091E4005091BF
:10062000E50024E68091EC0080FF05C08091E800A1
:1006300080FF05C022C08091E80082FD1EC080912D
:100640000F01882311F482E00895853011F483E0CE
:1006500008958091EB0085FF02C081E008958091AC
:10066000E4009091E50084179507E1F2222311F44C
:1006700084E008952150AC01D5CF80E00895EF9239
:10068000FF920F931F934DD054D008ED10E0F80166
:100690008081982F9F7790838068808380818F7D71
:1006A0008083E7EDF0E080818068808319BC109240
:1006B0000F0110920D0110920C0110920B0180EEAF
:1006C000E82EF12CF70180818B7F8083F8018081F7
:1006D0008160808380E060E042E049DFE1EEF0E0AD
:1006E00080818E7F8083E2EEF0E080818160808374
:1006F000808188608083F70180818E7F8083F8010C
:100700008081806180831F910F91FF90EF90089509
:10071000E7EDF0E080818160808381E080930E01CD
:10072000AECFE8EDF0E080818C7F80831092E20014
:1007300008951092DA001092E10008951F920F922E
:100740000FB60F920BB60F9211242F933F934F9336
:100750005F936F937F938F939F93AF93BF93EF9329
:10076000FF938091E10082FF0AC08091E20082FF46
:1007700006C08091E1008B7F8093E1002DD28091B3
:10078000DA0080FF1EC08091D80080FF1AC08091DF
:10079000DA008E7F8093DA008091D90080FF0DC04F
:1007A0008CE089BD89B5826089BD09B400FEFDCFAA
:1007B00081E080930F0120DD04C019BC10920F016D
:1007C00020DD8091E10080FF18C08091E20080FF71
:1007D00014C08091E2008E7F8093E2008091E2005D
:1007E00080618093E2008091D80080628093D8007D
:1007F00019BC85E080930F01EFD18091E10084FF67
:100800002EC08091E20084FF2AC08CE089BD89B5AA
:10081000826089BD09B400FEFDCF8091D8008F7D34
:100820008093D8008091E1008F7E8093E1008091D9
:10083000E2008F7E8093E2008091E20081608093ED
:10084000E20080910D01882331F48091E30087FD5F
:1008500002C081E001C084E080930F01BDD180918E
:10086000E10083FF22C08091E20083FF1EC08091DF
:10087000E100877F8093E10082E080930F01109276
:100880000D018091E1008E7F8093E1008091E20074
:100890008E7F8093E2008091E20080618093E2008D
:1008A00080E060E042E063DE97D1FF91EF91BF917D
:1008B000AF919F918F917F916F915F914F913F91F8
:1008C0002F910F900BBE0F900FBE0F901F90189599
:1008D0000F931F93DF93CF93CDB7DEB7AC970FB6CF
:1008E000F894DEBF0FBECDBF8091F1008093100160
:1008F0008091F100809311018091F1009091F100BD
:10090000E2E1F1E080931201909313018091F100F4
:100910009091F1008093140193838091F100909164
:10092000F10080931601958327DD8091E80083FF15
:100930003AC18091100130911101353009F487C01E
:10094000363040F43130C9F1313070F0333009F0D5
:100950002AC133C0383009F4F8C0393009F407C16E
:10096000363009F020C199C0803821F0823809F072
:100970001AC108C090910B0180910C01882399F055
:10098000926011C08091140187708093E90080917A
:10099000EB0090E025E0969587952A95E1F7982F52
:1009A00091701092E9008091E800877F8093E800C1
:1009B0009093F1001092F100D3C0882319F0823097
:1009C00009F0F1C090E08F719070009721F00297CC
:1009D00009F0E9C00CC080911201813009F0E3C038
:1009E00010920C01333069F580930C012AC080917C
:1009F0001201882331F520911401277009F4D3C026
:100A00002093E9008091EB0080FF1BC0333021F47C
:100A10008091EB00806213C08091EB008061809335
:100A2000EB0081E090E002C0880F991F2A95E2F761
:100A30008093EA001092EA008091EB008860809336
:100A4000EB001092E9008091E800877F8CC088233A
:100A500009F0A9C0109112011F770FB7F894809187
:100A6000E800877F8093E800B7DD8091E80080FF91
:100A7000FCCF8091E3008078812B8093E30080910C
:100A8000E30080688093E300112311F482E001C049
:100A900083E080930F010FBF86C08058823008F03A
:100AA00082C0809112019091130123E08C3D920746
:100AB00009F033C083E08C838AE28B837FB7F8949C
:100AC000DE0115966EE040E050E011E2E62FF0E026
:100AD00010935700849140FF03C082958F706F5F21
:100AE0008F70282F30E08A3018F0C901C79602C0F5
:100AF000C901C0968D939D934F5F5F4F443151055F
:100B000029F77FBF8091E800877F8093E800CE01BE
:100B100003966AE270E061D012C060911401AE01E8
:100B20004F5F5F4FD6DCBC01009709F43CC0809159
:100B3000E800877F8093E80089819A81ACD080911A
:100B4000E8008B778093E8002EC0803861F58091B3
:100B5000E800877F8093E80080910D018093F10089
:100B60008091E8008E778093E80036DD1CC08823F2
:100B7000D1F4909112019230B0F48091E800877F17
:100B80008093E80090930D0127DD80910D0188236B
:100B900031F48091E30087FD02C081E001C084E070
:100BA00080930F013BDC8091E80083FF0AC08091B5
:100BB000EB0080628093EB008091E800877F809358
:100BC000E800AC960FB6F894DEBF0FBECDBFCF9154
:100BD000DF911F910F91089508959C014091160196
:100BE000509117014617570718F4F90190E03DC0DE
:100BF0006115710511F0AB01F8CF8091E8008E7797
:100C00008093E80040E050E0F0CF80910F0188230E
:100C1000F1F18530F1F18091E80083FF02C081E0BD
:100C200008958091E80082FD2CC08091E80080FF4B
:100C30001CC02091F2003091F30007C08191809395
:100C4000F100415050402F5F3F4F4115510519F0C1
:100C50002830310598F390E02830310509F491E00F
:100C60008091E8008E778093E8004115510569F680
:100C7000992359F606C080910F01882341F08530F1
:100C800041F08091E80082FFF6CF80E0089582E095
:100C9000089583E008959C01409116015091170139
:100CA0004617570718F4F90190E040C06115710527
:100CB00011F0AB01F8CF8091E8008E778093E800C7
:100CC00040E050E0F0CF80910F01882309F440C04C
:100CD000853009F43FC08091E80083FF02C081E0C5
:100CE00008958091E80082FD2DC08091E80080FF8A
:100CF0001DC02091F2003091F30008C084918093D0
:100D0000F1003196415050402F5F3F4F4115510542
:100D100019F02830310590F390E02830310509F4BE
:100D200091E08091E8008E778093E80041155105AD
:100D300051F6992341F606C080910F01882341F0B6
:100D4000853041F08091E80082FFF6CF80E0089581
:100D500082E0089583E00895BF92CF92DF92EF92F0
:100D6000FF920F931F93CF93DF93182F092F7B01CF
:100D70006A0153DCB82E8823B1F5812F902F9C0196
:100D8000E901C114D10439F0F60180819181E81A9A
:100D9000F90AC80FD91F00E010E022C08091E800D6
:100DA00085FD16C08091E8008E778093E800C1141D
:100DB000D10449F0F60180819181800F911F9183C8
:100DC000808385E011C01AD028DC882349F00CC04C
:100DD00089918093F1000894E108F1080F5F1F4F9B
:100DE000E114F104D9F68B2DDF91CF911F910F9172
:100DF000FF90EF90DF90CF90BF9008951F93809168
:100E00000F01882361F01091E9001092E9008091B0
:100E1000E80083FF01C05CDD17701093E9001F91AB
:100E20000895DC0101C06D9341505040E0F70895F2
:040E3000F894FFCF64
:00000001FF
