:10000000A6C00000C1C00000BFC00000BDC000000D
:10001000BBC00000B9C00000B7C00000B5C0000000
:10002000B3C00000B1C000009EC20000ADC000001F
:10003000ABC00000A9C00000A7C00000A5C0000020
:10004000A3C00000A1C000009FC000009DC0000030
:100050009BC0000099C0000097C0000095C0000040
:1000600093C0000091C000008FC000008DC0000050
:100070008BC0000089C0000087C0000085C0000060
:1000800083C0000081C000007FC000007DC0000070
:100090007BC0000079C000001201100100000008C0
:1000A000EB03482001000102000109026500020182
:1000B00000C0320904000000010100000924010011
:1000C00001090001010904010002010300000724E5
:1000D000010001410006240201010006240202027F
:1000E00000092403010301020100092403020401A1
:1000F0000101000905010240000100000525010180
:1001000001090582024000010000052501010304E8
:1001100003090418034400650061006E00200043D9
:100120000061006D0065007200610000001E034C5C
:100130000055004600410020004D004900440049A0
:10014000002000440065006D006F000000001124D5
:100150001FBECFEFD0E2DEBFCDBF11E0A0E0B1E027
:10016000E6E1FEE000E00BBF02C007900D92AA306E
:10017000B107D9F711E0AAE0B1E001C01D92A831A2
:10018000B107E1F7A8D045C63BCF8BB18F70806A2D
:100190008BB908958BB18F7080618BB908950895E4
:1001A00080E091E002D680FD02C090E901C090E6B7
:1001B0008BB18F70982B9BB908951F93DF93CF93CA
:1001C00000D000D0CDB7DEB713B18CB1809590E0F0
:1001D00080739070959587951095107E182B80915F
:1001E0000A018127629B02C040E001C049E0382F2C
:1001F00090E086FF05C016FD02C090E801C090E9BE
:1002000087FD02C02CE306C017FD02C090E801C0C4
:1002100090E92DE333FF06C013FD02C090E801C052
:1002200090E92EE334FF06C014FD02C090E801C03F
:1002300090E92FE335FF04C015FF20C090E91FC0EF
:10024000992391F0892F82958F708983942B9A83BB
:100250002B8380E48C8380E091E0BE016F5F7F4F51
:1002600086D580E091E063D510930A010F900F903E
:100270000F900F90CF91DF911F91089590E82BE39D
:10028000E1CF84B7877F84BF88E10FB6F89480936D
:100290006000109260000FBE80E090E020E80FB692
:1002A000F89420936100809361000FBE84B18F7138
:1002B00084B98DB18F7C8DB985B1806E85B98EB1D1
:1002C00080638EB98AB1806F8AB98BB18F708BB918
:1002D0006A98729A32C10F931F93DF93CF9300D025
:1002E00000D0CDB7DEB7CDDF8BB18F7080618BB919
:1002F00078948E010F5F1F4F60DF15C089818F706A
:10030000893071F48C81882359F08B81813410F409
:1003100090E201C090E18BB18F70982B9BB903C024
:100320008BB18F708BB980E091E0B801E1D4882364
:1003300029F780E091E013D5C8D4DECFDA019230FE
:1003400049F0933061F09130F9F4E8E9F0E022E10E
:1003500030E01EC0EAEAF0E025E630E019C0813066
:1003600049F0813018F0823079F408C0EFE0F1E014
:10037000849107C0E3E1F1E0849103C0EDE2F1E094
:100380008491282F30E004C0E0E0F0E020E030E08D
:10039000ED93FC93C9010895382F282F2CC020938A
:1003A000E900231721F4762F942F50E006C07091B6
:1003B000EC009091ED005091F00091FF1BC08091F6
:1003C000EB008E7F8093EB008091ED008270809334
:1003D000ED008091EB0081608093EB007093EC0066
:1003E0009093ED005093F0008091EE0087FD02C0E5
:1003F00080E008952F5F273090F23093E90081E08C
:1004000008958091100188239CF404C080910F010D
:100410008823B9F08091E80082FFF8CF8091E8004E
:100420008B778093E800089580910F01882349F02D
:100430008091E80080FFF8CF8091E8008E7780936C
:10044000E80008954091E4005091E50024E6809191
:10045000EC0080FF05C08091E80080FF05C022C04D
:100460008091E80082FD1EC080910F01882311F465
:1004700082E00895853011F483E008958091EB00C7
:1004800085FF02C081E008958091E4009091E5002D
:1004900084179507E1F2222311F484E00895215096
:1004A000AC01D5CF80E00895EF92FF920F931F9398
:1004B0004DD054D008ED10E0F8018081982F9F773F
:1004C00090838068808380818F7D8083E7EDF0E07A
:1004D00080818068808319BC10920F0110920D01F9
:1004E00010920C0110920B0180EEE82EF12CF70116
:1004F00080818B7F8083F80180818160808380E0B0
:1005000060E042E049DFE1EEF0E080818E7F8083B1
:10051000E2EEF0E08081816080838081886080836A
:10052000F70180818E7F8083F801808180618083E4
:100530001F910F91FF90EF900895E7EDF0E080811B
:100540008160808381E080930E01AECFE8EDF0E022
:1005500080818C7F80831092E20008951092DA00EF
:100560001092E10008951F920F920FB60F920BB6F2
:100570000F9211242F933F934F935F936F937F9329
:100580008F939F93AF93BF93EF93FF938091E1007D
:1005900082FF0AC08091E20082FF06C08091E100E4
:1005A0008B7F8093E1002DD28091DA0080FF1EC006
:1005B0008091D80080FF1AC08091DA008E7F8093EE
:1005C000DA008091D90080FF0DC08CE089BD89B52B
:1005D000826089BD09B400FEFDCF81E080930F01E8
:1005E000D4DD04C019BC10920F01D4DD8091E1006C
:1005F00080FF18C08091E20080FF14C08091E2006B
:100600008E7F8093E2008091E20080618093E2001F
:100610008091D80080628093D80019BC85E08093D7
:100620000F01EFD18091E10084FF2EC08091E200A4
:1006300084FF2AC08CE089BD89B5826089BD09B478
:1006400000FEFDCF8091D8008F7D8093D8008091EF
:10065000E1008F7E8093E1008091E2008F7E8093A5
:10066000E2008091E20081608093E20080910D01C0
:10067000882331F48091E30087FD02C081E001C04E
:1006800084E080930F01BDD18091E10083FF22C0FF
:100690008091E20083FF1EC08091E100877F8093FC
:1006A000E10082E080930F0110920D018091E10042
:1006B0008E7F8093E1008091E2008E7F8093E20044
:1006C0008091E20080618093E20080E060E042E09F
:1006D00063DE97D1FF91EF91BF91AF919F918F9181
:1006E0007F916F915F914F913F912F910F900BBE32
:1006F0000F900FBE0F901F9018950F931F93DF93CD
:10070000CF93CDB7DEB7AC970FB6F894DEBF0FBE70
:10071000CDBF8091F100809310018091F100809312
:1007200011018091F1009091F100E2E1F1E08093FC
:100730001201909313018091F1009091F100809348
:10074000140193838091F1009091F1008093160140
:10075000958325DD8091E80083FF3AC180911001E7
:1007600030911101353009F487C0363040F4313012
:10077000C9F1313070F0333009F02AC133C038305C
:1007800009F4F8C0393009F407C1363009F020C146
:1007900099C0803821F0823809F01AC108C09091C0
:1007A0000B0180910C01882399F0926011C0809117
:1007B000140187708093E9008091EB0090E025E0C0
:1007C000969587952A95E1F7982F91701092E900F8
:1007D0008091E800877F8093E8009093F100109269
:1007E000F100D3C0882319F0823009F0F1C090E005
:1007F0008F719070009721F0029709F0E9C00CC04A
:1008000080911201813009F0E3C010920C01333065
:1008100069F580930C012AC080911201882331F57B
:1008200020911401277009F4D3C02093E90080912E
:10083000EB0080FF1BC0333021F48091EB0080621D
:1008400013C08091EB0080618093EB0081E090E029
:1008500002C0880F991F2A95E2F78093EA00109250
:10086000EA008091EB0088608093EB001092E90031
:100870008091E800877F8CC0882309F0A9C010917F
:1008800012011F770FB7F8948091E800877F80935B
:10089000E800B7DD8091E80080FFFCCF8091E300A5
:1008A0008078812B8093E3008091E30080688093BF
:1008B000E300112311F482E001C083E080930F0173
:1008C0000FBF86C08058823008F082C0809112012C
:1008D0009091130123E08C3D920709F033C083E02F
:1008E0008C838AE28B837FB7F894DE0115966EE0E5
:1008F00040E050E011E2E62FF0E0109357008491C1
:1009000040FF03C082958F706F5F8F70282F30E09B
:100910008A3018F0C901C79602C0C901C0968D93EC
:100920009D934F5F5F4F4431510529F77FBF809101
:10093000E800877F8093E800CE0103966AE270E0CA
:1009400061D012C060911401AE014F5F5F4FF6DCC1
:10095000BC01009709F43CC08091E800877F809338
:10096000E80089819A81ACD08091E8008B778093F0
:10097000E8002EC0803861F58091E800877F809381
:10098000E80080910D018093F1008091E8008E775E
:100990008093E80036DD1CC08823D1F490911201C9
:1009A0009230B0F48091E800877F8093E8009093C4
:1009B0000D0127DD80910D01882331F48091E30042
:1009C00087FD02C081E001C084E080930F01E8DB75
:1009D0008091E80083FF0AC08091EB0080628093E1
:1009E000EB008091E800877F8093E800AC960FB61B
:1009F000F894DEBF0FBECDBFCF91DF911F910F9155
:100A0000089508959C0140911601509117014617D1
:100A1000570718F4F90190E03DC06115710511F018
:100A2000AB01F8CF8091E8008E778093E80040E03A
:100A300050E0F0CF80910F018823F1F18530F1F182
:100A40008091E80083FF02C081E008958091E80072
:100A500082FD2CC08091E80080FF1CC02091F20034
:100A60003091F30007C081918093F10041505040D4
:100A70002F5F3F4F4115510519F02830310598F38C
:100A800090E02830310509F491E08091E8008E77FC
:100A90008093E8004115510569F6992359F606C07F
:100AA00080910F01882341F0853041F08091E8006A
:100AB00082FFF6CF80E0089582E0089583E00895F4
:100AC0009C0140911601509117014617570718F4E1
:100AD000F90190E040C06115710511F0AB01F8CF4C
:100AE0008091E8008E778093E80040E050E0F0CFFE
:100AF00080910F01882309F440C0853009F43FC07C
:100B00008091E80083FF02C081E008958091E800B1
:100B100082FD2DC08091E80080FF1DC02091F20071
:100B20003091F30008C084918093F10031964150D8
:100B300050402F5F3F4F4115510519F028303105C6
:100B400090F390E02830310509F491E08091E800BD
:100B50008E778093E8004115510551F6992341F6AF
:100B600006C080910F01882341F0853041F08091CB
:100B7000E80082FFF6CF80E0089582E0089583E0E8
:100B80000895BF92CF92DF92EF92FF920F931F933F
:100B9000CF93DF93182F092F7B016A0153DCB82E06
:100BA0008823B1F5812F902F9C01E901C114D10454
:100BB00039F0F60180819181E81AF90AC80FD91F2E
:100BC00000E010E022C08091E80085FD16C0809111
:100BD000E8008B778093E800C114D10449F0F60156
:100BE00080819181800F911F9183808385E011C066
:100BF0006CD028DC882349F00CC08091F1008993E7
:100C00000894E108F1080F5F1F4FE114F104D9F6D1
:100C10008B2DDF91CF911F910F91FF90EF90DF907F
:100C2000CF90BF900895BF92CF92DF92EF92FF9244
:100C30000F931F93CF93DF93182F092F7B016A0126
:100C400001DCB82E8823B1F5812F902F9C01E9019A
:100C5000C114D10439F0F60180819181E81AF90AB2
:100C6000C80FD91F00E010E022C08091E80085FD88
:100C700016C08091E8008E778093E800C114D104FB
:100C800049F0F60180819181800F911F91838083CB
:100C900085E011C01AD0D6DB882349F00CC08991B9
:100CA0008093F1000894E108F1080F5F1F4FE114F1
:100CB000F104D9F68B2DDF91CF911F910F91FF9009
:100CC000EF90DF90CF90BF9008951F9380910F0118
:100CD000882361F01091E9001092E9008091E8000A
:100CE00083FF01C00ADD17701093E9001F9108957A
:100CF000FC0180910F018430C1F485818093E9006B
:100D00008091E80085FF11C0CB0164E070E040E015
:100D100050E037DF8091E80085FD05C08091E80054
:100D20008B778093E80081E0089580E00895FC01CE
:100D300080910F01843011F082E0089581818093C9
:100D4000E9008091F2009091F300892B11F480E08A
:100D500008958091E8008E778093E80073CB9C0122
:100D600080910F01843011F4C901E1CF0895FC0195
:100D700080910F01843011F092E015C08181809341
:100D8000E900CB0164E070E040E050E04CDF982FD8
:100D9000882349F48091E80085FD05C08091E80032
:100DA0008E778093E800892F08951F93CF93DF9368
:100DB000EC0111E08981181729F4EA81FB818C810B
:100DC00061E007C08D811817E1F4EE81FF8188850D
:100DD00060E0882311F440E001C044E020E088E0B6
:100DE00090E003C02F5F880F991F8E179F07D0F3E5
:100DF000606842602295207F422B812FCDDA8823C4
:100E000021F01F5F1730B1F681E0DF91CF911F9184
:060E10000895F894FFCFE5
:0A0E1600010240000001400000004E
:00000001FF
