:10000000A9C00000C4C00000C2C00000C0C0000001
:10001000BEC00000BCC00000BAC00000B8C00000F4
:10002000B6C00000B4C0000057C20000B0C000005D
:10003000AEC00000ACC00000AAC00000A8C0000014
:10004000A6C00000A4C00000A2C00000A0C0000024
:100050009EC00000B1C000009AC0000098C000001F
:1000600096C0000094C0000092C0000090C0000044
:100070008EC000008CC000008AC0000088C0000054
:1000800086C0000084C0000082C0000080C0000064
:100090007EC000007CC000001201100100000008BA
:1000A000EB03472001000102000109026400020184
:1000B00000C0320904000000010100000924010011
:1000C000011E0001010C24020101020001000000D8
:1000D00000092403020101000100090401000001DC
:1000E00002000009040101010102000007240102CD
:1000F0000101000B2402010102100180BB0009056F
:10010000810D00010100000725010000000004032B
:10011000090418034400650061006E0020004300DC
:1001200061006D00650072006100000026034C0054
:100130005500460041002000410075006400690040
:100140006F00200049006E002000440065006D0033
:100150006F00000011241FBECFEFD0E2DEBFCDBF85
:1001600011E0A0E0B1E0EEE1FBE000E00BBF02C077
:1001700007900D92A030B107D9F711E0A0E0B1E0EF
:1001800001C01D92A131B107E1F7BBD0C6C438CF81
:100190008BB18F70806A8BB992E090936E0083E18F
:1001A00087BD94BD95BD089515BC109200018BB11B
:1001B0008F7080618BB908951F920F920FB60F92C6
:1001C00011242F938F939F932091E90081E08093D6
:1001D000E9008091E80080FF2BC080910001882316
:1001E00039F1809103018F5F80930301815050F4B6
:1001F00080910101909102018050904890930201FA
:1002000080930101629B03C080E090E004C0809174
:100210000101909102018093F1009093F10080918F
:10022000E80085FD05C08091E8008E778093E800A6
:1002300027702093E9009F918F912F910F900FBE0F
:100240000F901F9018951F9380910A018B30A1F495
:1002500010910901113081F48091E800877F80932B
:10026000E800BAD01092000180910B0190910C012E
:10027000892B11F0109300011F91089581E061E432
:1002800046E575D080FD02C090E901C090E68BB1D3
:100290008F70982B9BB908950F931F9384B7877F16
:1002A00084BF88E10FB6F8948093600010926000DC
:1002B0000FBE80E090E020E80FB6F8942093610034
:1002C000809361000FBE8AB1806F8AB98BB18F7045
:1002D0008BB96A98729A0AE710E085EAF801808380
:1002E0008298EEE7F0E0808184608083DFD082E452
:1002F00080937C00F8018081806480831F910F913E
:100300000895CADF8BB18F7080618BB97894F2D376
:10031000FECFDA01923049F0933061F09130F9F478
:10032000E8E9F0E022E130E01EC0EAEAF0E024E68D
:1003300030E019C0813049F0813018F0823079F412
:1003400008C0EEE0F1E0849107C0E2E1F1E08491C1
:1003500003C0ECE2F1E08491282F30E004C0E0E03B
:10036000F0E020E030E0ED93FC93C9010895382FD0
:10037000282F2CC02093E900231721F4762F942FE7
:1003800050E006C07091EC009091ED005091F000AB
:1003900091FF1BC08091EB008E7F8093EB008091DA
:1003A000ED0082708093ED008091EB00816080937E
:1003B000EB007093EC009093ED005093F00080916F
:1003C000EE0087FD02C080E008952F5F273090F295
:1003D0003093E90081E008958091090188239CF41D
:1003E00004C0809108018823B9F08091E80082FF61
:1003F000F8CF8091E8008B778093E8000895809192
:100400000801882349F08091E80080FFF8CF8091AF
:10041000E8008E778093E8000895EF92FF920F93A3
:100420001F934DD054D008ED10E0F8018081982F33
:100430009F7790838068808380818F7D8083E7EDC4
:10044000F0E080818068808319BC109208011092CE
:100450000601109205011092040180EEE82EF12CA5
:10046000F70180818B7F8083F801808181608083A8
:1004700080E060E042E07BDFE1EEF0E080818E7FB3
:100480008083E2EEF0E080818160808380818860FB
:100490008083F70180818E7F8083F8018081806175
:1004A00080831F910F91FF90EF900895E7EDF0E0AA
:1004B00080818160808381E080930701AECFE8ED89
:1004C000F0E080818C7F80831092E200089510928A
:1004D000DA001092E10008951F920F920FB60F926A
:1004E0000BB60F9211242F933F934F935F936F930B
:1004F0007F938F939F93AF93BF93EF93FF938091DD
:10050000E10082FF0AC08091E20082FF06C0809174
:10051000E1008B7F8093E1002DD28091DA0080FF93
:100520001EC08091D80080FF1AC08091DA008E7FB3
:100530008093DA008091D90080FF0DC08CE089BDE6
:1005400089B5826089BD09B400FEFDCF81E080934A
:1005500008011EDE04C019BC1092080125DE80913E
:10056000E10080FF18C08091E20080FF14C08091FC
:10057000E2008E7F8093E2008091E20080618093B0
:10058000E2008091D80080628093D80019BC85E099
:1005900080930801EFD18091E10084FF2EC080910B
:1005A000E20084FF2AC08CE089BD89B5826089BDE4
:1005B00009B400FEFDCF8091D8008F7D8093D800D4
:1005C0008091E1008F7E8093E1008091E2008F7E38
:1005D0008093E2008091E20081608093E20080914C
:1005E0000601882331F48091E30087FD02C081E099
:1005F00001C084E080930801BDD18091E10083FFB8
:1006000022C08091E20083FF1EC08091E100877FBD
:100610008093E10082E080930801109206018091AE
:10062000E1008E7F8093E1008091E2008E7F8093D5
:10063000E2008091E20080618093E20080E060E06F
:1006400042E095DE97D1FF91EF91BF91AF919F91DD
:100650008F917F916F915F914F913F912F910F906B
:100660000BBE0F900FBE0F901F9018950F931F9306
:10067000DF93CF93CDB7DEB7AC970FB6F894DEBF5C
:100680000FBECDBF8091F100809309018091F100F0
:1006900080930A018091F1009091F100EBE0F1E08C
:1006A00080930B0190930C018091F1009091F100E7
:1006B00080930D0193838091F1009091F1008093DC
:1006C0000F019583C0DD8091E80083FF3AC18091DE
:1006D000090130910A01353009F487C0363040F401
:1006E0003130C9F1313070F0333009F02AC133C0F4
:1006F000383009F4F8C0393009F407C1363009F050
:1007000020C199C0803821F0823809F01AC108C090
:100710009091040180910501882399F0926011C0A5
:1007200080910D0187708093E9008091EB0090E04B
:1007300025E0969587952A95E1F7982F917010926C
:10074000E9008091E800877F8093E8009093F100B2
:100750001092F100D3C0882319F0823009F0F1C063
:1007600090E08F719070009721F0029709F0E9C036
:100770000CC080910B01813009F0E3C0109205019B
:10078000333069F5809305012AC080910B018823DD
:1007900031F520910D01277009F4D3C02093E900B1
:1007A0008091EB0080FF1BC0333021F48091EB007F
:1007B000806213C08091EB0080618093EB0081E048
:1007C00090E002C0880F991F2A95E2F78093EA0013
:1007D0001092EA008091EB0088608093EB00109209
:1007E000E9008091E800877F8CC0882309F0A9C0C8
:1007F00010910B011F770FB7F8948091E800877F65
:100800008093E800E9DD8091E80080FFFCCF8091D3
:10081000E3008078812B8093E3008091E30080687F
:100820008093E300112311F482E001C083E0809300
:1008300008010FBF86C08058823008F082C08091C6
:100840000B0190910C0123E08C3D920709F033C01D
:1008500083E08C838AE28B837FB7F894DE01159660
:100860006EE040E050E011E2E62FF0E01093570018
:10087000849140FF03C082958F706F5F8F70282F27
:1008800030E08A3018F0C901C79602C0C901C0968D
:100890008D939D934F5F5F4F4431510529F77FBF83
:1008A0008091E800877F8093E800CE0103966AE29A
:1008B00070E061D012C060910D01AE014F5F5F4FDB
:1008C00028DDBC01009709F43CC08091E800877FD7
:1008D0008093E80089819A81ACD08091E8008B7781
:1008E0008093E8002EC0803861F58091E800877F12
:1008F0008093E800809106018093F1008091E800E8
:100900008E778093E80068DD1CC08823D1F4909135
:100910000B019230B0F48091E800877F8093E8006B
:100920009093060159DD80910601882331F480916E
:10093000E30087FD02C081E001C084E080930801EC
:100940009DDC8091E80083FF0AC08091EB0080620B
:100950008093EB008091E800877F8093E800AC965D
:100960000FB6F894DEBF0FBECDBFCF91DF911F91C0
:100970000F91089508959C0140910F01509110012D
:100980004617570718F4F90190E03DC0611571054D
:1009900011F0AB01F8CF8091E8008E778093E800EA
:1009A00040E050E0F0CF809108018823F1F18530DC
:1009B000F1F18091E80083FF02C081E00895809109
:1009C000E80082FD2CC08091E80080FF1CC02091CF
:1009D000F2003091F30007C081918093F100415003
:1009E00050402F5F3F4F4115510519F02830310518
:1009F00098F390E02830310509F491E08091E80007
:100A00008E778093E8004115510569F6992359F6D0
:100A100006C080910801882341F0853041F0809123
:100A2000E80082FFF6CF80E0089582E0089583E039
:100A300008959C0140910F015091100146175707EE
:100A400018F4F90190E040C06115710511F0AB0197
:100A5000F8CF8091E8008E778093E80040E050E086
:100A6000F0CF80910801882309F440C0853009F453
:100A70003FC08091E80083FF02C081E0089580912B
:100A8000E80082FD2DC08091E80080FF1DC020910C
:100A9000F2003091F30008C084918093F100319608
:100AA000415050402F5F3F4F4115510519F02830FC
:100AB000310590F390E02830310509F491E0809100
:100AC000E8008E778093E8004115510551F699238F
:100AD00041F606C080910801882341F0853041F03D
:100AE0008091E80082FFF6CF80E0089582E00895CB
:100AF00083E008951F9380910801882361F010918D
:100B0000E9001092E9008091E80083FF01C0AEDDAA
:0E0B100017701093E9001F910895F894FFCF1D
:00000001FF
