:1000000010C200002CC200002AC2000028C200005A
:1000100026C2000024C2000022C2000020C200004C
:100020001EC200001CC200000C94E60E18C20000A4
:1000300016C2000014C2000012C2000010C200006C
:100040000EC200000CC200000AC2000008C200007C
:1000500006C2000004C2000002C2000000C200008C
:10006000FEC10000FCC10000FAC10000F8C10000A0
:10007000F6C10000F4C10000F2C10000F0C10000B0
:10008000EEC10000ECC10000EAC10000E8C10000C0
:10009000E6C10000E4C100001201100102000008E6
:1000A000EB034C2001000102000109023E000201A5
:1000B00000C03209040000010202FF000524001004
:1000C000010424020005240600010705830308003B
:1000D000FF09040100020A000000070502024000B7
:1000E00001070581024000010403090418034400CC
:1000F000650061006E002000430061006D00650036
:1001000072006100000028034C00550046004100C9
:10011000200052004E0044004900530020004300DC
:10012000440043002000440065006D006F000000A3
:10013000485454502F312E3120323030204F4B0D47
:100140000A5365727665723A204C55464120524EEC
:100150004449530D0A436F6E74656E742D74797043
:10016000653A20746578742F68746D6C0D0A436F5E
:100170006E6E656374696F6E3A20636C6F73650DA4
:100180000A0D0A00485454502F312E312034303497
:10019000204E6F7420466F756E640D0A536572763B
:1001A00065723A204C55464120524E4449530D0A3F
:1001B000436F6E6E656374696F6E3A20636C6F7324
:1001C000650D0A0D0A003C68746D6C3E093C68655B
:1001D00061643E09093C7469746C653E0909094C07
:1001E0005546412057656273657276657220446595
:1001F0006D6F09093C2F7469746C653E093C2F686A
:100200006561643E093C626F64793E09093C68316E
:100210003E48656C6C6F2066726F6D20796F7572E9
:100220002055534220415652213C2F68313E090946
:100230003C703E09090948656C6C6F212057656C5C
:10024000636F6D6520746F20746865204C5546415E
:1002500020524E4449532044656D6F2057656273A8
:100260006572766572207465737420706167652CA1
:100270002072756E6E696E67206F6E20796F757271
:10028000205553422041565220766961207468659A
:10029000204C554641206C6962726172792E20545F
:1002A0006869732064656D6F6E73747261746573D1
:1002B00020746865204854545020776562736572D5
:1002C0007665722C205443502F495020737461631B
:1002D0006B20616E6420524E4449532064656D6FFB
:1002E00020616C6C2072756E6E696E672061746F30
:1002F0007020746865204C55464120555342207348
:100300007461636B2E0909093C6272202F3E3C62C6
:1003100072202F3E0909093C736D616C6C3E50726E
:100320006F6A65637420496E666F726D6174696F80
:100330006E3A203C6120687265663D226874747074
:100340003A2F2F7777772E6C7566612D6C69622E48
:100350006F7267223E687474703A2F2F7777772E0A
:100360006C7566612D6C69622E6F72673C2F613E01
:100370002E3C2F736D616C6C3E0909093C6872203C
:100380002F3E0909093C693E4C554641205665728D
:1003900073696F6E3A203C2F693E31313035323807
:1003A00009093C2F703E093C2F626F64793E3C2F57
:1003B00068746D6C3E00010101000202010002013F
:1003C0000100030101000401010006010100110107
:1003D0000100070101000A0101000B0101000C01ED
:1003E00001000D0101000E010100110101001401C5
:1003F00001000101020002010200030102000401E8
:1004000002000501020001010101020101010301D5
:1004100001010401010101010201020102010301C4
:10042000020111241FBECFEFD0E2DEBFCDBF11E02D
:10043000A0E0B1E0E0E6FFE200E00BBF02C0079001
:100440000D92A83FB107D9F714E1A8EFB1E001C0C0
:100450001D92AD31B107E1F76AD00C94AE17D0CD43
:100460008BB18F70806A8BB908958BB18F7080616A
:100470008BB9089588E191E00C94681488E191E0CB
:100480000E941F1480FD02C090E901C090E68BB16C
:100490008F70982B9BB9089584B7877F84BF38E10C
:1004A0000FB6F89430936000109260000FBE80E0A9
:1004B00090E020E80FB6F8942093610080936100EB
:1004C0000FBE8AB1806F8AB98BB18F708BB983E30D
:1004D00090E09093CD008093CC0086E08093CA009A
:1004E0001092C8003093C900539A5A9A0E94D00EB5
:1004F000E9E0F4E1F0931814E0931714F0931A1460
:10050000E09319148EE0DF011D928A95E9F783E0EC
:1005100080930C1483E397E1909312148093111449
:100520008DE397E190931414809313140895B4DF2E
:100530005ED10E94F80D8BB18F7080618BB9789479
:1005400088E191E00E94F112882331F18BB18F7024
:1005500080628BB988E191E068EF71E044ED57E08B
:100560000E94C11388EF91E066ED77E081D0409161
:10057000B20D5091B30D4115510551F088E191E054
:1005800066ED77E00E940B131092B30D1092B20D3E
:100590008BB18F7080668BB988E191E066ED77E072
:1005A000A0D688E191E00E947C130E94DE12C8CFA1
:1005B000DA01923049F0933061F09130F9F4E8E9D2
:1005C000F0E022E130E01EC0EAEAF0E02EE330E0A5
:1005D00019C0813049F0813018F0823079F408C0B8
:1005E000E8EEF0E0849107C0ECEEF0E0849103C007
:1005F000E6E0F1E08491282F30E004C0E0E0F0E094
:1006000020E030E0ED93FC93C9010895CF93DF9390
:1006100076956795EC0120E030E040E050E0E0E0C6
:10062000F0E009C089919991A0E0B0E0280F391F4E
:100630004A1F5B1F3196E617F707A0F30BC0DA01DC
:10064000C901A070B0709A0144275527280F391F9F
:100650004A1F5B1FDA01C901807090700097A105E5
:10066000B10569F720953095C901DF91CF910895C3
:100670000F931F93CF93DF93EC018B016CD0CE01CE
:1006800063EB71E046E050E00E947917009751F06B
:10069000CE016DEB71E046E050E00E9479170097C3
:1006A00009F050C0C452DA4F88819981CC5DD540A1
:1006B000282F892F922F8150964008F443C02C8513
:1006C0003D85822F232F382F88E02030380759F0BE
:1006D00026503840B9F5B801625F7F4FCE010E96C3
:1006E0000E94080C09C0BE01625F7F4FA801425FF3
:1006F0005F4FCE010E94870C9C0118161906F4F476
:10070000D8011696E3EBF1E086E001900D9281505E
:10071000E1F7D801FE01369686E001900D928150F6
:10072000E1F78C859D85F8019587848704521A4FDF
:10073000225F3F4FF8013183208304C0FFEF8F3FDA
:100740009F0721F0C452DA4F19821882DF91CF91AE
:100750001F910F910895089508950895089508959B
:1007600008950895EF92FF920F931F93CF93DF9315
:100770007C018B01EA01CB01F1DFF8018081883037
:1007800019F020E030E02BC0188219821B821A82F7
:10079000F801848195819D838C83868197819F83D5
:1007A0008E83B801685F7F4F8CED95E0E80EF91EEF
:1007B000F7018081918187010C5D1540080F191F99
:1007C000061B170BCE010896A8010E948F17085F21
:1007D0001F4FCE01B8011ADF9B838A839801C9019C
:1007E000DF91CF911F910F91FF90EF90089510929C
:1007F000F9138AE08093CA0F8093E0118093F61377
:1008000008959C018091F7139091F8138217930734
:1008100019F480E090E013C08091FC139091FD13D7
:100820008217930719F481E090E009C080910114C8
:10083000909102148217930779F482E090E0FC0112
:10084000EE0FFF1FEE0FFF1FE80FF91FE950FC4EE0
:1008500062835483438302C0613011F081E00895C4
:100860008091F913882319F480E090E00FC0809103
:10087000FE13882319F481E090E008C080910314EE
:10088000882311F080E0089582E090E0FC01EE0FF3
:10089000FF1FEE0FFF1FE80FF91FE950FC4E3183D9
:1008A000208381E082835483438308959C01809157
:1008B000F7139091F8138217930719F480E090E0F2
:1008C00015C08091FC139091FD138217930719F4C2
:1008D00081E090E00BC08091011490910214821786
:1008E000930711F080E0089582E090E0FC01EE0FA4
:1008F000FF1FEE0FFF1FE80FF91FE950FC4E82812A
:1009000008952F923F924F925F926F927F928F92B3
:100910009F92AF92BF92CF92DF92EF92FF920F938E
:100920001F93DF93CF93CDB7DEB72A970FB6F89416
:10093000DEBF0FBECDBF9A8789873A0149835A83AC
:100940006B837C8358010D831E832F833887B70107
:1009500088249924EB80FC8000E010E0CC24DD2486
:100960002F81388540E050E0872F962F1C014424CA
:10097000552480E096E0A0E0B0E0280E391E4A1E23
:100980005B1E260C371C481C591C2A0C3B1C4C1C9B
:100990005D1C2E0C3F1C401E511E220E331E441E99
:1009A000551EFB01F695E79549855A8520E030E014
:1009B0000CC0DA018D919D91AD01A0E0B0E0280E50
:1009C000391E4A1E5B1E2F5F3F4F2E173F0788F3CD
:1009D00060FF17C0EE0FFF1F89859A85E80FF91F8A
:1009E0008081280E311C411C511C0BC0D201C10159
:1009F000A070B070120144245524280E391E4A1EDE
:100A00005B1ED201C101807090700097A105B105F5
:100A100069F7910120953095C9012A960FB6F8948F
:100A2000DEBF0FBECDBFCF91DF911F910F91FF9021
:100A3000EF90DF90CF90BF90AF909F908F907F907E
:100A40006F905F904F903F902F9008954F925F92DC
:100A50006F927F928F929F92AF92BF92CF92DF92CE
:100A6000EF92FF920F931F93DF93CF9300D000D0AC
:100A7000CDB7DEB74C0149835A836B837C83590120
:100A800025EBE22E2DE0F22E00E010E096E1492E5B
:100A900092E0592E3E010894611C711CF70180817F
:100AA000918188159905D9F4049D6001059DD00CAC
:100AB000149DD00C1124C6018754924FB30144E019
:100AC00050E00E947917009751F4F70182819381D9
:100AD0008A159B0521F496012354324F0BC00F5FFA
:100AE0001F4F86E192E0E80EF91E03301105B1F6C2
:100AF00020E030E0C9010F900F900F900F90CF9140
:100B0000DF911F910F91FF90EF90DF90CF90BF90FA
:100B1000AF909F908F907F906F905F904F900895CF
:100B20004F925F926F927F928F929F92AF92BF92FD
:100B3000CF92DF92EF92FF920F931F93DF93CF93A9
:100B400000D000D0CDB7DEB74C0149835A836B8308
:100B50007C83590145EBE42E4DE0F42E00E010E0DB
:100B600036E1432E32E0532E3E010894611C711C85
:100B7000F7018081918188159905E1F4049D600158
:100B8000059DD00C149DD00C1124C6018754924FA2
:100B9000B30144E050E00E947917009759F4F7013F
:100BA000828193818A159B0529F4F601E653F04F63
:100BB00080810AC00F5F1F4F86E192E0E80EF91EA8
:100BC00003301105A9F68AE00F900F900F900F9057
:100BD000CF91DF911F910F91FF90EF90DF90CF9019
:100BE000BF90AF909F908F907F906F905F904F904D
:100BF00008953F924F925F926F927F928F929F9251
:100C0000AF92BF92CF92DF92EF92FF920F931F931A
:100C1000DF93CF9300D000D0CDB7DEB75C0149831E
:100C20005A836B837C834901302E75EBE72E7DE080
:100C3000F72E00E010E066E1462E62E0562E3E01FF
:100C40000894611C711CF701808191818A159B05B4
:100C5000D9F4049D6001059DD00C149DD00C112485
:100C6000C6018754924FB30144E050E00E947917C7
:100C7000009751F4F701828193818815990521F439
:100C8000F601E653F04F47C00F5F1F4F86E192E039
:100C9000E80EF91E03301105B1F68091CA0F8A30B3
:100CA00019F440E050E00FC08091E0118A3019F44F
:100CB00041E050E008C08091F6138A3011F080E0E6
:100CC0002CC042E050E086E192E0489F9001499FAD
:100CD000300D589F300D11242B54324FF901B18241
:100CE000A08289819A81AB81BC8184839583A6830C
:100CF000B7838BE091E0489FF001499FF00D589F2A
:100D0000F00D1124EE0FFF1FE954F24F9182808203
:100D10002B5E3D4FF901308281E00F900F900F90D4
:100D20000F90CF91DF911F910F91FF90EF90DF9087
:100D3000CF90BF90AF909F908F907F906F905F907B
:100D40004F903F900895AF92BF92CF92DF92EF9273
:100D5000FF920F931F93CF93DF937B015C016A0196
:100D6000CB01FDDCD70112968D919C9113979EDDEE
:100D7000813009F02AC2E7018D8581FF0BC0F501A2
:100D80004485558566857785288139818A819B814F
:100D900000E02FDFD7011D968C911D971296ED91E3
:100DA000FC911397E5014C855D856E857F852D91BE
:100DB0003C9182FF08C0CF010AE01BDF882309F4C1
:100DC00038C284E15DC0CF01ABDE843009F468C174
:100DD000853048F4823009F456C0833008F07FC073
:100DE000882359F026C2863009F4DCC1863008F425
:100DF0009EC1873009F01DC235C1D7011D968C9167
:100E00001D97823009F015C2E5014C855D856E8520
:100E10007F852D913C91119712968D919C911397FE
:100E200002E0E7DE882359F182E1F60185874C85EF
:100E30005D856E857F85D7012D913C911197129626
:100E40008D919C91139702DEFC01E7018C819D81BD
:100E5000AE81BF81282F8B2FB22F292F9A2FA22F3F
:100E60000196A11DB11D80839183A283B383148257
:100E7000158216821782E45FFD4F1082E8C184E07C
:100E8000F6018587E4C1D7011D968C911D978031AD
:100E900009F0CFC1E5014C855D856E857F852D917B
:100EA0003C91119712968D919C91139703E0A1DECE
:100EB0004C855D856E857F85F7012081318182813A
:100EC0009381C4DDFC0184819581A681B78101965F
:100ED000A11DB11D84839583A683B783AAC1D701C1
:100EE0001D968C911D978131A9F5E6018D87F5013D
:100EF00044855585668577852D913C91119712968D
:100F00008D919C91139706E074DED5011C964D914E
:100F10005D916D917C911F97E701288139818A81CC
:100F20009B8194DDFC0180819181A281B381019636
:100F3000A11DB11D80839183A283B3838481958198
:100F4000A681B7810196A11DB11D84839583A683D7
:100F5000B7837DC1803119F0883109F06AC1F5018C
:100F60004485558566857785D7012D913C911197EC
:100F700012968D919C91139769DDEC01FC01E45F61
:100F8000FD4F8081882381F4C55FDD4F8881CB5080
:100F9000D240882349F4C65FDD4F1882CA50D24040
:100FA00081E0808319861886C65FDD4F8881CA502C
:100FB000D240882309F03AC168857985B2E0603073
:100FC0007B0709F433C1F50120812F7030E0220F37
:100FD000331F220F331FD7011C968C9182958F707F
:100FE00090E0880F991F880F991F02811381402F6D
:100FF000012F142F021B130B081B190B9B01265FDB
:101000003F4F2C0F3D1FA701480F591FC901BA01BF
:10101000A8010E948617980140E050E088819981DC
:10102000AA81BB81820F931FA41FB51F8883998358
:10103000AA83BB8388859985800F911F99878887AC
:101040008050924021F0F701858583FFF2C0C45F94
:10105000DD4F1882FE0181E0829380E1D6011D966A
:101060008C93F5C0E5014C855D856E857F85F70124
:101070002081318182819381E9DC21E1D6011D96B5
:101080002C93FC01E45FFD4F10824C855D856E85DD
:101090007F85E701288139818A819B8104E080C0B6
:1010A000F70185858131A1F5D5011C964D915D91A2
:1010B0006D917C911F972081318182819381C6DC63
:1010C000FC0180E1E6018D8780819181A281B3815D
:1010D0000196A11DB11D80839183A283B383848176
:1010E0009581A681B7810196A11DB11D8483958349
:1010F000A683B783F5014485558566857785D70135
:101100002D913C91119712968D919C91139747C008
:10111000803109F08EC0E5014C855D856E857F8547
:10112000F701208131818281938105E04CC0D70194
:101130001D968C911D97813109F07BC0E5014C858E
:101140005D856E857F852D913C91119712968D91CD
:101150009C9113977BDCFC0180E1D6011D968C935A
:1011600080819181A281B3810196A11DB11D8083EF
:101170009183A283B38384819581A681B7810196EF
:10118000A11DB11D84839583A683B7834C855D859E
:101190006E857F85E701288139818A819B810AE0FC
:1011A00028DD55C0F7018585803109F042C0D501A1
:1011B0001C964D915D916D917C911F97208131819D
:1011C000828193810AE015DD34C084E1E6018D87D8
:1011D0003EC082E090E0F601978786870CC080E0F1
:1011E00092E020853185821B930BD6011E969C933D
:1011F0001E971F968C93E6011B8A1A8A198A188AF1
:101200008C85807F8C87F50140895189628973893B
:101210000485158526853785C601E4E1EE2EF12C7F
:1012200070DB998B888B24E130E005C02FEF3FEF16
:1012300002C020E030E0C901DF91CF911F910F91F2
:10124000FF90EF90DF90CF90BF90AF900895D501C1
:101250001C964D915D916D917C911F97E7012881BE
:1012600039818A819B81F2DBFC018A819B81D601D5
:1012700011969C938E938881998113969C938E935B
:101280001297348125819681878114968C931497C7
:1012900015969C93159716962C93169717963C9334
:1012A0001797308121819281838118968C931897AA
:1012B00019969C9319971A962C931A971B963C9300
:1012C0001B971C968C911C978F7080651C968C9335
:1012D000E45FFD4F8081EC50F240882309F479CF20
:1012E0007ECF2F923F924F925F926F927F928F921A
:1012F0009F92AF92BF92CF92DF92EF92FF920F93A5
:101300001F93DF93CF9300D000D0CDB7DEB77C839F
:101310006B8395EBC92E9DE0D92E00E010E086E1AD
:10132000E82E82E0F82E1CC08091F913813079F408
:101330000E9DB0010F9D700D1E9D700D11246B53FD
:10134000724FE091FA13F091FB13C60109950F5FFC
:101350001F4F26E132E0C20ED31E0330110559F0B3
:101360002091F7133091F813D6018D919C91281795
:10137000390769F7D9CFEB81FC81E452FA4F8081BC
:101380009181EC5DF540FC83EB83892B09F017C15B
:101390008091C70F882339F08091C80F882319F0F6
:1013A0001A8219821BC08091DD11882349F0809137
:1013B000DE11882329F021E030E03A8329830EC032
:1013C0008091F313882309F4FAC08091F4138823E1
:1013D00009F4F5C082E090E09A838983AB80BC80F9
:1013E000AEE0B0E0AA0EBB1ECB80DC80E2E2F0E013
:1013F000CE0EDF1E86E192E029813A81289FA0016E
:10140000299F500D389F500D112405EB802E0DE0C3
:10141000902E840E951ED40150966D907C9051971D
:101420008D919C91EB81FC8193A382A38BE091E051
:10143000289FF001299FF00D389FF00D1124EE0F29
:10144000FF1FE954F24F80819181D60113969C933E
:101450008E931297F4013C96D4011C963C911C97F4
:10146000218192818381F60184839583268337834A
:10147000F401389618963C91218192818381F6017E
:10148000808791872287338782E090E097878687DD
:1014900080E18587138A128A118A108A80E5848701
:1014A0002B813C812A5C3F4F4953524FC901BA01FD
:1014B000A3010E948617C301A0E0B0E0F4012485D7
:1014C000358546855785820F931FA41FB51F8487D6
:1014D0009587A687B78724E130E0620E731E2090BF
:1014E000B9013090BA014090BB015090BC01048119
:1014F000158126813781C601B201A101730101DA8C
:10150000D60151969C938E93509783010C5E1F4F8A
:10151000F50112830383118285E4AB81BC811E96A1
:101520008C9316821782158214821386128686E0A7
:10153000818780E880872486358646865786F40131
:1015400084819581A681B781F501808B918BA28BD7
:10155000B38BC50164E170E059D8D5011B969C930B
:101560008E931A97AB81BC811696E3EBF1E086E08F
:1015700001900D928150E1F7AB81BC81EBECF1E081
:1015800086E001900D928150E1F788E090E0EB81D8
:10159000FC8195878487E452FA4F025F1F4F1183C5
:1015A000008386E192E029813A81289FF001299FFA
:1015B000F00D389FF00D1124E853F04F10820F907A
:1015C0000F900F900F90CF91DF911F910F91FF908F
:1015D000EF90DF90CF90BF90AF909F908F907F90D3
:1015E0006F905F904F903F902F900895EF92FF92F1
:1015F0000F931F93CF93DF937C01EB018A01CB0103
:10160000AFD88A819B81282F892F922F833491050F
:10161000E9F4BE01685F7F4FA801485F5F4FC701D3
:101620001FD09C01181619068CF48A819B81F80141
:101630009183808388819981938382831782168224
:10164000C9010896948385839C0102C020E030E0A4
:10165000C901DF91CF911F910F91FF90EF900895F5
:101660008F929F92AF92BF92CF92DF92EF92FF92B2
:101670000F931F93CF93DF938B01EA015C0180EFFF
:10168000882E912C860E971ECB016BD880EFFE0121
:1016900011928A95E9F7F8018181898382E0888334
:1016A00082818A831B8284819581A681B7818C8304
:1016B0009D83AE83BF8319861886828593859B8719
:1016C0008A87C090C701D090C801E090C901F0900E
:1016D000CA01C88AD98AEA8AFB8A045E1F4FCE01F2
:1016E0004C96B80146E050E00E948F1783E693E5E0
:1016F000A2E8B3E6B3E6292F9A2FA22FC451DF4FF9
:1017000088839983AA83BB83CC5ED040F501C486CD
:10171000D586E686F7868091B9019091BA01A091AD
:10172000BB01B091BC01808B918BA28BB38B5BC052
:10173000853309F04DC094012E5F3F4FF401828143
:10174000813019F0833009F048C0FE01E051FF4FAD
:10175000DF0185E38D9381E08183ED012196F9011D
:101760008081813011F085E001C082E011968C9378
:10177000FE01319681E08983CF01019634E0318307
:10178000DC0111962FEFFC012183FD0131961196AA
:101790002C93DF0111962183FD01319611961C9245
:1017A000DF01119686E38183FD01319611963C930A
:1017B0008091B9019091BA01A091BB01B091BC0197
:1017C00081839283A383B483258320E031E012C018
:1017D000882319F481E090E004C0F401818190E055
:1017E0000296880E991EF40180818F3F09F0A0CFE8
:1017F00020E030E0C901DF91CF911F910F91FF9060
:10180000EF90DF90CF90BF90AF909F908F90089512
:10181000EF92FF920F931F93CF93DF93182F092F0F
:10182000F62EE72E0E94AC03C12FD02F8A819B8118
:10183000282F892F922F8050984009F05EC08E810A
:101840009F81282F892F922F019709F056C0CE0132
:10185000489669EB71E044E050E00E9479170097E8
:1018600059F0CE01429663EB71E046E050E00E94F1
:101870007917009709F041C0EF2DFE2D88819981DD
:10188000918380838A819B81938382838C818483EB
:101890008D81858380E092E0978386839F012E5E11
:1018A0003F4FAE01485F5F4F86E0DA010D90AD011A
:1018B000D9010D929D018150C1F78E859F85A88920
:1018C000B989808F918FA28FB38FEF012896A3EBF8
:1018D000B1E086E00D9009928150E1F78091B90165
:1018E0009091BA01A091BB01B091BC018687978706
:1018F000A08BB18B2CE130E002C020E030E0C901C8
:10190000DF91CF911F910F91FF90EF900895AF92CB
:10191000BF92DF92EF92FF920F931F93CF93DF93CB
:101920005C017B01EA01CB010E94AD03F701D0808D
:10193000FFE0DF228701005F1F4FC80169EB71E004
:1019400044E050E00E947917009749F0C80163EC29
:1019500071E044E050E00E947917009771F46D2D1A
:1019600070E0660F771F660F771FF701818586305D
:1019700081F08131B1F0813019F020E030E047C0D2
:101980006E0D7F1DAE014C5E5F4FC5010E94B2031C
:101990000FC06E0D7F1DAE014C5E5F4FC701D3D9E6
:1019A00007C06E0D7F1DAE014C5E5F4FC7011EDE8E
:1019B0009C01181619065CF58C010C5E1F4F1A83EA
:1019C0000B83198285E488831E821F821D821C82FC
:1019D0001B861A86F7018185898780E88887808938
:1019E0009189A289B3898C879D87AE87BF878485BB
:1019F0009585A685B785888B998BAA8BBB8BCE01E5
:101A000064E170E00E9406039B878A879801C90100
:101A1000DF91CF911F910F91FF90EF90DF90BF90DA
:101A2000AF900895DB010D900020E9F71197A61BF8
:101A3000B70BAD010E94A0179C0180E0232B09F495
:101A400081E00895AF92BF92CF92DF92EF92FF9222
:101A50000F931F93CF93DF935C01EB018B010E5F1C
:101A60001F4F33E0C32E32E0D32EC60ED71EF60131
:101A70008081882309F466C022E0E22EF22EE60E71
:101A8000F71EF7018081882309F0A7C0C80161ED26
:101A900071E0C8DF8823F9F0C80165ED71E0C2DFAD
:101AA000882349F11092B40DC80160E371E00E94EF
:101AB0005A1781E0F7018083F80101900020E9F7CF
:101AC0003197E01BF10BF983E883F6018083CC5F4B
:101AD000DD4F888382C0C8016CED71E0A3DF8823ED
:101AE00011F1C80161EE71E09DDF882321F0C8018A
:101AF00060E371E003C0C80164E871E00E945A1716
:101B000081E0F7018083F80101900020E9F7319727
:101B1000E01BF10BF983E883F601808385E192E015
:101B2000A80EB91E57C0C80169EE71E07BDF88239B
:101B300021F081E0F7018083EFCFF6011082198256
:101B400018824BC0CC5FDD4F8881C450D2408823BF
:101B500009F443C0CE5FDD4F8881C250D240882354
:101B6000E1F18091B40DC82EDD24D694DC2CCC2478
:101B7000D794C79486EC91E0C80ED91EC6010E9486
:101B800061177C0191E8E916F10418F080E8E82E6D
:101B9000F12CC801B601A7010E946A17CE5FDD4F84
:101BA00081E08883C250D240F982E882CD5FDD4F68
:101BB0008883C350D2408091B40D8F5F8093B40D61
:101BC0008150833051F4CC5FDD4F1882E5E1F2E0C3
:101BD000AE0EBF1E87E0F5018083DF91CF911F918C
:101BE0000F91FF90EF90DF90CF90BF90AF9008954E
:101BF00080E090E561E042E25DE00C940104382F62
:101C0000282F2CC02093E900231721F4762F942F3E
:101C100050E006C07091EC009091ED005091F00002
:101C200091FF1BC08091EB008E7F8093EB00809131
:101C3000ED0082708093ED008091EB0081608093D5
:101C4000EB007093EC009093ED005093F0008091C6
:101C5000EE0087FD02C080E008952F5F273090F2EC
:101C60003093E90081E008958091011488239CF469
:101C700004C0809100148823B9F08091E80082FFAD
:101C8000F8CF8091E8008B778093E80008958091E9
:101C90000014882349F08091E80080FFF8CF8091FC
:101CA000E8008E778093E80008954091E400509119
:101CB000E50024E68091EC0080FF05C08091E800FB
:101CC00080FF05C022C08091E80082FD1EC0809187
:101CD0000014882311F482E00895853011F483E024
:101CE00008958091EB0085FF02C081E00895809106
:101CF000E4009091E50084179507E1F2222311F4A6
:101D000084E008952150AC01D5CF80E00895EF9292
:101D1000FF920F931F934DD054D008ED10E0F801BF
:101D20008081982F9F7790838068808380818F7DCA
:101D30008083E7EDF0E080818068808319BC109299
:101D400000141092FE131092FD131092FC1380EEFB
:101D5000E82EF12CF70180818B7F8083F801808150
:101D60008160808380E060E042E049DFE1EEF0E006
:101D700080818E7F8083E2EEF0E0808181608083CD
:101D8000808188608083F70180818E7F8083F80165
:101D90008081806180831F910F91FF90EF90089563
:101DA000E7EDF0E080818160808381E08093FF1324
:101DB000AECFE8EDF0E080818C7F80831092E2006E
:101DC00008951092DA001092E10008951F920F9288
:101DD0000FB60F920BB60F9211242F933F934F9390
:101DE0005F936F937F938F939F93AF93BF93EF9383
:101DF000FF938091E10082FF0AC08091E20082FFA0
:101E000006C08091E1008B7F8093E10032D2809107
:101E1000DA0080FF20C08091D80080FF1CC0809134
:101E2000DA008E7F8093DA008091D90080FF0EC0A7
:101E30008CE089BD89B5826089BD09B400FEFDCF03
:101E400081E0809300140E94300205C019BC1092FA
:101E500000140E9435028091E10080FF18C080913B
:101E6000E20080FF14C08091E2008E7F8093E20048
:101E70008091E20080618093E2008091D8008062CE
:101E80008093D80019BC85E080930014F2D1809132
:101E9000E10084FF2EC08091E20084FF2AC08CE024
:101EA00089BD89B5826089BD09B400FEFDCF8091EE
:101EB000D8008F7D8093D8008091E1008F7E809341
:101EC000E1008091E2008F7E8093E2008091E20049
:101ED00081608093E2008091FE13882331F4809129
:101EE000E30087FD02C081E001C084E0809300141C
:101EF000C0D18091E10083FF22C08091E20083FF86
:101F00001EC08091E100877F8093E10082E0809392
:101F100000141092FE138091E1008E7F8093E10007
:101F20008091E2008E7F8093E2008091E2008061E8
:101F30008093E20080E060E042E061DE9AD1FF91B0
:101F4000EF91BF91AF919F918F917F916F915F9131
:101F50004F913F912F910F900BBE0F900FBE0F909E
:101F60001F9018950F931F93DF93CF93CDB7DEB7D4
:101F7000AC970FB6F894DEBF0FBECDBF8091F100D5
:101F8000809301148091F100809302148091F100FC
:101F90009091F100E3E0F4E1809303149093041432
:101FA0008091F1009091F1008093051493838091CA
:101FB000F1009091F1008093071495830E943A02FA
:101FC0008091E80083FF3CC180910114309102149C
:101FD000353009F487C0363040F43130C9F1313042
:101FE00070F0333009F02CC133C0383009F4F9C037
:101FF000393009F408C1363009F022C199C080385F
:1020000021F0823809F01CC108C09091FC13809126
:10201000FD13882399F0926011C080910514877098
:102020008093E9008091EB0090E025E096958795FC
:102030002A95E1F7982F91701092E9008091E800BD
:10204000877F8093E8009093F1001092F100D4C054
:10205000882319F0823009F0F3C090E08F719070FE
:10206000009721F0029709F0EBC00CC08091031497
:10207000813009F0E5C01092FD13333069F580938B
:10208000FD132AC080910314882331F52091051493
:10209000277009F4D5C02093E9008091EB0080FF00
:1020A0001BC0333021F48091EB00806213C080911B
:1020B000EB0080618093EB0081E090E002C0880F2C
:1020C000991F2A95E2F78093EA001092EA00809126
:1020D000EB0088608093EB001092E9008091E800AB
:1020E000877F8DC0882309F0ABC0109103141F7740
:1020F0000FB7F8948091E800877F8093E800B4DD03
:102100008091E80080FFFCCF8091E3008078812BF4
:102110008093E3008091E30080688093E3001123C3
:1021200011F482E001C083E0809300140FBF88C0E7
:102130008058823008F084C0809103149091041478
:1021400023E08C3D920709F033C083E08C838AE260
:102150008B837FB7F894DE0115966EE040E050E087
:1021600011E2E62FF0E010935700849140FF03C086
:1021700082958F706F5F8F70282F30E08A3018F053
:10218000C901C79602C0C901C0968D939D934F5F48
:102190005F4F4431510529F77FBF8091E800877F69
:1021A0008093E800CE0103966AE270E063D013C02A
:1021B00060910514AE014F5F5F4F0E94D802BC01D1
:1021C000009709F43DC08091E800877F8093E80084
:1021D00089819A81EED08091E8008B778093E80026
:1021E0002FC0803869F58091E800877F8093E800F0
:1021F0008091FE138093F1008091E8008E778093A8
:10220000E80032DD1DC08823D9F490910314923088
:10221000B8F48091E800877F8093E8009093FE13E4
:1022200023DD8091FE13882331F48091E30087FD44
:1022300002C081E001C084E0809300140E943E024D
:102240008091E80083FF0AC08091EB008062809358
:10225000EB008091E800877F8093E800AC960FB692
:10226000F894DEBF0FBECDBFCF91DF911F910F91CC
:10227000089508959C014091071450910814461741
:10228000570718F4F90190E03DC06115710511F090
:10229000AB01F8CF8091E8008E778093E80040E0B2
:1022A00050E0F0CF809100148823F1F18530F1F1F6
:1022B0008091E80083FF02C081E008958091E800EA
:1022C00082FD2CC08091E80080FF1CC02091F200AC
:1022D0003091F30007C081918093F100415050404C
:1022E0002F5F3F4F4115510519F02830310598F304
:1022F00090E02830310509F491E08091E8008E7774
:102300008093E8004115510569F6992359F606C0F6
:1023100080910014882341F0853041F08091E800DD
:1023200082FFF6CF80E0089582E0089583E008956B
:102330009C016115710529F48091E8008B778093E9
:10234000E800F90122C080910014882371F18530E2
:1023500071F18091E80083FF02C081E008958091CF
:10236000E80082FFF0CF06C08091F10081936150B8
:10237000704031F08091F2009091F300892BA1F729
:102380008091E8008B778093E80061157105D9F69C
:1023900006C080910014882341F0853041F080917F
:1023A000E80080FFF6CF80E0089582E0089583E0A2
:1023B00008959C014091071450910814461757073F
:1023C00018F4F90190E040C06115710511F0AB01FE
:1023D000F8CF8091E8008E778093E80040E050E0ED
:1023E000F0CF80910014882309F440C0853009F4AF
:1023F0003FC08091E80083FF02C081E00895809192
:10240000E80082FD2DC08091E80080FF1DC0209172
:10241000F2003091F30008C084918093F10031966E
:10242000415050402F5F3F4F4115510519F0283062
:10243000310590F390E02830310509F491E0809166
:10244000E8008E778093E8004115510551F69923F5
:1024500041F606C080910014882341F0853041F098
:102460008091E80082FFF6CF80E0089582E0089531
:1024700083E00895BF92CF92DF92EF92FF920F9385
:102480001F93CF93DF93182F092F7B016A010DDC77
:10249000B82E8823B1F5812F902F9C01E901C1143A
:1024A000D10439F0F60180819181E81AF90AC80F48
:1024B000D91F00E010E022C08091E80085FD16C021
:1024C0008091E8008B778093E800C114D10449F033
:1024D000F60180819181800F911F9183808385E037
:1024E00011C06CD0E2DB882349F00CC08091F10070
:1024F00089930894E108F1080F5F1F4FE114F1047C
:10250000D9F68B2DDF91CF911F910F91FF90EF9016
:10251000DF90CF90BF900895BF92CF92DF92EF925D
:10252000FF920F931F93CF93DF93182F092F7B01F7
:102530006A01BBDBB82E8823B1F5812F902F9C0157
:10254000E901C114D10439F0F60180819181E81AC2
:10255000F90AC80FD91F00E010E022C08091E800FE
:1025600085FD16C08091E8008E778093E800C11445
:10257000D10449F0F60180819181800F911F9183F0
:10258000808385E011C01AD090DB882349F00CC00D
:1025900089918093F1000894E108F1080F5F1F4FC3
:1025A000E114F104D9F68B2DDF91CF911F910F919A
:1025B000FF90EF90DF90CF90BF9008951F93809190
:1025C0000014882361F01091E9001092E9008091D5
:1025D000E80083FF01C0C6DC17701093E9001F916B
:1025E0000895FC0180910014843099F4EA56FF4F5D
:1025F0008081E659F040823061F485818093E90062
:102600008091E80090E096958795969587958170E2
:10261000089580E00895CF92DF92FF920F931F9369
:10262000DF93CF93CDB7DEB7AC970FB6F894DEBF8C
:102630000FBECDBFFC016B018A0180910014843074
:1026400009F049C0EA56FF4F8081E659F0408230D8
:1026500009F041C081818093E90027DBF82E8823AF
:10266000E1F5FE0131968CE2DF011D928A95E9F7D2
:1026700081E090E0A0E0B0E089839A83AB83BC83E3
:10268000045D1F4FC801A0E0B0E00C5210408D83E4
:102690009E83AF83B88784E290E0A0E0B0E08987B2
:1026A0009A87AB87BC87C801A0E0B0E08D879E8782
:1026B000AF87B88BCF016CE270E040E050E02CDFD8
:1026C000C601B80140E050E027DF8091E8008E7736
:1026D0008093E80002C032E0F32E8F2DAC960FB647
:1026E000F894DEBF0FBECDBFCF91DF911F910F9148
:1026F000FF90DF90CF9008950F931F93DF93CF93B8
:10270000CDB7DEB728970FB6F894DEBF0FBECDBFAA
:102710008C0180910014843049F5F8018185809303
:10272000E9008091E80080FF21C00B561F4FF8019F
:102730008081055910408823C9F0DE011196EFEE23
:10274000F1E088E001900D928150E1F7CE01019611
:1027500068E070E040E050E0DFDE8091E8008E77D6
:102760008093E8000B561F4FF801108228960FB691
:10277000F894DEBF0FBECDBFCF91DF911F910F91B7
:102780000895EF92FF920F931F93DF93CF93CDB7EE
:10279000DEB7AC970FB6F894DEBF0FBECDBFFC011D
:1027A0007B018A01809100148430D9F5EA56FF4FED
:1027B0008081E659F0408230A1F585818093E9005F
:1027C000FA01118210828091E80082FF28C0CE01B8
:1027D00001966CE270E040E050E04CDE8D859E8515
:1027E000AF85B8898D3DF5E09F07F0E0AF07F0E0D9
:1027F000BF0738F08091EB0080628093EB0080E8A7
:1028000011C0F801918380836D857E85C70140E00A
:1028100050E030DE8091E8008B778093E80080E024
:1028200001C082E0AC960FB6F894DEBF0FBECDBFFC
:10283000CF91DF911F910F91FF90EF9008951F931B
:10284000CF93DF93EC014596FC0186E8DF011D92F2
:102850008A95E9F711E08981181729F4EA81FB814B
:102860008C8162E010C08D81181731F4EE81FF81F8
:10287000888562E030E008C08985181709F5EA8587
:10288000FB858C8563E031E0882311F440E001C0D2
:1028900044E020E088E090E003C02F5F880F991F9C
:1028A0008E179F07D0F36295660F660F607C632BCF
:1028B00042602295207F422B812FA1D9882321F0CD
:1028C0001F5F173041F681E0DF91CF911F9108958E
:1028D000EF92FF920F931F93CF93DF93EC018091C0
:1028E000E80083FFB9C2888190E0209105143091FF
:1028F00006142817390709F0AFC280910214882303
:1029000021F0813009F0A8C257C2809101148132B0
:1029100009F0A2C28091E800877F8093E8008E01D1
:102920000B5E1F4F6091071470910814C80100DD01
:102930008091E8008E778093E8008D899E89AF8929
:10294000B88D84309105A105B10509F477C08530B3
:102950009105A105B10558F482309105A105B10595
:10296000C1F00397A105B10509F076C25DC08630BC
:102970009105A105B10509F4E7C186309105A105CE
:10298000B10508F496C10897A105B10509F064C224
:10299000F7C1CB56DF4F21E02883C559D04082E0F4
:1029A00090E0A0E0B0E88D8B9E8BAF8BB88F84E376
:1029B00090E0A0E0B0E0F80184839583A683B7831C
:1029C000148615861686178681E090E0A0E0B0E0B8
:1029D000808B918BA28BB38B148A158A168A178AE7
:1029E000808F918FA28FB38F148E158E168E178EB7
:1029F00080A391A3A2A3B3A388E096E0A0E0B0E0F7
:102A000084A395A3A6A3B7A310A611A612A613A6E6
:102A100014A615A616A617A610AA11AA12AA13AADA
:102A2000CA56DF4F288318C2CB56DF4F1992F801E0
:102A3000148215821682178218820EC2CB56DF4F7F
:102A400081E08883C559D040F801248535854685C5
:102A500057856DE2E62EF12CEC0EFD1E84E090E031
:102A6000A0E0B0E88D8B9E8BAF8BB88F88E190E0B3
:102A7000A0E0B0E084839583A683B7832E30F1E095
:102A80003F07F1E04F07F0E05F0709F4E7C02F30A0
:102A900061E0360761E0460760E0560708F058C07D
:102AA000263081E0380781E0480780E0580709F4C4
:102AB000AEC02730E1E03E07E1E04E07E0E05E0710
:102AC000F8F42230F1E03F07F1E04F07F0E05F0754
:102AD00009F4CDC0233061E0360761E0460760E0CD
:102AE000560738F4215031404140504009F0CFC0E2
:102AF00080C0255031404140504008F0C8C0B7C0A8
:102B00002C30F1E03F07F1E04F07F0E05F0780F481
:102B10002A3061E0360761E0460760E0560708F0BA
:102B200076C0275031404140504009F0B0C081C0CC
:102B30002C30E1E03E07E1E04E07E0E05E0709F4FB
:102B400061C02D5031404140504009F0A0C064C0E8
:102B5000263061E0360762E0460760E0560710F570
:102B6000213081E0380782E0480780E0580708F00C
:102B70007EC02431E1E03E07E1E04E07E0E05E0781
:102B800009F475C02230F2E03F07F1E04F07F0E0B2
:102B90005F0709F46CC0215131404140504009F0B9
:102BA00076C06AC0243081E0380781E0480781E0C0
:102BB000580709F44EC02530E1E03E07E1E04E073A
:102BC000E1E05E0758F4215031404140514022304D
:102BD00031054105510508F05AC030C0215031403F
:102BE00042405140233031054105510508F04FC0A6
:102BF0003EC0C70166EB73E04CE650E052D1CCE634
:102C0000D0E00AC18FEF9FEFAFEFB0E039C08CED9D
:102C100095E0A0E0B0E034C06D857E85FB01EF015A
:102C200009900020E9F7CE1BDF0BC701AE016ED182
:102C3000F3C080EA96E8A1E0B0E022C0D701FE012F
:102C40003F9686E001900D928150E1F7C6E0D0E01A
:102C5000E3C081E090E0A0E0B0E012C0C956DF4FD1
:102C600088819981AA81BB81C759D04009C01DA61E
:102C70001EA61FA618AA08C08CE596E0A0E0B0E04A
:102C80008DA79EA7AFA7B8ABC4E0D0E0C5C08BEBC3
:102C900090E0A0E0B0ECF80184879587A687B7871D
:102CA000108A118A128A138A148A158A168A178A38
:102CB000D3C0CB56DF4F81E08883C559D040F8019F
:102CC000248535854685578585E090E0A0E0B0E80D
:102CD0008D8B9E8BAF8BB88F80E190E0A0E0B0E051
:102CE00084839583A683B78384899589A689B789C8
:102CF0002E30F1E03F07F1E04F07F0E05F0751F0C1
:102D00002350314041405140A9F08BEB90E0A0E0CE
:102D1000B0EC14C0FE01E80FF91F858D968DA78DCC
:102D2000B0A1C956DF4F88839983AA83BB83FE0174
:102D300082E0829380E090E0A0E0B0E0F801848738
:102D40009587A687B78788C0CB56DF4F81E08883F9
:102D5000C559D04086E090E0A0E0B0E88D8B9E8B16
:102D6000AF8BB88F80E190E0A0E0B0E0F801848301
:102D70009583A683B783108611861286138617C0A3
:102D8000CB56DF4F81E08883C559D04088E090E082
:102D9000A0E0B0E88D8B9E8BAF8BB88F80E190E088
:102DA000A0E0B0E0F80184839583A683B7831486FE
:102DB00015861686178650C080910114813A09F055
:102DC0004BC08E010B5E1F4FF80184819581A68157
:102DD000B7810097A105B10549F41D8A81E090E013
:102DE000A0E0B0E084839583A683B7838091E80058
:102DF000877F8093E800F80164817581CE01459654
:102E000039DA8091E8008B778093E800F80114822A
:102E100015821682178220C0F80114861586168640
:102E20001786CE01A0E0B0E024813581468157812C
:102E3000280F391F4A1F5B1F24833583468357831E
:102E4000808B918BA28BB38B80E190E0A0E0B0E00F
:102E5000848B958BA68BB78BDF91CF911F910F91B0
:102E6000FF90EF900895982F8091C80085FFFCCFC8
:102E70009093CE0080E090E008958091C80087FD97
:102E800003C02EEF3FEF0BC08091C80087FD03C049
:102E90002FEF3FEF04C08091CE00282F30E0C90112
:102EA0000895FB01DC0102C005900D924150504095
:102EB000D8F70895FB01DC0105900D920020E1F7A1
:102EC0000895FC0105900020E9F7809590958E0FFC
:102ED0009F1F0895FB01DC014150504048F00590D0
:102EE0000D920020C9F701C01D9241505040E0F7FB
:102EF0000895FB01DC0104C08D910190801921F43B
:102F000041505040C8F7881B990B0895FB01DC0124
:102F100002C001900D9241505040D8F708956817B3
:102F2000790768F4FB01DC01E40FF51FA40FB51F5E
:102F300002C002900E9241505040D8F70895E6CF5B
:102F4000FB01DC014150504030F08D91019080191F
:102F500019F40020B9F7881B990B0895F894FFCF56
:102F60004C55464120524E4449532044656D6F20D4
:102F7000416461707465720000014000000240000D
:102F8000000308000000010200020002000000002F
:102F90000000000000000000000000000000000031
:102FA0000000000000000000000000000000000021
:102FB0000000000000000000000000000000000011
:102FC0000000000000000000000000000000000001
:102FD00000000000000000000000000000000000F1
:102FE00000000000000000000000000000000000E1
:102FF00000000000000000000000000000000000D1
:1030000000000000000000000000000000000000C0
:103010000000000001000100010A000002FFFFFFA4
:10302000FFFFFFFFFFFFFF0A000001020002000296
:103030000047455400474554202F2000484541444F
:103040000048454144202F2000545241434500A1EF
:08305000010000000000000077
:00000001FF
