:10000000ABC00000C6C00000C4C00000C2C00000F9
:10001000C0C00000BEC00000BCC00000BAC00000EC
:10002000B8C00000B6C00000C4C30000B2C00000E9
:10003000B0C00000AEC00000ACC00000AAC000000C
:10004000A8C00000A6C00000A4C00000A2C000001C
:10005000A0C000009EC000009CC000009AC000002C
:1000600098C0000096C0000094C0000092C000003C
:1000700090C000008EC000008CC000008AC000004C
:1000800088C0000086C0000084C0000082C000005C
:1000900080C000007EC0000005010906A10105071F
:1000A00019E029E7150025017501950881029501E0
:1000B0007508810105081901290595057501910249
:1000C000950175039101150025650507190029653E
:1000D000950675088100C01201100100000008EBB0
:1000E0000342200100010200010902290001010070
:1000F000C0320904000002030101000921110100BE
:1001000001223F00070581030800010705020308DB
:1001100000010403090418034400650061006E0037
:100120002000430061006D00650072006100000066
:1001300026034C0055004600410020004B0065009E
:10014000790062006F0061007200640020004400CA
:1001500065006D006F00000011241FBECFEFD0E2DC
:10016000DEBFCDBF11E0A0E0B1E0E6EBFEE000E0D5
:100170000BBF02C007900D92A430B107D9F711E070
:10018000A4E0B1E001C01D92AB31B107E1F7E1D1CC
:1001900090C636CF8BB18F70806A8BB981E0809327
:1001A000020108958BB18F7080618BB908958091A1
:1001B000040190910501009729F0019790930501A2
:1001C00080930401089580FD02C020E201C020E375
:1001D00081FD206882FD20648BB18F70282B2BB9A4
:1001E000089582E08093E9008091E80082FF0CC0CE
:1001F0008091E80085FF03C08091F100E4DF8091E9
:10020000E8008B778093E8000895DC0123B18CB17E
:10021000809590E080739070959587952095207ECD
:10022000282B3CB188E0FD0111928A95E9F782E024
:100230008C9327FF02C084E005C024FD02C090E03B
:1002400005C085E012968C93129791E026FF05C0B9
:10025000FD01E90FF11D86E006C023FF06C0FD0188
:10026000E90FF11D87E082839F5F25FF06C0FD0136
:10027000E90FF11D88E082839F5F32FD05C0A90F61
:10028000B11D89E012968C9308950F931F93DF930D
:10029000CF93CDB7DEB728970FB6F894DEBF0FBE69
:1002A000CDBF8E010F5F1F4FC801AFDF86E091E029
:1002B000B80148E050E0F0D540E0009709F041E097
:1002C00020910001309101012115310559F08091F3
:1002D000040190910501892B29F4309305012093A5
:1002E000040141E081E08093E9008091E80085FF0E
:1002F00017C04423A9F0A6E0B1E0FE01319688E0E2
:1003000001900D928150E1F7CE01019668E070E016
:1003100040E050E05CD58091E8008E778093E80063
:1003200028960FB6F894DEBF0FBECDBFCF91DF91F8
:100330001F910F91089580911201843011F4A5DF6F
:1003400050CF08950F931F93DF93CF93CDB7DEB7B0
:1003500028970FB6F894DEBF0FBECDBF8091140171
:10036000833009F44AC0843030F4813071F0823037
:1003700009F099C07FC08A3009F463C08B3009F45A
:1003800049C0893009F08FC019C080911301813AAA
:1003900009F089C08E010F5F1F4FC80136DF8091C1
:1003A000E800877F8093E800C80168E070E050D4DF
:1003B0008091E8008B778093E80075C080911301ED
:1003C000813209F070C08091E800877F8093E80057
:1003D00005C080911201882309F465C08091E8006E
:1003E00082FFF7CF1091F1008091E8008B77809326
:1003F000E8002DD1812FE7DE56C080911301813AAC
:1004000009F051C08091E800877F8093E8008091D7
:10041000020141C080911301813209F044C08091F2
:10042000E800877F8093E80012D11092020180914A
:10043000150190911601892BB1F181E080930201A1
:1004400032C080911301813271F58091E800877F7D
:100450008093E800FCD08091150190911601807086
:1004600056E0969587955A95E1F790930101809310
:10047000000119C080911301813AA9F48091E8002C
:10048000877F8093E800809100019091010196950B
:100490008795969587958093F1008091E8008E77F7
:1004A0008093E800D4D028960FB6F894DEBF0FBE34
:1004B000CDBFCF91DF911F910F9108950F931F939F
:1004C00081E061EC42E08ED0082F82E060EC42E0F7
:1004D00089D09091E20094609093E20010E090E067
:1004E0000823192300FF02C090E601C090E98BB1F8
:1004F0008F70982B9BB91F910F91089584B7877FB8
:1005000084BF88E10FB6F894809360001092600079
:100510000FBE80E090E020E80FB6F89420936100D1
:10052000809361000FBE84B18F7184B98DB18F7CCF
:100530008DB985B1806E85B98EB180638EB98AB16F
:10054000806F8AB98BB18F708BB91DD16A98729AFE
:100550000895D4DF8BB18F7080618BB97894EBDE16
:1005600088D4FDCFDA019330B1F0943028F4913083
:1005700041F0923079F50AC0913211F1923251F581
:1005800024C0E7EDF0E022E130E028C0E9EEF0E041
:1005900029E230E023C0813049F0813018F0823008
:1005A000C9F40AC0E2E1F1E0849103C0E6E1F1E0C0
:1005B0008491282F30E012C0E0E3F1E08491F9CF7C
:1005C000EBEFF0E029E030E009C0E8E9F0E02FE3EC
:1005D00030E004C0E0E0F0E020E030E0ED93FC9398
:1005E000C9010895382F282F2CC02093E900231724
:1005F00021F4762F942F50E006C07091EC0090917A
:10060000ED005091F00091FF1BC08091EB008E7FB8
:100610008093EB008091ED0082708093ED008091DB
:10062000EB0081608093EB007093EC009093ED0001
:100630005093F0008091EE0087FD02C080E00895A5
:100640002F5F273090F23093E90081E00895809188
:10065000130188239CF404C0809112018823B9F00F
:100660008091E80082FFF8CF8091E8008B7780933B
:10067000E800089580911201882349F08091E800F4
:1006800080FFF8CF8091E8008E778093E80008958E
:100690004091E4005091E50024E68091EC0080FF59
:1006A00005C08091E80080FF05C022C08091E8006D
:1006B00082FD1EC080911201882311F482E008950A
:1006C000853011F483E008958091EB0085FF02C02E
:1006D00081E008958091E4009091E50084179507EA
:1006E000E1F2222311F484E008952150AC01D5CF2A
:1006F00080E00895EF92FF920F931F934DD054D056
:1007000008ED10E0F8018081982F9F779083806832
:10071000808380818F7D8083E7EDF0E08081806839
:10072000808319BC109212011092100110920F01D7
:1007300010920E0180EEE82EF12CF70180818B7F64
:100740008083F80180818160808380E060E042E006
:1007500049DFE1EEF0E080818E7F8083E2EEF0E021
:10076000808181608083808188608083F7018081BF
:100770008E7F8083F8018081806180831F910F913B
:10078000FF90EF900895E7EDF0E080818160808335
:1007900081E080931101AECFE8EDF0E080818C7FA5
:1007A00080831092E20008951092DA001092E10026
:1007B00008951F920F920FB60F920BB60F9211244D
:1007C0002F933F934F935F936F937F938F939F9359
:1007D000AF93BF93EF93FF938091E10082FF0AC034
:1007E0008091E20082FF06C08091E1008B7F8093C0
:1007F000E100DDDC8091DA0080FF1EC08091D8002E
:1008000080FF1AC08091DA008E7F8093DA00809199
:10081000D90080FF0DC08CE089BD89B5826089BD9B
:1008200009B400FEFDCF81E080931201B3DC04C067
:1008300019BC10921201B6DC8091E10080FF18C053
:100840008091E20080FF14C08091E2008E7F80934F
:10085000E2008091E20080618093E2008091D80004
:1008600080628093D80019BC85E080931201EFD19B
:100870008091E10084FF2EC08091E20084FF2AC0B5
:100880008CE089BD89B5826089BD09B400FEFDCFC9
:100890008091D8008F7D8093D8008091E1008F7E79
:1008A0008093E1008091E2008F7E8093E20080914E
:1008B000E20081608093E20080911001882331F48E
:1008C0008091E30087FD02C081E001C084E0809355
:1008D0001201BDD18091E10083FF22C08091E2002E
:1008E00083FF1EC08091E100877F8093E10082E05A
:1008F00080931201109210018091E1008E7F80930D
:10090000E1008091E2008E7F8093E2008091E2001E
:1009100080618093E20080E060E042E063DE97D196
:10092000FF91EF91BF91AF919F918F917F916F91C7
:100930005F914F913F912F910F900BBE0F900FBE83
:100940000F901F9018950F931F93DF93CF93CDB700
:10095000DEB7AC970FB6F894DEBF0FBECDBF809167
:10096000F100809313018091F10080931401809134
:10097000F1009091F100E5E1F1E080931501909391
:1009800016018091F1009091F100809317019383FB
:100990008091F1009091F100809319019583D2DC50
:1009A0008091E80083FF3AC18091130130911401D6
:1009B000353009F487C0363040F43130C9F1313078
:1009C00070F0333009F02AC133C0383009F4F8C070
:1009D000393009F407C1363009F020C199C0803898
:1009E00021F0823809F01AC108C090910E0180915F
:1009F0000F01882399F0926011C0809117018770D0
:100A00008093E9008091EB0090E025E09695879532
:100A10002A95E1F7982F91701092E9008091E800F3
:100A2000877F8093E8009093F1001092F100D3C08B
:100A3000882319F0823009F0F1C090E08F71907036
:100A4000009721F0029709F0E9C00CC080911501D0
:100A5000813009F0E3C010920F01333069F58093C3
:100A60000F012AC080911501882331F520911701CB
:100A7000277009F4D3C02093E9008091EB0080FF38
:100A80001BC0333021F48091EB00806213C0809151
:100A9000EB0080618093EB0081E090E002C0880F62
:100AA000991F2A95E2F78093EA001092EA0080915C
:100AB000EB0088608093EB001092E9008091E800E1
:100AC000877F8CC0882309F0A9C0109115011F777A
:100AD0000FB7F8948091E800877F8093E800B7DD36
:100AE0008091E80080FFFCCF8091E3008078812B2B
:100AF0008093E3008091E30080688093E3001123FA
:100B000011F482E001C083E0809312010FBF86C020
:100B10008058823008F082C08091150190911601B2
:100B200023E08C3D920709F033C083E08C838AE296
:100B30008B837FB7F894DE0115966EE040E050E0BD
:100B400011E2E62FF0E010935700849140FF03C0BC
:100B500082958F706F5F8F70282F30E08A3018F089
:100B6000C901C79602C0C901C0968D939D934F5F7E
:100B70005F4F4431510529F77FBF8091E800877F9F
:100B80008093E800CE0103966AE270E061D012C063
:100B900060911701AE014F5F5F4FE4DCBC0100972D
:100BA00009F43CC08091E800877F8093E800898148
:100BB0009A81ACD08091E8008B778093E8002EC0BA
:100BC000803861F58091E800877F8093E80080910C
:100BD00010018093F1008091E8008E778093E80007
:100BE00036DD1CC08823D1F4909115019230B0F409
:100BF0008091E800877F8093E8009093100127DDC3
:100C000080911001882331F48091E30087FD02C0B8
:100C100081E001C084E08093120150DC8091E80003
:100C200083FF0AC08091EB0080628093EB0080918B
:100C3000E800877F8093E800AC960FB6F894DEBF9B
:100C40000FBECDBFCF91DF911F910F9108950895F1
:100C50009C014091190150911A014617570718F449
:100C6000F90190E03DC06115710511F0AB01F8CFBD
:100C70008091E8008E778093E80040E050E0F0CF6C
:100C8000809112018823F1F18530F1F18091E80023
:100C900083FF02C081E008958091E80082FD2CC0AE
:100CA0008091E80080FF1CC02091F2003091F30099
:100CB00007C081918093F100415050402F5F3F4F1A
:100CC0004115510519F02830310598F390E028308E
:100CD000310509F491E08091E8008E778093E80077
:100CE0004115510569F6992359F606C08091120104
:100CF000882341F0853041F08091E80082FFF6CFF3
:100D000080E0089582E0089583E008959C01409179
:100D1000190150911A014617570718F4F90190E08C
:100D200040C06115710511F0AB01F8CF8091E8006A
:100D30008E778093E80040E050E0F0CF8091120180
:100D4000882309F440C0853009F43FC08091E80051
:100D500083FF02C081E008958091E80082FD2DC0EC
:100D60008091E80080FF1DC02091F2003091F300D7
:100D700008C084918093F1003196415050402F5F1C
:100D80003F4F4115510519F02830310590F390E09F
:100D90002830310509F491E08091E8008E77809346
:100DA000E8004115510551F6992341F606C080919E
:100DB0001201882341F0853041F08091E80082FFE4
:100DC000F6CF80E0089582E0089583E00895BF9211
:100DD000CF92DF92EF92FF920F931F93CF93DF9307
:100DE000182F092F7B016A0153DCB82E8823B1F537
:100DF000812F902F9C01E901C114D10439F0F60133
:100E000080819181E81AF90AC80FD91F00E010E02B
:100E100022C08091E80085FD16C08091E8008E77A1
:100E20008093E800C114D10449F0F60180819181DA
:100E3000800F911F9183808385E011C01AD028DC38
:100E4000882349F00CC089918093F1000894E1084F
:100E5000F1080F5F1F4FE114F104D9F68B2DDF91DC
:100E6000CF911F910F91FF90EF90DF90CF90BF90A7
:100E700008951F9380911201882361F01091E90079
:100E80001092E9008091E80083FF01C05CDD1770DB
:100E90001093E9001F910895FB01DC0104C08D91BE
:100EA0000190801921F441505040C8F7881B990BDC
:060EB0000895F894FFCF45
:040EB600F401010042
:00000001FF
