:10000000B9C00000D4C00000D2C00000D0C00000C1
:10001000CEC00000CCC00000CAC00000C8C00000B4
:10002000C6C00000C4C0000075C20000C0C000000F
:10003000BEC00000BCC00000BAC00000B8C00000D4
:10004000B6C00000B4C00000B2C00000B0C00000E4
:10005000AEC00000ACC00000AAC00000A8C00000F4
:10006000A6C00000A4C00000A2C00000A0C0000004
:100070009EC000009CC000009AC0000098C0000014
:1000800096C0000094C0000092C0000090C0000024
:100090008EC000008CC0000012011001EF020108A8
:1000A000EB034E2001000102DC0109028300040180
:1000B00000C032080B000202020100090400000126
:1000C0000202010005240010010424020605240692
:1000D0000001070583030800FF09040100020A006C
:1000E000000007050202100001070581021000014F
:1000F000080B0202020201000904020001020201CF
:10010000000524001001042402060524060203074A
:100110000586030800FF09040300020A0000000727
:1001200005050210000107058402100001040309FF
:100130000418034400650061006E00200043006164
:10014000006D0065007200610000001C034C00554A
:10015000004600410020004400750061006C002052
:10016000004300440043002000440065006D006F20
:100170000000000011241FBECFEFD0E2DEBFCDBFD4
:1001800011E0A0E0B1E0E2E5FFE000E00BBF02C05B
:1001900007900D92AE37B107D9F711E0AEE7B1E0A5
:1001A00001C01D92AC38B107E1F784D0D0C628CF8A
:1001B0008BB18F70806A8BB908958BB18F7080611D
:1001C0008BB9089582E591E055D688E691E052C654
:1001D0000F931F9382E591E004D6082F88E691E003
:1001E00000D610E090E00823192300FF02C090E63B
:1001F00001C090E98BB18F70982B9BB91F910F9123
:10020000089523B18CB1809590E08073907095959E
:1002100087952095207E282B27FD17C024FF03C03B
:1002200060E071E014C026FF03C060E171E00FC020
:1002300023FF03C060E271E00AC025FF03C061E351
:1002400071E005C010927E01089564E471E0809130
:100250007E01882331F481E080937E0182E591E084
:10026000A2C5089584B7877F84BF88E10FB6F8944C
:1002700080936000109260000FBE80E090E020E864
:100280000FB6F89420936100809361000FBE84B193
:100290008F7184B98DB18F7C8DB985B1806E85B930
:1002A0008EB180638EB98AB1806F8AB98BB18F703D
:1002B0008BB91AC1D7DF8BB18F7080618BB97894FD
:1002C000A0DF82E591E0DAD488E691E0D7D4BC01E2
:1002D00097FD03C088E691E041D582E591E02ED5F7
:1002E00088E691E02BD5B7D4EBCFDA01923049F014
:1002F000933061F09130F9F4E8E9F0E022E130E088
:100300001EC0EAEAF0E023E830E019C0813049F08D
:10031000813018F0823079F408C0EDE2F1E0849188
:1003200007C0E1E3F1E0849103C0EBE4F1E08491E4
:10033000282F30E004C0E0E0F0E020E030E0ED9372
:10034000FC93C9010895382F282F2CC02093E90071
:10035000231721F4762F942F50E006C07091EC0003
:100360009091ED005091F00091FF1BC08091EB0047
:100370008E7F8093EB008091ED0082708093ED0082
:100380008091EB0081608093EB007093EC00909380
:10039000ED005093F0008091EE0087FD02C080E0F8
:1003A00008952F5F273090F23093E90081E008959F
:1003B0008091840188239CF404C080918301882368
:1003C000B9F08091E80082FFF8CF8091E8008B7748
:1003D0008093E800089580918301882349F08091FB
:1003E000E80080FFF8CF8091E8008E778093E800E6
:1003F00008954091E4005091E50024E68091EC00DE
:1004000080FF05C08091E80080FF05C022C0809178
:10041000E80082FD1EC080918301882311F482E0F0
:100420000895853011F483E008958091EB0085FFF5
:1004300002C081E008958091E4009091E500841766
:100440009507E1F2222311F484E008952150AC01D4
:10045000D5CF80E00895EF92FF920F931F934DD078
:1004600054D008ED10E0F8018081982F9F77908399
:100470008068808380818F7D8083E7EDF0E08081DC
:100480008068808319BC10928301109281011092C0
:10049000800110927F0180EEE82EF12CF70180811F
:1004A0008B7F8083F80180818160808380E060E0C1
:1004B00042E049DFE1EEF0E080818E7F8083E2EE72
:1004C000F0E0808181608083808188608083F70193
:1004D00080818E7F8083F8018081806180831F917D
:1004E0000F91FF90EF900895E7EDF0E0808181603B
:1004F000808381E080938201AECFE8EDF0E08081DF
:100500008C7F80831092E20008951092DA0010929E
:10051000E10008951F920F920FB60F920BB60F9243
:1005200011242F933F934F935F936F937F938F93F8
:100530009F93AF93BF93EF93FF938091E10082FF6E
:100540000AC08091E20082FF06C08091E1008B7FAB
:100550008093E1002DD28091DA0080FF1EC080914F
:10056000D80080FF1AC08091DA008E7F8093DA0075
:100570008091D90080FF0DC08CE089BD89B5826073
:1005800089BD09B400FEFDCF81E08093830110DEB8
:1005900004C019BC1092830110DE8091E10080FF3D
:1005A00018C08091E20080FF14C08091E2008E7F2D
:1005B0008093E2008091E20080618093E20080916C
:1005C000D80080628093D80019BC85E080938301B5
:1005D000EFD18091E10084FF2EC08091E20084FF82
:1005E0002AC08CE089BD89B5826089BD09B400FE4E
:1005F000FDCF8091D8008F7D8093D8008091E1005D
:100600008F7E8093E1008091E2008F7E8093E200F4
:100610008091E20081608093E200809181018823D3
:1006200031F48091E30087FD02C081E001C084E0E5
:1006300080938301BDD18091E10083FF22C080912E
:10064000E20083FF1EC08091E100877F8093E1007C
:1006500082E080938301109281018091E1008E7F7E
:100660008093E1008091E2008E7F8093E200809190
:10067000E20080618093E20080E060E042E063DEBF
:1006800097D1FF91EF91BF91AF919F918F917F9102
:100690006F915F914F913F912F910F900BBE0F90F3
:1006A0000FBE0F901F9018950F931F93DF93CF935A
:1006B000CDB7DEB7AC970FB6F894DEBF0FBECDBF97
:1006C0008091F100809384018091F10080938501F5
:1006D0008091F1009091F100E6E8F1E080938601CD
:1006E000909387018091F1009091F10080938801AF
:1006F00093838091F1009091F10080938A0195831A
:1007000061DD8091E80083FF3AC1809184013091DE
:100710008501353009F487C0363040F43130C9F1F5
:10072000313070F0333009F02AC133C0383009F469
:10073000F8C0393009F407C1363009F020C199C03A
:10074000803821F0823809F01AC108C090917F01E9
:1007500080918001882399F0926011C08091880176
:1007600087708093E9008091EB0090E025E09695FA
:1007700087952A95E1F7982F91701092E900809162
:10078000E800877F8093E8009093F1001092F100D9
:10079000D3C0882319F0823009F0F1C090E08F7146
:1007A0009070009721F0029709F0E9C00CC0809189
:1007B0008601813009F0E3C010928001333069F581
:1007C000809380012AC080918601882331F5209191
:1007D0008801277009F4D3C02093E9008091EB00D1
:1007E00080FF1BC0333021F48091EB00806213C086
:1007F0008091EB0080618093EB0081E090E002C08B
:10080000880F991F2A95E2F78093EA001092EA0078
:100810008091EB0088608093EB001092E90080915A
:10082000E800877F8CC0882309F0A9C01091860159
:100830001F770FB7F8948091E800877F8093E800D6
:10084000B7DD8091E80080FFFCCF8091E3008078E5
:10085000812B8093E3008091E30080688093E30024
:10086000112311F482E001C083E0809383010FBF64
:1008700086C08058823008F082C0809186019091B5
:10088000870123E08C3D920709F033C083E08C831D
:100890008AE28B837FB7F894DE0115966EE040E024
:1008A00050E011E2E62FF0E010935700849140FFF2
:1008B00003C082958F706F5F8F70282F30E08A3071
:1008C00018F0C901C79602C0C901C0968D939D93C7
:1008D0004F5F5F4F4431510529F77FBF8091E8009A
:1008E000877F8093E800CE0103966AE270E061D0D2
:1008F00012C060918801AE014F5F5F4FF6DCBC0112
:10090000009709F43CC08091E800877F8093E8005D
:1009100089819A81EDD08091E8008B778093E800FF
:100920002EC0803861F58091E800877F8093E800D1
:10093000809181018093F1008091E8008E7780930F
:10094000E80036DD1CC08823D1F4909186019230F6
:10095000B0F48091E800877F8093E8009093810154
:1009600027DD80918101882331F48091E30087FDA8
:1009700002C081E001C084E08093830129DC809182
:10098000E80083FF0AC08091EB0080628093EB0057
:100990008091E800877F8093E800AC960FB6F894CA
:1009A000DEBF0FBECDBFCF91DF911F910F91089594
:1009B00008959C0140918A0150918B014617570779
:1009C00018F4F90190E03DC06115710511F0AB011B
:1009D000F8CF8091E8008E778093E80040E050E007
:1009E000F0CF809183018823F1F18530F1F180917E
:1009F000E80083FF02C081E008958091E80082FD55
:100A00002CC08091E80080FF1CC02091F200309142
:100A1000F30007C081918093F100415050402F5F57
:100A20003F4F4115510519F02830310598F390E0FA
:100A30002830310509F491E08091E8008E778093A9
:100A4000E8004115510569F6992359F606C08091D1
:100A50008301882341F0853041F08091E80082FFD6
:100A6000F6CF80E0089582E0089583E008959C0128
:100A70006115710529F48091E8008B778093E80077
:100A8000F90122C080918301882371F1853071F1D1
:100A90008091E80083FF02C081E008958091E80022
:100AA00082FFF0CF06C08091F100819361507040C9
:100AB00031F08091F2009091F300892BA1F78091A1
:100AC000E8008B778093E80061157105D9F606C0C0
:100AD00080918301882341F0853041F08091E800C6
:100AE00080FFF6CF80E0089582E0089583E00895C6
:100AF0009C0140918A0150918B014617570718F4C9
:100B0000F90190E040C06115710511F0AB01F8CF1B
:100B10008091E8008E778093E80040E050E0F0CFCD
:100B200080918301882309F440C0853009F43FC0D7
:100B30008091E80083FF02C081E008958091E80081
:100B400082FD2DC08091E80080FF1DC02091F20041
:100B50003091F30008C084918093F10031964150A8
:100B600050402F5F3F4F4115510519F02830310596
:100B700090F390E02830310509F491E08091E8008D
:100B80008E778093E8004115510551F6992341F67F
:100B900006C080918301882341F0853041F0809127
:100BA000E80082FFF6CF80E0089582E0089583E0B8
:100BB0000895BF92CF92DF92EF92FF920F931F930F
:100BC000CF93DF93182F092F7B016A0112DCB82E17
:100BD0008823B1F5812F902F9C01E901C114D10424
:100BE00039F0F60180819181E81AF90AC80FD91FFE
:100BF00000E010E022C08091E80085FD16C08091E1
:100C0000E8008E778093E800C114D10449F0F60122
:100C100080819181800F911F9183808385E011C035
:100C20001AD0E7DB882349F00CC089918093F1004A
:100C30000894E108F1080F5F1F4FE114F104D9F6A1
:100C40008B2DDF91CF911F910F91FF90EF90DF904F
:100C5000CF90BF9008951F9380918301882361F006
:100C60001091E9001092E9008091E80083FF01C033
:100C70001BDD17701093E9001F910895FC0180910E
:100C80008301843041F587859089A189B2890097D5
:100C9000A105B10501F185818093E9008091E8000B
:100CA00082FF19C08091F2009091F300892B19F412
:100CB0002FEF3FEF04C08091F100282F30E08091AA
:100CC000F2009091F300892B41F48091E8008B773A
:100CD0008093E80002C02FEF3FEFC9010895089507
:100CE000FC0180918301843021F587859089A18959
:100CF000B2890097A105B105E1F081818093E900F7
:100D00008091F2009091F300892BA9F09091E80076
:100D10008091E8008E778093E80095FD0CC069DB38
:100D2000982F882349F48091E8008E778093E8001B
:100D300003C092E001C090E0892F0895FC018091EA
:100D40008301843051F487859089A189B289009705
:100D5000A105B10511F0CF01C3CF08951F93FC0188
:100D6000162F809183018430D9F487859089A189D9
:100D7000B2890097A105B10599F081818093E900BE
:100D80008091E80085FD08C08091E8008E7780930F
:100D9000E8002FDB882329F41093F10080E001C0E4
:100DA00082E01F910895FC01809183018430B9F4A1
:100DB00087859089A189B2890097A105B10579F04D
:100DC00081818093E900DB010D900020E9F7119704
:100DD000A61BB70BCB01BD0140E050E0EACE82E09C
:100DE00008951F93CF93DF93EC010D96FC0189E0EA
:100DF000DF011D928A95E9F711E08981181729F41E
:100E0000EA81FB818C8162E010C08D81181731F47A
:100E1000EE81FF81888562E030E008C0898518177F
:100E200009F5EA85FB858C8563E031E0882311F4C0
:100E300040E001C044E020E088E090E003C02F5F84
:100E4000880F991F8E179F07D0F36295660F660F64
:100E5000607C632B42602295207F422B812F73DAC6
:100E6000882321F01F5F173041F681E0DF91CF9199
:100E70001F910895CF93DF93EC018091E80083FFE9
:100E800063C0888190E02091880130918901281702
:100E9000390709F059C080918501813261F08232B1
:100EA00020F4803209F050C01BC0823279F18332C5
:100EB00009F04AC03BC080918401813A09F044C0E6
:100EC0008091E800877F8093E800CE010F9667E06D
:100ED00070E06FDD8091E8008B778093E80034C08C
:100EE00080918401813281F58091E800877F809331
:100EF000E800CE010F9667E070E0B9DD8091E80070
:100F00008E778093E800CE01EADE1EC080918401D6
:100F10008132D1F48091E800877F8093E80048DA3D
:100F2000809186018D87CE01DADE0EC0809184012A
:100F3000813251F48091E800877F8093E80038DAAD
:100F4000CE0160918601CBDEDF91CF910895F894B8
:020F5000FFCFD1
:100F52004A6F79737469636B20446F776E0D0A0070
:100F62004A6F79737469636B204C6566740D0A006D
:100F72004A6F79737469636B2052696768740D0AEA
:100F8200004A6F79737469636B205072657373657D
:100F9200640D0A004A6F79737469636B2055700D92
:100FA2000A00000110000002100000030800000007
:100FB2000000000000000000020410000005100004
:0E0FC200000608000000000000000000000013
:00000001FF
