:1000000091C00000ACC00000AAC00000A8C0000061
:10001000A6C00000A4C00000A2C00000A0C0000054
:100020009EC000009CC0000038C2000098C00000C4
:1000300096C0000094C0000092C0000090C0000074
:100040008EC000008CC000008AC0000088C0000084
:1000500086C0000084C0000082C0000080C0000094
:100060007EC000007CC000007AC0000078C00000A4
:1000700076C0000074C0000072C0000070C00000B4
:100080006EC000006CC000006AC0000068C00000C4
:1000900066C0000064C000001201100102000008E8
:1000A000EB03442001000102DC0109023E000201D1
:1000B00000C0320904000001020201000524001002
:1000C0000104240206052406000107058203080036
:1000D000FF09040100020A000000070504021000E5
:1000E00001070583021000010403090418034400FA
:1000F000650061006E002000430061006D00650036
:100100007200610000001C034C00550046004100D5
:1001100020004300440043002000440065006D00BF
:100120006F00000011241FBECFEFD0E2DEBFCDBFB5
:1001300011E0A0E0B1E0E8EAFEE000E00BBF02C0A1
:1001400007900D92A836B107D9F711E0A8E6B1E003
:1001500001C01D92A438B107E1F776D0A3C650CFF5
:100160008BB18F70806A8BB908958BB18F7080616D
:100170008BB9089582E591E0FDC582E591E0B1D5A6
:1001800080FD02C090E901C090E68BB18F70982B82
:100190009BB9089523B18CB1809590E080739070E5
:1001A000959587952095207E282B27FD17C024FF45
:1001B00003C020E031E014C026FF03C020E131E09D
:1001C0000FC023FF03C020E231E00AC025FF03C0B7
:1001D00021E331E005C010926801089524E431E084
:1001E00080916801882339F481E080936801C90116
:1001F00069E671E02CC6089584B7877F84BF88E1E3
:100200000FB6F89480936000109260000FBE80E0FB
:1002100090E020E80FB6F89420936100809361008D
:100220000FBE84B18F7184B98DB18F7C8DB985B1CA
:10023000806E85B98EB180638EB98AB1806F8AB9BC
:100240008BB18F708BB913C1D7DF82E591E069E67E
:1002500071E0B6D48BB18F7080618BB978949ADFDE
:1002600082E591E07CD482E591E0F7D465D4F7CFC4
:10027000DA01923049F0933061F09130F9F4E8E915
:10028000F0E022E130E01EC0EAEAF0E02EE330E0E8
:1002900019C0813049F0813018F0823079F408C0FB
:1002A000E8EEF0E0849107C0ECEEF0E0849103C04A
:1002B000E6E0F1E08491282F30E004C0E0E0F0E0D7
:1002C00020E030E0ED93FC93C9010895382F282FEA
:1002D0002CC02093E900231721F4762F942F50E0AF
:1002E00006C07091EC009091ED005091F00091FFEC
:1002F0001BC08091EB008E7F8093EB008091ED001E
:1003000082708093ED008091EB0081608093EB0020
:100310007093EC009093ED005093F0008091EE000C
:1003200087FD02C080E008952F5F273090F2309360
:10033000E90081E0089580917C0188239CF404C049
:1003400080917B018823B9F08091E80082FFF8CF8B
:100350008091E8008B778093E800089580917B017D
:10036000882349F08091E80080FFF8CF8091E80071
:100370008E778093E80008954091E4005091E50065
:1003800024E68091EC0080FF05C08091E80080FFAA
:1003900005C022C08091E80082FD1EC080917B01D3
:1003A000882311F482E00895853011F483E00895E4
:1003B0008091EB0085FF02C081E008958091E40008
:1003C0009091E50084179507E1F2222311F484E06F
:1003D00008952150AC01D5CF80E00895EF92FF92AF
:1003E0000F931F934DD054D008ED10E0F801808199
:1003F000982F9F7790838068808380818F7D808312
:10040000E7EDF0E080818068808319BC10927B0169
:1004100010927901109278011092770180EEE82E07
:10042000F12CF70180818B7F8083F80180818160CE
:10043000808380E060E042E049DFE1EEF0E080812F
:100440008E7F8083E2EEF0E0808181608083808116
:1004500088608083F70180818E7F8083F8018081AE
:10046000806180831F910F91FF90EF900895E7EDD9
:10047000F0E080818160808381E080937A01AECF5B
:10048000E8EDF0E080818C7F80831092E200089597
:100490001092DA001092E10008951F920F920FB6A9
:1004A0000F920BB60F9211242F933F934F935F93AC
:1004B0006F937F938F939F93AF93BF93EF93FF932C
:1004C0008091E10082FF0AC08091E20082FF06C0B5
:1004D0008091E1008B7F8093E1002DD28091DA0042
:1004E00080FF1EC08091D80080FF1AC08091DA0082
:1004F0008E7F8093DA008091D90080FF0DC08CE060
:1005000089BD89B5826089BD09B400FEFDCF81E057
:1005100080937B0125DE04C019BC10927B0125DE8F
:100520008091E10080FF18C08091E20080FF14C03C
:100530008091E2008E7F8093E2008091E2008061F2
:100540008093E2008091D80080628093D80019BC2B
:1005500085E080937B01EFD18091E10084FF2EC084
:100560008091E20084FF2AC08CE089BD89B5826059
:1005700089BD09B400FEFDCF8091D8008F7D8093A6
:10058000D8008091E1008F7E8093E1008091E200AD
:100590008F7E8093E2008091E20081608093E20090
:1005A00080917901882331F48091E30087FD02C0B6
:1005B00081E001C084E080937B01BDD18091E100A6
:1005C00083FF22C08091E20083FF1EC08091E10082
:1005D000877F8093E10082E080937B011092790114
:1005E0008091E1008E7F8093E1008091E2008E7F18
:1005F0008093E2008091E20080618093E20080E0DD
:1006000060E042E063DE97D1FF91EF91BF91AF913F
:100610009F918F917F916F915F914F913F912F911A
:100620000F900BBE0F900FBE0F901F9018950F9359
:100630001F93DF93CF93CDB7DEB7AC970FB6F89487
:10064000DEBF0FBECDBF8091F10080937C01809111
:10065000F10080937D018091F1009091F100EEE72F
:10066000F1E080937E0190937F018091F100909161
:10067000F1008093800193838091F1009091F100CB
:1006800080938201958376DD8091E80083FF3AC1F3
:1006900080917C0130917D01353009F487C036307E
:1006A00040F43130C9F1313070F0333009F02AC1F3
:1006B00033C0383009F4F8C0393009F407C1363096
:1006C00009F020C199C0803821F0823809F01AC1A0
:1006D00008C09091770180917801882399F0926009
:1006E00011C08091800187708093E9008091EB00B8
:1006F00090E025E0969587952A95E1F7982F9170DF
:100700001092E9008091E800877F8093E800909341
:10071000F1001092F100D3C0882319F0823009F063
:10072000F1C090E08F719070009721F0029709F06E
:10073000E9C00CC080917E01813009F0E3C01092C5
:100740007801333069F5809378012AC080917E0169
:10075000882331F520918001277009F4D3C02093BC
:10076000E9008091EB0080FF1BC0333021F48091C1
:10077000EB00806213C08091EB0080618093EB00FE
:1007800081E090E002C0880F991F2A95E2F78093DC
:10079000EA001092EA008091EB0088608093EB0001
:1007A0001092E9008091E800877F8CC0882309F0CF
:1007B000A9C010917E011F770FB7F8948091E800CF
:1007C000877F8093E800B7DD8091E80080FFFCCF51
:1007D0008091E3008078812B8093E3008091E30097
:1007E00080688093E300112311F482E001C083E06C
:1007F00080937B010FBF86C08058823008F082C092
:1008000080917E0190917F0123E08C3D920709F059
:1008100033C083E08C838AE28B837FB7F894DE0158
:1008200015966EE040E050E011E2E62FF0E0109304
:100830005700849140FF03C082958F706F5F8F7067
:10084000282F30E08A3018F0C901C79602C0C901CC
:10085000C0968D939D934F5F5F4F4431510529F7AB
:100860007FBF8091E800877F8093E800CE010396E8
:100870006AE270E061D012C060918001AE014F5F0A
:100880005F4FF6DCBC01009709F43CC08091E800A2
:10089000877F8093E80089819A81EDD08091E8007C
:1008A0008B778093E8002EC0803861F58091E80056
:1008B000877F8093E800809179018093F100809197
:1008C000E8008E778093E80036DD1CC08823D1F4E1
:1008D00090917E019230B0F48091E800877F809300
:1008E000E8009093790127DD80917901882331F424
:1008F0008091E30087FD02C081E001C084E0809325
:100900007B013BDC8091E80083FF0AC08091EB0013
:1009100080628093EB008091E800877F8093E800FD
:10092000AC960FB6F894DEBF0FBECDBFCF91DF916E
:100930001F910F91089508959C014091820150915B
:1009400083014617570718F4F90190E03DC061157F
:10095000710511F0AB01F8CF8091E8008E7780939C
:10096000E80040E050E0F0CF80917B018823F1F176
:100970008530F1F18091E80083FF02C081E00895A5
:100980008091E80082FD2CC08091E80080FF1CC0AF
:100990002091F2003091F30007C081918093F10023
:1009A000415050402F5F3F4F4115510519F02830FD
:1009B000310598F390E02830310509F491E08091F9
:1009C000E8008E778093E8004115510569F6992378
:1009D00059F606C080917B01882341F0853041F0B3
:1009E0008091E80082FFF6CF80E0089582E00895CC
:1009F00083E008959C016115710529F48091E80058
:100A00008B778093E800F90122C080917B018823D5
:100A100071F1853071F18091E80083FF02C081E0BF
:100A200008958091E80082FFF0CF06C08091F10028
:100A300081936150704031F08091F2009091F30009
:100A4000892BA1F78091E8008B778093E8006115EE
:100A50007105D9F606C080917B01882341F085306D
:100A600041F08091E80080FFF6CF80E0089582E0B9
:100A7000089583E008959C01409182015091830183
:100A80004617570718F4F90190E040C06115710549
:100A900011F0AB01F8CF8091E8008E778093E800E9
:100AA00040E050E0F0CF80917B01882309F440C002
:100AB000853009F43FC08091E80083FF02C081E0E7
:100AC00008958091E80082FD2DC08091E80080FFAC
:100AD0001DC02091F2003091F30008C084918093F2
:100AE000F1003196415050402F5F3F4F4115510565
:100AF00019F02830310590F390E02830310509F4E1
:100B000091E08091E8008E778093E80041155105CF
:100B100051F6992341F606C080917B01882341F06C
:100B2000853041F08091E80082FFF6CF80E00895A3
:100B300082E0089583E008951F9380917B018823CC
:100B400061F01091E9001092E9008091E80083FFC4
:100B500001C06DDD17701093E9001F910895FC012D
:100B600080917B01843041F587859089A189B28984
:100B70000097A105B10501F185818093E90080917D
:100B8000E80082FF19C08091F2009091F300892B58
:100B900019F42FEF3FEF04C08091F100282F30E0CF
:100BA0008091F2009091F300892B41F48091E8004C
:100BB0008B778093E80002C02FEF3FEFC9010895C3
:100BC000FB012EE0DB011D922A95E9F723E0238348
:100BD00022E636E03187208723EF35E0338722870E
:100BE000958784870895FC0184859585B8DF9C01ED
:100BF00097FF02C02EEF3FEFC90108950895FC0151
:100C000080917B01843021F587859089A189B28903
:100C10000097A105B105E1F081818093E900809101
:100C2000F2009091F300892BA9F09091E800809157
:100C3000E8008E778093E80095FD0CC09DDB982F2F
:100C4000882349F48091E8008E778093E80003C000
:100C500092E001C090E0892F0895FC0180917B0112
:100C6000843051F487859089A189B2890097A105C4
:100C7000B10511F0CF01C3CF08951F93FC01162FCA
:100C800080917B018430D9F487859089A189B289CC
:100C90000097A105B10599F081818093E9008091C9
:100CA000E80085FD08C08091E8008E778093E80019
:100CB00063DB882329F41093F10080E001C082E017
:100CC0001F910895282FFB0184859585622FD5DF1C
:100CD000882319F420E030E002C02FEF3FEFC90174
:100CE00008951F93CF93DF93EC010D96FC0189E0EB
:100CF000DF011D928A95E9F711E08981181729F41F
:100D0000EA81FB818C8162E010C08D81181731F47B
:100D1000EE81FF81888562E030E008C08985181780
:100D200009F5EA85FB858C8563E031E0882311F4C1
:100D300040E001C044E020E088E090E003C02F5F85
:100D4000880F991F8E179F07D0F36295660F660F65
:100D5000607C632B42602295207F422B812FB6DA84
:100D6000882321F01F5F173041F681E0DF91CF919A
:100D70001F910895CF93DF93EC018091E80083FFEA
:100D800063C0888190E02091800130918101281713
:100D9000390709F059C080917D01813261F08232BA
:100DA00020F4803209F050C01BC0823279F18332C6
:100DB00009F04AC03BC080917C01813A09F044C0EF
:100DC0008091E800877F8093E800CE010F9667E06E
:100DD00070E0B2DD8091E8008B778093E80034C04A
:100DE00080917C01813281F58091E800877F80933A
:100DF000E800CE010F9667E070E0FCDD8091E8002E
:100E00008E778093E800CE01F9DE1EC080917C01D0
:100E10008132D1F48091E800877F8093E8008BDAFB
:100E200080917E018D87CE01E9DE0EC080917C012C
:100E3000813251F48091E800877F8093E8007BDA6B
:100E4000CE0160917E01DADEDF91CF910895EF92BD
:100E5000FF920F931F93CF93DF937C018B01DB01F4
:100E600013968C9181FD03C0CFEFDFEF13C0C0E07C
:100E7000D0E00BC0D8011896ED91FC911997B801FC
:100E80000995892B11F0CFEFDFEFF70181917F01F9
:100E9000882381F7CE01DF91CF911F910F91FF90B1
:080EA000EF900895F894FFCFD4
:100EA8004A6F79737469636B20446F776E0D0A001B
:100EB8004A6F79737469636B204C6566740D0A0018
:100EC8004A6F79737469636B2052696768740D0A95
:100ED800004A6F79737469636B2050726573736528
:100EE800640D0A004A6F79737469636B2055700D3D
:100EF8000A000003100000041000000208000000AF
:080F08000000000000000000E1
:00000001FF
