:10000000A0C00000BBC00000B9C00000B7C0000025
:10001000B5C00000B3C00000B1C00000AFC0000018
:10002000ADC00000ABC0000051C30000A7C000007D
:10003000A5C00000A3C00000A1C000009FC0000038
:100040009DC000009BC0000099C0000097C0000048
:1000500095C0000093C0000091C000008FC0000058
:100060008DC000008BC0000089C0000087C0000068
:1000700085C0000083C0000081C000007FC0000078
:100080007DC000007BC0000079C0000077C0000088
:1000900075C0000073C0000005010902A10109013B
:1000A000A100050919012903150025019503750112
:1000B000810295017505810105010930093115FF9E
:1000C000250135FF4501950275088106C0C0120162
:1000D000100100000008EB034120010001020001B3
:1000E00009022200010100C03209040000010301DD
:1000F00002000921110100012236000705810308D1
:1001000000010403090418034400650061006E0047
:100110002000430061006D00650072006100000076
:1001200020034C0055004600410020004D006F00A8
:100130007500730065002000440065006D006F00CD
:10014000000011241FBECFEFD0E2DEBFCDBF11E013
:10015000A0E0B1E0E0EDFDE000E00BBF02C00790E1
:100160000D92A230B107D9F711E0A2E0B1E001C0D1
:100170001D92A631B107E1F779D128C641CF8BB1E5
:100180008F70806A8BB981E08093000108958BB1F4
:100190008F7080618BB90895809104019091050161
:1001A000009729F001979093050180930401089529
:1001B000FC0123B18CB1809590E08073907095958F
:1001C00087952095207E282B3CB183E0DF011D928E
:1001D0008A95E9F727FF02C08FEF03C024FF02C012
:1001E00081E08283922F26FF02C08FEF03C023FF9E
:1001F00002C081E0818395FF03C08081816080839C
:1002000032FD03C080818260808308950F931F9325
:10021000DF93CF9300D00F92CDB7DEB78E010F5F83
:100220001F4FC801C5DF86E091E0B80143E050E010
:10023000C0D59C018B81882331F48A81882319F4ED
:1002400040E0232B09F041E02091020130910301AD
:100250002115310559F08091040190910501892BF8
:1002600029F4309305012093040141E081E080935B
:10027000E9008091E80085FF17C04423A9F0A6E0BB
:10028000B1E0FE01319683E001900D928150E1F7DB
:10029000CE01019663E070E040E050E025D580910A
:1002A000E8008E778093E8000F900F900F90CF9129
:1002B000DF911F910F91089580910D01843009F411
:1002C000A5CF08950F931F93DF93CF9300D00F9284
:1002D000CDB7DEB780910F01833069F1843030F4FF
:1002E000813059F0823009F07CC062C08A3009F454
:1002F00046C08B3009F075C02BC080910E01813A49
:1003000009F06FC08E010F5F1F4FC80151DF809150
:10031000E800877F8093E800C80163E070E025D49F
:100320008091E8008B778093E80083E0F8011192D8
:100330008A95E9F756C080910E01813A09F051C0C3
:100340008091E800877F8093E8008091000141C0A0
:1003500080910E01813209F044C08091E800877FCE
:100360008093E80001D110920001809110019091DA
:100370001101892BB1F181E08093000132C080919D
:100380000E01813271F58091E800877F8093E8004B
:10039000EBD08091100190911101807056E09695FC
:1003A00087955A95E1F7909303018093020119C054
:1003B00080910E01813AA9F48091E800877F8093B3
:1003C000E80080910201909103019695879596959A
:1003D00087958093F1008091E8008E778093E80004
:1003E000C3D00F900F900F90CF91DF911F910F917D
:1003F000089581E061EC42E082D09091E200946047
:100400009093E20080FD02C090E901C090E68BB1BC
:100410008F70982B9BB9089584B7877F84BF88E13C
:100420000FB6F89480936000109260000FBE80E0D9
:1004300090E020E80FB6F89420936100809361006B
:100440000FBE84B18F7184B98DB18F7C8DB985B1A8
:10045000806E85B98EB180638EB98AB1806F8AB99A
:100460008BB18F708BB96A98729A1AC1D5DF8BB134
:100470008F7080618BB978941FDF88D4FDCFDA014B
:100480009330B1F0943028F4913041F0923079F506
:100490000AC0913211F1923251F524C0EEECF0E035
:1004A00022E130E028C0E0EEF0E022E230E023C0BC
:1004B000813049F0813018F08230C9F40AC0E2E09E
:1004C000F1E0849103C0E6E0F1E08491282F30E070
:1004D00012C0E0E2F1E08491F9CFE2EFF0E029E030
:1004E00030E009C0E8E9F0E026E330E004C0E0E0F5
:1004F000F0E020E030E0ED93FC93C9010895382F3F
:10050000282F2CC02093E900231721F4762F942F55
:1005100050E006C07091EC009091ED005091F00019
:1005200091FF1BC08091EB008E7F8093EB00809148
:10053000ED0082708093ED008091EB0081608093EC
:10054000EB007093EC009093ED005093F0008091DD
:10055000EE0087FD02C080E008952F5F273090F203
:100560003093E90081E0089580910E0188239CF486
:1005700004C080910D018823B9F08091E80082FFCA
:10058000F8CF8091E8008B778093E8000895809100
:100590000D01882349F08091E80080FFF8CF809119
:1005A000E8008E778093E80008954091E400509130
:1005B000E50024E68091EC0080FF05C08091E80012
:1005C00080FF05C022C08091E80082FD1EC080919E
:1005D0000D01882311F482E00895853011F483E041
:1005E00008958091EB0085FF02C081E0089580911D
:1005F000E4009091E50084179507E1F2222311F4BD
:1006000084E008952150AC01D5CF80E00895EF92A9
:10061000FF920F931F934DD054D008ED10E0F801D6
:100620008081982F9F7790838068808380818F7DE1
:100630008083E7EDF0E080818068808319BC1092B0
:100640000D0110920B0110920A011092090180EE27
:10065000E82EF12CF70180818B7F8083F801808167
:100660008160808380E060E042E049DFE1EEF0E01D
:1006700080818E7F8083E2EEF0E0808181608083E4
:10068000808188608083F70180818E7F8083F8017C
:100690008081806180831F910F91FF90EF9008957A
:1006A000E7EDF0E080818160808381E080930C0140
:1006B000AECFE8EDF0E080818C7F80831092E20085
:1006C00008951092DA001092E10008951F920F929F
:1006D0000FB60F920BB60F9211242F933F934F93A7
:1006E0005F936F937F938F939F93AF93BF93EF939A
:1006F000FF938091E10082FF0AC08091E20082FFB7
:1007000006C08091E1008B7F8093E10045DD809100
:10071000DA0080FF1EC08091D80080FF1AC080914F
:10072000DA008E7F8093DA008091D90080FF0DC0BF
:100730008CE089BD89B5826089BD09B400FEFDCF1A
:1007400081E080930D011BDD04C019BC10920D01E6
:100750001EDD8091E10080FF18C08091E20080FFE3
:1007600014C08091E2008E7F8093E2008091E200CD
:1007700080618093E2008091D80080628093D800ED
:1007800019BC85E080930D01EFD18091E10084FFD9
:100790002EC08091E20084FF2AC08CE089BD89B51B
:1007A000826089BD09B400FEFDCF8091D8008F7DA5
:1007B0008093D8008091E1008F7E8093E10080914A
:1007C000E2008F7E8093E2008091E200816080935E
:1007D000E20080910B01882331F48091E30087FDD2
:1007E00002C081E001C084E080930D01BDD1809101
:1007F000E10083FF22C08091E20083FF1EC0809150
:10080000E100877F8093E10082E080930D011092E8
:100810000B018091E1008E7F8093E1008091E200E6
:100820008E7F8093E2008091E20080618093E200FD
:1008300080E060E042E063DE97D1FF91EF91BF91ED
:10084000AF919F918F917F916F915F914F913F9168
:100850002F910F900BBE0F900FBE0F901F90189509
:100860000F931F93DF93CF93CDB7DEB7AC970FB63F
:10087000F894DEBF0FBECDBF8091F10080930E01D2
:100880008091F10080930F018091F1009091F1002F
:10089000E0E1F1E080931001909311018091F1006B
:1008A0009091F1008093120193838091F1009091D7
:1008B000F10080931401958305DD8091E80083FFAA
:1008C0003AC180910E0130910F01353009F487C093
:1008D000363040F43130C9F1313070F0333009F046
:1008E0002AC133C0383009F4F8C0393009F407C1DF
:1008F000363009F020C199C0803821F0823809F0E3
:100900001AC108C09091090180910A01882399F0C9
:10091000926011C08091120187708093E9008091EC
:10092000EB0090E025E0969587952A95E1F7982FC2
:1009300091701092E9008091E800877F8093E80031
:100940009093F1001092F100D3C0882319F0823007
:1009500009F0F1C090E08F719070009721F002973C
:1009600009F0E9C00CC080911001813009F0E3C0AA
:1009700010920A01333069F580930A012AC08091F0
:100980001001882331F520911201277009F4D3C09A
:100990002093E9008091EB0080FF1BC0333021F4ED
:1009A0008091EB00806213C08091EB0080618093A6
:1009B000EB0081E090E002C0880F991F2A95E2F7D2
:1009C0008093EA001092EA008091EB0088608093A7
:1009D000EB001092E9008091E800877F8CC08823AB
:1009E00009F0A9C0109110011F770FB7F8948091FA
:1009F000E800877F8093E800B7DD8091E80080FF02
:100A0000FCCF8091E3008078812B8093E30080917C
:100A1000E30080688093E300112311F482E001C0B9
:100A200083E080930D010FBF86C08058823008F0AC
:100A300082C0809110019091110123E08C3D9207BA
:100A400009F033C083E08C838AE28B837FB7F8940C
:100A5000DE0115966EE040E050E011E2E62FF0E096
:100A600010935700849140FF03C082958F706F5F91
:100A70008F70282F30E08A3018F0C901C79602C065
:100A8000C901C0968D939D934F5F5F4F44315105CF
:100A900029F77FBF8091E800877F8093E800CE012F
:100AA00003966AE270E061D012C060911201AE015B
:100AB0004F5F5F4FE4DCBC01009709F43CC08091BC
:100AC000E800877F8093E80089819A81ACD080918B
:100AD000E8008B778093E8002EC0803861F5809124
:100AE000E800877F8093E80080910B018093F100FC
:100AF0008091E8008E778093E80036DD1CC0882363
:100B0000D1F4909110019230B0F48091E800877F89
:100B10008093E80090930B0127DD80910B018823DF
:100B200031F48091E30087FD02C081E001C084E0E0
:100B300080930D015EDC8091E80083FF0AC0809104
:100B4000EB0080628093EB008091E800877F8093C8
:100B5000E800AC960FB6F894DEBF0FBECDBFCF91C4
:100B6000DF911F910F91089508959C014091140108
:100B7000509115014617570718F4F90190E03DC050
:100B80006115710511F0AB01F8CF8091E8008E7707
:100B90008093E80040E050E0F0CF80910D01882381
:100BA000F1F18530F1F18091E80083FF02C081E02E
:100BB00008958091E80082FD2CC08091E80080FFBC
:100BC0001CC02091F2003091F30007C08191809306
:100BD000F100415050402F5F3F4F4115510519F032
:100BE0002830310598F390E02830310509F491E080
:100BF0008091E8008E778093E8004115510569F6F1
:100C0000992359F606C080910D01882341F0853063
:100C100041F08091E80082FFF6CF80E0089582E005
:100C2000089583E008959C014091140150911501AD
:100C30004617570718F4F90190E040C06115710597
:100C400011F0AB01F8CF8091E8008E778093E80037
:100C500040E050E0F0CF80910D01882309F440C0BE
:100C6000853009F43FC08091E80083FF02C081E035
:100C700008958091E80082FD2DC08091E80080FFFA
:100C80001DC02091F2003091F30008C08491809340
:100C9000F1003196415050402F5F3F4F41155105B3
:100CA00019F02830310590F390E02830310509F42F
:100CB00091E08091E8008E778093E800411551051E
:100CC00051F6992341F606C080910D01882341F029
:100CD000853041F08091E80082FFF6CF80E00895F2
:100CE00082E0089583E00895BF92CF92DF92EF9261
:100CF000FF920F931F93CF93DF93182F092F7B0140
:100D00006A0153DCB82E8823B1F5812F902F9C0106
:100D1000E901C114D10439F0F60180819181E81A0A
:100D2000F90AC80FD91F00E010E022C08091E80046
:100D300085FD16C08091E8008E778093E800C1148D
:100D4000D10449F0F60180819181800F911F918338
:100D5000808385E011C01AD028DC882349F00CC0BC
:100D600089918093F1000894E108F1080F5F1F4F0B
:100D7000E114F104D9F68B2DDF91CF911F910F91E2
:100D8000FF90EF90DF90CF90BF9008951F938091D8
:100D90000D01882361F01091E9001092E900809123
:100DA000E80083FF01C05CDD17701093E9001F911C
:100DB0000895FB01DC0104C08D910190801921F49C
:100DC00041505040C8F7881B990B0895F894FFCF05
:020DD000010020
:00000001FF
