:10000000C9C00000E5C00000E3C00000E1C000007E
:10001000DFC00000DDC00000DBC00000D9C0000070
:10002000D7C00000D5C00000D4C20000D1C000007D
:10003000CFC00000CDC00000CBC00000C9C0000090
:10004000C7C00000C5C00000C3C00000C1C00000A0
:10005000BFC00000BDC00000BBC00000B9C00000B0
:10006000B7C00000B5C00000B3C00000B1C00000C0
:10007000AFC00000ADC00000ABC00000A9C00000D0
:10008000A7C00000A5C00000A3C00000A1C00000E0
:100090009FC000009DC0000005010902A1010901E7
:1000A000A100050919012903150025019503750112
:1000B000810295017505810105010930093116FF9D
:1000C000FF26010036FFFF460100950275088106F4
:1000D000C0C012011001EF020108EB036220010011
:1000E0000102DC0109025F00030100C032080B00BD
:1000F00002020201000904000001020201000524BD
:1001000000100104240206052406000107058203ED
:100110000800FF09040100020A00000007050402AC
:100120001000010705830210000109040200010309
:10013000010200092111010001223A000705810393
:100140000800010403090418034400650061006EFF
:10015000002000430061006D006500720061000036
:100160000030034C0055004600410020004300448D
:10017000004300200061006E00640020004D006F0D
:10018000007500730065002000440065006D006F7D
:100190000000000011241FBECFEFD0E2DEBFCDBFB4
:1001A00011E0A0E0B1E0ECE5F4E100E00BBF02C03B
:1001B00007900D92A637B107D9F711E0A6E7B1E095
:1001C00001C01D92A738B107E1F7CAD00C942C0AE0
:1001D00017CF8BB18F70806A8BB908958BB18F70F8
:1001E00080618BB90895809173019091740100979B
:1001F00029F00197909374018093730108950F93F0
:100200001F93D801F90123B18CB1809590E08073E0
:100210009070959587952095207E282B3CB127FFDF
:1002200002C08FEF03C024FF02C081E08283922FBF
:1002300026FF02C08FEF03C023FF02C081E081834D
:1002400095FF03C080818160808332FD03C080817F
:100250008260808383E090E08D939C9381E01F9186
:100260000F910895089582E591E03ED688E691E0E9
:100270009AC70F931F9388E691E05DD7082F82E518
:1002800091E0E9D59091E20094609093E20010E053
:1002900090E00823192300FF02C090E601C090E916
:1002A0008BB18F70982B9BB91F910F91089523B13B
:1002B0008CB1809590E0807390709595879520958E
:1002C000207E282B27FD17C024FF03C060E071E0CB
:1002D00014C026FF03C060E171E00FC023FF03C01C
:1002E00060E271E00AC025FF03C061E371E005C070
:1002F00010927601089564E471E08091760188237C
:1003000031F481E08093760182E591E086C508951D
:1003100084B7877F84BF88E10FB6F894809360002C
:10032000109260000FBE80E090E020E80FB6F894D5
:1003300020936100809361000FBE84B18F7184B9F6
:100340008DB18F7C8DB985B1806E85B98EB180639A
:100350008EB98AB1806F8AB98BB18F708BB923C186
:10036000D7DF8BB18F7080618BB97894A0DF82E585
:1003700091E0E3D482E591E040D588E691E021D692
:10038000C9D4F4CFDA019330B1F0943028F491302D
:1003900041F0923079F50AC0913211F1923251F563
:1003A00024C0E2EDF0E022E130E028C0E4EEF0E02D
:1003B0002FE530E023C0813049F0813018F08230E1
:1003C000C9F40AC0E3E4F1E0849103C0E7E4F1E09A
:1003D0008491282F30E012C0E1E6F1E08491F9CF5A
:1003E000E3E3F1E029E030E009C0E8E9F0E02AE3E6
:1003F00030E004C0E0E0F0E020E030E0ED93FC937A
:10040000C9010895382F282F2CC02093E900231705
:1004100021F4762F942F50E006C07091EC0090915B
:10042000ED005091F00091FF1BC08091EB008E7F9A
:100430008093EB008091ED0082708093ED008091BD
:10044000EB0081608093EB007093EC009093ED00E3
:100450005093F0008091EE0087FD02C080E0089587
:100460002F5F273090F23093E90081E0089580916A
:100470007F0188239CF404C080917E018823B9F019
:100480008091E80082FFF8CF8091E8008B7780931D
:10049000E800089580917E01882349F08091E8006A
:1004A00080FFF8CF8091E8008E778093E800089570
:1004B0004091E4005091E50024E68091EC0080FF3B
:1004C00005C08091E80080FF05C022C08091E8004F
:1004D00082FD1EC080917E01882311F482E0089580
:1004E000853011F483E008958091EB0085FF02C010
:1004F00081E008958091E4009091E50084179507CC
:10050000E1F2222311F484E008952150AC01D5CF0B
:1005100080E00895EF92FF920F931F934DD054D037
:1005200008ED10E0F8018081982F9F779083806814
:10053000808380818F7D8083E7EDF0E0808180681B
:10054000808319BC10927E0110927C0110927B0175
:1005500010927A0180EEE82EF12CF70180818B7FDA
:100560008083F80180818160808380E060E042E0E8
:1005700049DFE1EEF0E080818E7F8083E2EEF0E003
:10058000808181608083808188608083F7018081A1
:100590008E7F8083F8018081806180831F910F911D
:1005A000FF90EF900895E7EDF0E080818160808317
:1005B00081E080937D01AECFE8EDF0E080818C7F1B
:1005C00080831092E20008951092DA001092E10008
:1005D00008951F920F920FB60F920BB60F9211242F
:1005E0002F933F934F935F936F937F938F939F933B
:1005F000AF93BF93EF93FF938091E10082FF0AC016
:100600008091E20082FF06C08091E1008B7F8093A1
:10061000E100E9DD8091DA0080FF1EC08091D80002
:1006200080FF1AC08091DA008E7F8093DA0080917B
:10063000D90080FF0DC08CE089BD89B5826089BD7D
:1006400009B400FEFDCF81E080937E01C2DD04C0CD
:1006500019BC10927E01C2DD8091E10080FF18C0BC
:100660008091E20080FF14C08091E2008E7F809331
:10067000E2008091E20080618093E2008091D800E6
:1006800080628093D80019BC85E080937E01EFD111
:100690008091E10084FF2EC08091E20084FF2AC097
:1006A0008CE089BD89B5826089BD09B400FEFDCFAB
:1006B0008091D8008F7D8093D8008091E1008F7E5B
:1006C0008093E1008091E2008F7E8093E200809130
:1006D000E20081608093E20080917C01882331F404
:1006E0008091E30087FD02C081E001C084E0809337
:1006F0007E01BDD18091E10083FF22C08091E200A4
:1007000083FF1EC08091E100877F8093E10082E03B
:1007100080937E0110927C018091E1008E7F809316
:10072000E1008091E2008E7F8093E2008091E20000
:1007300080618093E20080E060E042E063DE97D178
:10074000FF91EF91BF91AF919F918F917F916F91A9
:100750005F914F913F912F910F900BBE0F900FBE65
:100760000F901F9018950F931F93DF93CF93CDB7E2
:10077000DEB7AC970FB6F894DEBF0FBECDBF809149
:10078000F10080937F018091F1008093800180913E
:10079000F1009091F100E1E8F1E080938101909304
:1007A00082018091F1009091F10080938301938305
:1007B0008091F1009091F10080938501958353DD44
:1007C0008091E80083FF3AC180917F0130918001E0
:1007D000353009F487C0363040F43130C9F131305A
:1007E00070F0333009F02AC133C0383009F4F8C052
:1007F000393009F407C1363009F020C199C080387A
:1008000021F0823809F01AC108C090917A018091D4
:100810007B01882399F0926011C0809183018770D9
:100820008093E9008091EB0090E025E09695879514
:100830002A95E1F7982F91701092E9008091E800D5
:10084000877F8093E8009093F1001092F100D3C06D
:10085000882319F0823009F0F1C090E08F71907018
:10086000009721F0029709F0E9C00CC08091810146
:10087000813009F0E3C010927B01333069F5809339
:100880007B012AC080918101882331F52091830169
:10089000277009F4D3C02093E9008091EB0080FF1A
:1008A0001BC0333021F48091EB00806213C0809133
:1008B000EB0080618093EB0081E090E002C0880F44
:1008C000991F2A95E2F78093EA001092EA0080913E
:1008D000EB0088608093EB001092E9008091E800C3
:1008E000877F8CC0882309F0A9C0109181011F77F0
:1008F0000FB7F8948091E800877F8093E800B7DD18
:100900008091E80080FFFCCF8091E3008078812B0C
:100910008093E3008091E30080688093E3001123DB
:1009200011F482E001C083E080937E010FBF86C096
:100930008058823008F082C08091810190918201BC
:1009400023E08C3D920709F033C083E08C838AE278
:100950008B837FB7F894DE0115966EE040E050E09F
:1009600011E2E62FF0E010935700849140FF03C09E
:1009700082958F706F5F8F70282F30E08A3018F06B
:10098000C901C79602C0C901C0968D939D934F5F60
:100990005F4F4431510529F77FBF8091E800877F81
:1009A0008093E800CE0103966AE270E061D012C045
:1009B00060918301AE014F5F5F4FE4DCBC010097A3
:1009C00009F43CC08091E800877F8093E80089812A
:1009D0009A81EDD08091E8008B778093E8002EC05B
:1009E000803861F58091E800877F8093E8008091EE
:1009F0007C018093F1008091E8008E778093E8007D
:100A000036DD1CC08823D1F4909181019230B0F47E
:100A10008091E800877F8093E80090937C0127DD38
:100A200080917C01882331F48091E30087FD02C02E
:100A300081E001C084E080937E011BDC8091E800AE
:100A400083FF0AC08091EB0080628093EB0080916D
:100A5000E800877F8093E800AC960FB6F894DEBF7D
:100A60000FBECDBFCF91DF911F910F9108950895D3
:100A70009C0140918501509186014617570718F453
:100A8000F90190E03DC06115710511F0AB01F8CF9F
:100A90008091E8008E778093E80040E050E0F0CF4E
:100AA00080917E018823F1F18530F1F18091E80099
:100AB00083FF02C081E008958091E80082FD2CC090
:100AC0008091E80080FF1CC02091F2003091F3007B
:100AD00007C081918093F100415050402F5F3F4FFC
:100AE0004115510519F02830310598F390E0283070
:100AF000310509F491E08091E8008E778093E80059
:100B00004115510569F6992359F606C080917E0179
:100B1000882341F0853041F08091E80082FFF6CFD4
:100B200080E0089582E0089583E008959C016115B6
:100B3000710529F48091E8008B778093E800F90132
:100B400022C080917E01882371F1853071F18091FE
:100B5000E80083FF02C081E008958091E80082FFF1
:100B6000F0CF06C08091F10081936150704031F068
:100B70008091F2009091F300892BA1F78091E80019
:100B80008B778093E80061157105D9F606C08091D6
:100B90007E01882341F0853041F08091E80080FF9C
:100BA000F6CF80E0089582E0089583E008959C01E7
:100BB00040918501509186014617570718F4F901B5
:100BC00090E040C06115710511F0AB01F8CF809144
:100BD000E8008E778093E80040E050E0F0CF80910D
:100BE0007E01882309F440C0853009F43FC080911C
:100BF000E80083FF02C081E008958091E80082FD53
:100C00002DC08091E80080FF1DC02091F20030913E
:100C1000F30008C084918093F10031964150504018
:100C20002F5F3F4F4115510519F02830310590F3E2
:100C300090E02830310509F491E08091E8008E774A
:100C40008093E8004115510551F6992341F606C0FD
:100C500080917E01882341F0853041F08091E80049
:100C600082FFF6CF80E0089582E0089583E0089542
:100C7000BF92CF92DF92EF92FF920F931F93CF9389
:100C8000DF93182F092F7B016A0112DCB82E88230D
:100C9000B1F5812F902F9C01E901C114D10439F0E5
:100CA000F60180819181E81AF90AC80FD91F00E086
:100CB00010E022C08091E80085FD16C08091E80018
:100CC0008E778093E800C114D10449F0F601808149
:100CD0009181800F911F9183808385E011C01AD08C
:100CE000E7DB882349F00CC089918093F1000894D8
:100CF000E108F1080F5F1F4FE114F104D9F68B2DC5
:100D0000DF91CF911F910F91FF90EF90DF90CF90E7
:100D1000BF9008951F9380917E01882361F0109108
:100D2000E9001092E9008091E80083FF01C01BDD1B
:100D300017701093E9001F910895FC0180917E01C6
:100D4000843041F587859089A189B2890097A105F2
:100D5000B10501F185818093E9008091E80082FF6F
:100D600019C08091F2009091F300892B19F42FEFB4
:100D70003FEF04C08091F100282F30E08091F20015
:100D80009091F300892B41F48091E8008B77809358
:100D9000E80002C02FEF3FEFC90108950895FC015C
:100DA00080917E01843021F587859089A189B2895F
:100DB0000097A105B105E1F081818093E900809160
:100DC000F2009091F300892BA9F09091E8008091B6
:100DD000E8008E778093E80095FD0CC069DB982FC2
:100DE000882349F48091E8008E778093E80003C05F
:100DF00092E001C090E0892F0895FC0180917E016E
:100E0000843051F487859089A189B2890097A10522
:100E1000B10511F0CF01C3CF0895FC0180917E018F
:100E20008430B9F487859089A189B2890097A1059A
:100E3000B10579F081818093E900DB010D900020FC
:100E4000E9F71197A61BB70BCB01BD0140E050E0BD
:100E50000FCF82E008951F93CF93DF93EC010D969F
:100E6000FC0189E0DF011D928A95E9F711E0898193
:100E7000181729F4EA81FB818C8162E010C08D8112
:100E8000181731F4EE81FF81888562E030E008C0F8
:100E90008985181709F5EA85FB858C8563E031E0C3
:100EA000882311F440E001C044E020E088E090E0B5
:100EB00003C02F5F880F991F8E179F07D0F362958D
:100EC000660F660F607C632B42602295207F422B69
:100ED000812F98DA882321F01F5F173041F681E0D7
:100EE000DF91CF911F910895CF93DF93EC01809113
:100EF000E80083FF63C0888190E0209183013091F6
:100F000084012817390709F059C080918001813286
:100F100061F0823220F4803209F050C01BC082326E
:100F200079F1833209F04AC03BC080917F01813A58
:100F300009F044C08091E800877F8093E800CE01EB
:100F40000F9667E070E094DD8091E8008B778093E6
:100F5000E80034C080917F01813281F58091E80002
:100F6000877F8093E800CE010F9667E070E0DEDDBA
:100F70008091E8008E778093E800CE010FDF1EC0DD
:100F800080917F018132D1F48091E800877F809346
:100F9000E8006DDA809181018D87CE01FFDE0EC001
:100FA00080917F01813251F48091E800877F8093A6
:100FB000E8005DDACE0160918101F0DEDF91CF9132
:100FC00008954F925F926F927F928F929F92AF920D
:100FD000BF92CF92DF92EF92FF920F931F93DF9316
:100FE000CF9300D00F92CDB7DEB77C016DB67EB641
:100FF00080917E01843009F085C0F7018181809362
:10100000E9008091E80085FF7DC05DB64EB647815E
:101010008DB79EB7841B91090FB6F8949EBF0FBE83
:101020008DBF0DB71EB70F5F1F4F19821B821A822B
:10103000C02E912EC80160E070E050E006D2C701DA
:10104000BE016F5F7F4F40E098018E010E5F1F4F22
:10105000D6D8882EF70181859285892B19F4AA2488
:10106000BB240BC020E0F70183859485892B09F010
:1010700021E081E02827A22EBB24F70105811681FB
:101080000115110511F4DD2412C04A815B818C2DFC
:10109000992DB801C4D1DD24009711F0DD24D3943B
:1010A000F7014781C8016C2D792D50E0C5D18A81A7
:1010B0009B81892BF9F0882021F4DD2011F4AB28E5
:1010C000C9F0F70181859285948783878181809318
:1010D000E9008981882311F08093F1006A817B8186
:1010E0008C2D992D40E050E0C3DD8091E8008E7793
:1010F0008093E800852D942D9C010FB6F8943EBF97
:101100000FBE2DBF0FB6F8947EBE0FBE6DBE0F9002
:101110000F900F90CF91DF911F910F91FF90EF9063
:10112000DF90CF90BF90AF909F908F907F906F9007
:101130005F904F900895CF93DF93DC010896FC01F8
:1011400085E0EF0119928A95E9F781E018968C9372
:10115000189784EF91E01A969C938E9319971196A5
:101160003C91119712966D917C91139714968C91E6
:10117000882311F440E001C044E020E088E090E0E2
:1011800003C02F5F880F991F86179707D0F342601F
:101190002295207F422B832F61EC34D9811181E08D
:1011A000DF91CF9108956F927F928F929F92AF922D
:1011B000BF92CF92DF92EF92FF920F931F93DF9334
:1011C000CF9300D00F92CDB7DEB76C016DB67EB66F
:1011D0008091E80083FF0CC1F601808190E02091AE
:1011E0008301309184012817390709F001C18091EA
:1011F0008001833009F4ACC0843030F4813071F068
:10120000823009F0F5C0DCC08A3009F4C1C08B30EF
:1012100009F4ABC0893009F0EBC056C080917F0162
:10122000813A09F0E5C09DB68EB61B821A82809184
:101230008101109182018983F60147818DB79EB7A4
:10124000841B91090FB6F8949EBF0FBE8DBFEDB6FB
:10125000FEB60894E11CF11CBE2CAF2CC70160E067
:1012600070E050E0F2D01150C601BE016F5F7F4FB9
:10127000412F97018E010E5F1F4F0E94FF00F60164
:10128000258136812115310529F04781C901B70132
:1012900050E0D2D01092E9008091E800877F8093DF
:1012A000E8006A817B818B2D9A2DE2DB8091E8003A
:1012B0008B778093E800292D382DC9010FB6F8945B
:1012C0009EBF0FBE8DBF94C080917F01813209F017
:1012D0008FC09DB68EB60091850110918601A090B9
:1012E0008101B09082018DB79EB7801B910B0FB624
:1012F000F8949EBF0FBE8DBFEDB6FEB60894E11CFC
:10130000F11C8091E800877F8093E800C701B80155
:101310000DDC8091E8008E778093E80080E090E01B
:10132000AA2011F081E090E0BA94E80EF91E081BA3
:10133000190BC6016A2D4B2D97010E943201892D90
:10134000982D9C010FB6F8943EBF0FBE2DBF50C024
:1013500080917F01813A09F04BC08091E800877F3E
:101360008093E800F60180853BC080917F01813247
:1013700009F03EC08091E800877F8093E80077D82D
:1013800090E080918101811191E0F601908730C059
:1013900080917F01813261F58091E800877F8093A1
:1013A000E80065D88091810190918201807076E09B
:1013B000969587957A95E1F7F6019287818718C00F
:1013C00080917F01813AA1F48091E800877F80932A
:1013D000E800F60181859285969587959695879583
:1013E0008093F1008091E8008E778093E8003FD8E9
:1013F0000FB6F8947EBE0FBE6DBE0F900F900F908B
:10140000CF91DF911F910F91FF90EF90DF90CF90E0
:10141000BF90AF909F908F907F906F900895FB0149
:10142000DC0104C08D910190801921F4415050409D
:10143000C8F7881B990B0895FB01DC0102C00190DD
:101440000D9241505040D8F70895DC0101C06D93D2
:0C14500041505040E0F70895F894FFCFA1
:10145C004A6F79737469636B20446F776E0D0A0061
:10146C004A6F79737469636B204C6566740D0A005E
:10147C004A6F79737469636B2052696768740D0ADB
:10148C00004A6F79737469636B205072657373656E
:10149C00640D0A004A6F79737469636B2055700D83
:1014AC000A000003100000041000000208000000F5
:1014BC00000000000000000002010800007701039A
:0614CC000000000000001A
:00000001FF
