:10000000DBC00000F7C00000F5C00000F3C0000036
:10001000F1C00000EFC00000EDC00000EBC0000028
:10002000E9C00000E7C0000007C30000E3C0000013
:10003000E1C00000DFC00000DDC00000DBC0000048
:10004000D9C00000D7C00000D5C00000D3C0000058
:10005000D1C00000CFC00000CDC00000CBC0000068
:10006000C9C00000C7C00000C5C00000C3C0000078
:10007000C1C00000BFC00000BDC00000BBC0000088
:10008000B9C00000B7C00000B5C00000B3C0000098
:10009000B1C00000AFC0000005010902A1010901C3
:1000A000A100050919012903150025019503750112
:1000B000810295017505810105010930093116FF9D
:1000C000FF26010036FFFF460100950275088106F4
:1000D000C0C005010906A101050719E029E71500BF
:1000E00025017501950881029501750881010508B2
:1000F0001901290595057501910295017503910175
:100100001500256505071900296595067508810004
:10011000C01201100100000008EB034D2001000196
:1001200002000109023B00020100C0320904000084
:100130000103010100092111010001223F0007050F
:1001400081030800010904010001030102000921E3
:1001500011010001223A000705830308000104038E
:10016000090418034400650061006E00200043008C
:1001700061006D0065007200610000003A034C00F0
:1001800055004600410020004D006F0075007300CF
:100190006500200061006E00640020004B006500D7
:1001A000790062006F00610072006400200044006A
:1001B00065006D006F00000011241FBECFEFD0E27C
:1001C000DEBFCDBF11E0A0E0B1E0E6E3F2E100E088
:1001D0000BBF02C007900D92AA31B107D9F711E009
:1001E000AAE1B1E001C01D92A233B107E1F7E1D06D
:1001F0000C94190905CF8BB18F70806A8BB9089563
:100200008BB18F7080618BB9089580910B019091B3
:100210000C01009729F0019790930C0180930B013A
:100220008091180190911901009729F001979093FE
:1002300019018093180108950F931F93522F632F74
:10024000D80143B12CB1209530E020733070359542
:1002500027954095407E422B2CB12095247030E0AC
:100260008050914019F524703070232B09F440C060
:10027000E52FF62F82E0808347FF02C084E003C0B1
:1002800044FF02C085E08283942F46FF02C086E0CF
:1002900003C043FF02C087E0828395FF02C088E06D
:1002A000828388E090E08D939C9322C0247030700C
:1002B000232BF1F4E52FF62F47FF02C08FEF03C089
:1002C00044FF02C081E08283942F46FF02C08FEF7B
:1002D00003C043FF02C081E0818395FF03C080819A
:1002E0008160808383E090E08D939C9381E001C0E6
:1002F00080E01F910F910895F9018050914061F4C1
:10030000808190E080FD90E181FD906882FD9064A5
:100310008BB18F70982B9BB9089580E091E032D615
:100320008DE091E02FC60F931F9380E091E0F2D50E
:10033000082F8DE091E0EED59091E20094609093CB
:10034000E20010E090E00823192300FF02C090E6CD
:1003500001C090E98BB18F70982B9BB91F910F91C1
:10036000089584B7877F84BF88E10FB6F89480939F
:100370006000109260000FBE80E090E020E80FB6B1
:10038000F89420936100809361000FBE84B18F7157
:1003900084B98DB18F7C8DB985B1806E85B98EB1F0
:1003A00080638EB98AB1806F8AB98BB18F708BB937
:1003B0002DC1D7DF8BB18F7080618BB9789480E0CD
:1003C00091E0EED48DE091E0EBD4D7D4F8CFDA0110
:1003D0009330C1F0943030F4913051F0923009F004
:1003E0003CC00BC0913219F1923209F036C029C0DD
:1003F000E1E1F1E022E130E034C0E3E2F1E02BE3BF
:1004000030E02FC0813049F0813018F0823029F57A
:100410000AC0EEE5F1E0849103C0E2E6F1E08491E8
:10042000282F30E01EC0ECE7F1E08491F9CF66237D
:1004300019F0EEE4F1E002C0E5E3F1E029E030E09C
:1004400010C0662329F0E8E9F0E02AE330E009C0B3
:10045000E2EDF0E02FE330E004C0E0E0F0E020E087
:1004600030E0ED93FC93C9010895382F282F2CC05C
:100470002093E900231721F4762F942F50E006C033
:100480007091EC009091ED005091F00091FF1BC035
:100490008091EB008E7F8093EB008091ED00827065
:1004A0008093ED008091EB0081608093EB0070936E
:1004B000EC009093ED005093F0008091EE0087FDEA
:1004C00002C080E008952F5F273090F23093E9005A
:1004D00081E0089580912A0188239CF404C08091D2
:1004E00029018823B9F08091E80082FFF8CF80913C
:1004F000E8008B778093E800089580912901882394
:1005000049F08091E80080FFF8CF8091E8008E7775
:100510008093E80008954091E4005091E50024E6BE
:100520008091EC0080FF05C08091E80080FF05C04D
:1005300022C08091E80082FD1EC08091290188239D
:1005400011F482E00895853011F483E008958091DC
:10055000EB0085FF02C081E008958091E400909156
:10056000E50084179507E1F2222311F484E0089551
:100570002150AC01D5CF80E00895EF92FF920F9308
:100580001F934DD054D008ED10E0F8018081982FD2
:100590009F7790838068808380818F7D8083E7ED63
:1005A000F0E080818068808319BC1092290110924C
:1005B0002701109226011092250180EEE82EF12CE1
:1005C000F70180818B7F8083F80180818160808347
:1005D00080E060E042E049DFE1EEF0E080818E7F84
:1005E0008083E2EEF0E0808181608083808188609A
:1005F0008083F70180818E7F8083F8018081806114
:1006000080831F910F91FF90EF900895E7EDF0E048
:1006100080818160808381E080932801AECFE8ED06
:10062000F0E080818C7F80831092E2000895109228
:10063000DA001092E10008951F920F920FB60F9208
:100640000BB60F9211242F933F934F935F936F93A9
:100650007F938F939F93AF93BF93EF93FF9380917B
:10066000E10082FF0AC08091E20082FF06C0809113
:10067000E1008B7F8093E100C8DD8091DA0080FF8C
:100680001EC08091D80080FF1AC08091DA008E7F52
:100690008093DA008091D90080FF0DC08CE089BD85
:1006A00089B5826089BD09B400FEFDCF81E08093E9
:1006B0002901A1DD04C019BC10922901A1DD80919E
:1006C000E10080FF18C08091E20080FF14C080919B
:1006D000E2008E7F8093E2008091E200806180934F
:1006E000E2008091D80080628093D80019BC85E038
:1006F00080932901EFD18091E10084FF2EC0809189
:10070000E20084FF2AC08CE089BD89B5826089BD82
:1007100009B400FEFDCF8091D8008F7D8093D80072
:100720008091E1008F7E8093E1008091E2008F7ED6
:100730008093E2008091E20081608093E2008091EA
:100740002701882331F48091E30087FD02C081E016
:1007500001C084E080932901BDD18091E10083FF35
:1007600022C08091E20083FF1EC08091E100877F5C
:100770008093E10082E0809329011092270180910B
:10078000E1008E7F8093E1008091E2008E7F809374
:10079000E2008091E20080618093E20080E060E00E
:1007A00042E063DE97D1FF91EF91BF91AF919F91AE
:1007B0008F917F916F915F914F913F912F910F900A
:1007C0000BBE0F900FBE0F901F9018950F931F93A5
:1007D000DF93CF93CDB7DEB7AC970FB6F894DEBFFB
:1007E0000FBECDBF8091F10080932A018091F1006E
:1007F00080932B018091F1009091F100ECE2F1E007
:1008000080932C0190932D018091F1009091F10043
:1008100080932E0193838091F1009091F100809359
:10082000300195837ADD8091E80083FF3AC18091A1
:100830002A0130912B01353009F487C0363040F45D
:100840003130C9F1313070F0333009F02AC133C092
:10085000383009F4F8C0393009F407C1363009F0EE
:1008600020C199C0803821F0823809F01AC108C02F
:100870009091250180912601882399F0926011C002
:1008800080912E0187708093E9008091EB0090E0C9
:1008900025E0969587952A95E1F7982F917010920B
:1008A000E9008091E800877F8093E8009093F10051
:1008B0001092F100D3C0882319F0823009F0F1C002
:1008C00090E08F719070009721F0029709F0E9C0D5
:1008D0000CC080912C01813009F0E3C010922601F8
:1008E000333069F5809326012AC080912C0188233A
:1008F00031F520912E01277009F4D3C02093E9002F
:100900008091EB0080FF1BC0333021F48091EB001D
:10091000806213C08091EB0080618093EB0081E0E6
:1009200090E002C0880F991F2A95E2F78093EA00B1
:100930001092EA008091EB0088608093EB001092A7
:10094000E9008091E800877F8CC0882309F0A9C066
:1009500010912C011F770FB7F8948091E800877FE2
:100960008093E800B7DD8091E80080FFFCCF8091A4
:10097000E3008078812B8093E3008091E30080681E
:100980008093E300112311F482E001C083E080939F
:1009900029010FBF86C08058823008F082C0809144
:1009A0002C0190912D0123E08C3D920709F033C07A
:1009B00083E08C838AE28B837FB7F894DE011596FF
:1009C0006EE040E050E011E2E62FF0E010935700B7
:1009D000849140FF03C082958F706F5F8F70282FC6
:1009E00030E08A3018F0C901C79602C0C901C0962C
:1009F0008D939D934F5F5F4F4431510529F77FBF22
:100A00008091E800877F8093E800CE0103966AE238
:100A100070E061D012C060912E01AE014F5F5F4F58
:100A2000D6DCBC01009709F43CC08091E800877FC8
:100A30008093E80089819A81EDD08091E8008B77DE
:100A40008093E8002EC0803861F58091E800877FB0
:100A50008093E800809127018093F1008091E80065
:100A60008E778093E80036DD1CC08823D1F4909106
:100A70002C019230B0F48091E800877F8093E800E9
:100A80009093270127DD80912701882331F48091FD
:100A9000E30087FD02C081E001C084E0809329016A
:100AA00042DC8091E80083FF0AC08091EB00806205
:100AB0008093EB008091E800877F8093E800AC96FC
:100AC0000FB6F894DEBF0FBECDBFCF91DF911F915F
:100AD0000F91089508959C0140913001509131018A
:100AE0004617570718F4F90190E03DC061157105EC
:100AF00011F0AB01F8CF8091E8008E778093E80089
:100B000040E050E0F0CF809129018823F1F1853059
:100B1000F1F18091E80083FF02C081E008958091A7
:100B2000E80082FD2CC08091E80080FF1CC020916D
:100B3000F2003091F30007C081918093F1004150A1
:100B400050402F5F3F4F4115510519F028303105B6
:100B500098F390E02830310509F491E08091E800A5
:100B60008E778093E8004115510569F6992359F66F
:100B700006C080912901882341F0853041F08091A1
:100B8000E80082FFF6CF80E0089582E0089583E0D8
:100B900008959C016115710529F48091E8008B7717
:100BA0008093E800F90122C080912901882371F126
:100BB000853071F18091E80083FF02C081E00895E3
:100BC0008091E80082FFF0CF06C08091F100819310
:100BD0006150704031F08091F2009091F300892BC8
:100BE000A1F78091E8008B778093E800611571058B
:100BF000D9F606C080912901882341F0853041F063
:100C00008091E80080FFF6CF80E0089582E00895AB
:100C100083E008959C0140913001509131014617C5
:100C2000570718F4F90190E040C06115710511F003
:100C3000AB01F8CF8091E8008E778093E80040E028
:100C400050E0F0CF80912901882309F440C085301D
:100C500009F43FC08091E80083FF02C081E008955D
:100C60008091E80082FD2DC08091E80080FF1DC0CA
:100C70002091F2003091F30008C084918093F1003C
:100C80003196415050402F5F3F4F4115510519F0AB
:100C90002830310590F390E02830310509F491E0D7
:100CA0008091E8008E778093E8004115510551F658
:100CB000992341F606C080912901882341F08530AF
:100CC00041F08091E80082FFF6CF80E0089582E055
:100CD000089583E00895BF92CF92DF92EF92FF9242
:100CE0000F931F93CF93DF93182F092F7B016A0176
:100CF00012DCB82E8823B1F5812F902F9C01E901D9
:100D0000C114D10439F0F60180819181E81AF90A01
:100D1000C80FD91F00E010E022C08091E80085FDD7
:100D200016C08091E8008E778093E800C114D1044A
:100D300049F0F60180819181800F911F918380831A
:100D400085E011C01AD0E7DB882349F00CC08991F7
:100D50008093F1000894E108F1080F5F1F4FE11440
:100D6000F104D9F68B2DDF91CF911F910F91FF9058
:100D7000EF90DF90CF90BF9008951F93809129014D
:100D8000882361F01091E9001092E9008091E80059
:100D900083FF01C01BDD17701093E9001F910895B8
:100DA0004F925F926F927F928F929F92AF92BF927B
:100DB000CF92DF92EF92FF920F931F93DF93CF9327
:100DC00000D00F92CDB7DEB77C016DB67EB68091B4
:100DD0002901843009F085C0F70181818093E90001
:100DE0008091E80085FF7DC05DB64EB647818DB726
:100DF0009EB7841B91090FB6F8949EBF0FBE8DBF9E
:100E00000DB71EB70F5F1F4F19821B821A82C02EAB
:100E1000912EC80160E070E050E004D2C701BE012D
:100E20006F5F7F4F40E098018E010E5F1F4F04DA25
:100E3000882EF70181859285892B19F4AA24BB2479
:100E40000BC020E0F70183859485892B09F021E010
:100E500081E02827A22EBB24F70105811681011508
:100E6000110511F4DD2412C04A815B818C2D992D6E
:100E7000B801C2D1DD24009711F0DD24D394F7012D
:100E80004781C8016C2D792D50E0C3D18A819B81A7
:100E9000892BF9F0882021F4DD2011F4AB28C9F06A
:100EA000F701818592859487838781818093E9000A
:100EB0008981882311F08093F1006A817B818C2DD8
:100EC000992D40E050E007DF8091E8008E77809315
:100ED000E800852D942D9C010FB6F8943EBF0FBEFF
:100EE0002DBF0FB6F8947EBE0FBE6DBE0F900F9053
:100EF0000F90CF91DF911F910F91FF90EF90DF90B6
:100F0000CF90BF90AF909F908F907F906F905F90A9
:100F10004F900895CF93DF93DC010896FC0185E0A4
:100F2000EF0119928A95E9F781E018968C9318974A
:100F300084EF91E01A969C938E93199711963C91A9
:100F4000119712966D917C91139714968C9188232A
:100F500011F440E001C044E020E088E090E003C0EC
:100F60002F5F880F991F86179707D0F3426022954D
:100F7000207F422B832F61EC78DA811181E0DF91B1
:100F8000CF9108956F927F928F929F92AF92BF926E
:100F9000CF92DF92EF92FF920F931F93DF93CF9345
:100FA00000D00F92CDB7DEB76C016DB67EB68091E2
:100FB000E80083FF0AC1F601808190E020912E01B4
:100FC00030912F012817390709F0FFC080912B01BC
:100FD000833009F4AAC0843030F4813071F082305B
:100FE00009F0F3C0DAC08A3009F4BFC08B3009F4CD
:100FF000A9C0893009F0E9C055C080912A01813A21
:1010000009F0E3C09DB68EB61B821A8280912C0136
:1010100010912D018983F60147818DB79EB7841BFE
:1010200091090FB6F8949EBF0FBE8DBFEDB6FEB608
:101030000894E11CF11CBE2CAF2CC70160E070E0ED
:1010400050E0F0D01150C601BE016F5F7F4F412FBD
:1010500097018E010E5F1F4FEFD8F6012581368173
:101060002115310529F04781C901B70150E0D1D0E0
:101070001092E9008091E800877F8093E8006A8100
:101080007B818B2D9A2D27DD8091E8008B778093D3
:10109000E800292D382DC9010FB6F8949EBF0FBE68
:1010A0008DBF93C080912A01813209F08EC09DB618
:1010B0008EB60091300110913101A0902C01B090BA
:1010C0002D018DB79EB7801B910B0FB6F8949EBF74
:1010D0000FBE8DBFEDB6FEB60894E11CF11C8091E9
:1010E000E800877F8093E800C701B80152DD809156
:1010F000E8008E778093E80080E090E0AA2011F06D
:1011000081E090E0BA94E80EF91E081B190BC601A5
:101110006A2D4B2D9701F0D8892D982D9C010FB683
:10112000F8943EBF0FBE2DBF50C080912A01813A76
:1011300009F04BC08091E800877F8093E800F601BA
:1011400080853BC080912A01813209F03EC08091A8
:10115000E800877F8093E800BDD990E080912C0162
:10116000811191E0F601908730C080912A0181328F
:1011700061F58091E800877F8093E800ABD980918A
:101180002C0190912D01807076E0969587957A9547
:10119000E1F7F6019287818718C080912A01813A90
:1011A000A1F48091E800877F8093E800F6018185B3
:1011B000928596958795969587958093F100809175
:1011C000E8008E778093E80085D90FB6F8947EBE4C
:1011D0000FBE6DBE0F900F900F90CF91DF911F91BA
:1011E0000F91FF90EF90DF90CF90BF90AF909F90C6
:1011F0008F907F906F900895FB01DC0104C08D916A
:101200000190801921F441505040C8F7881B990B78
:101210000895FB01DC0102C001900D924150504045
:10122000D8F70895DC0101C06D9341505040E0F7BC
:061230000895F894FFCFC1
:1012360000010800001A0108000000000001030870
:0A1246000000220103000000000078
:00000001FF
