:100000009FC00000BAC00000B8C00000B6C0000029
:10001000B4C00000B2C00000B0C00000AEC000001C
:10002000ACC00000AAC00000D6C20000A6C00000FC
:10003000A4C00000A2C00000A0C000009EC000003C
:100040009CC000009AC0000098C0000096C000004C
:1000500094C0000092C0000090C000008EC000005C
:100060008CC000008AC0000088C0000086C000006C
:1000700084C0000082C0000080C000007EC000007C
:100080007CC000007AC0000078C0000076C000008C
:1000900074C0000072C000000600FF0901A1010940
:1000A00002150025FF750895088102090315002532
:1000B000FF750895089102C01201100100000008A8
:1000C000EB034F2001000102000109022900010198
:1000D00000C03209040000020300000009211101E0
:1000E0000001222000070581030800010705020323
:1000F0000800010403090418034400650061006E50
:10010000002000430061006D006500720061000086
:10011000002C034C005500460041002000470065BC
:10012000006E00650072006900630020004800490D
:100130000044002000440065006D006F00000000D6
:1001400011241FBECFEFD0E2DEBFCDBF11E0A0E093
:10015000B1E0E6EEFDE000E00BBF02C007900D92BB
:10016000A030B107D9F711E0A0E0B1E001C01D92C5
:10017000A531B107E1F7FFD034C642CF8BB18F7004
:10018000806A8BB908958BB18F7080618BB90895A7
:10019000AC0120E030E0F901E050FF4FDA01A20F9E
:1001A000B31F8C9180832F5F3F4F2830310599F723
:1001B0000895AC0120E030E0FA01E20FF31FD9010D
:1001C000A050BF4F8C9180832F5F3F4F2830310567
:1001D00099F708950F931F93DF93CF93CDB7DEB7B1
:1001E00028970FB6F894DEBF0FBECDBF80910C01EB
:1001F000843091F582E08093E9008091E80082FFED
:1002000014C08091E80085FF0BC08E010F5F1F4F67
:10021000C80168E070E040E050E02CD5C801B8DFCC
:100220008091E8008B778093E80081E08093E9007B
:100230008091E80080FF10C08E010F5F1F4FC80142
:10024000B8DFC80168E070E040E050E065D580911B
:10025000E8008E778093E80028960FB6F894DEBF0A
:100260000FBECDBFCF91DF911F910F9108950F93D6
:100270001F93DF93CF93CDB7DEB728970FB6F894CF
:10028000DEBF0FBECDBF80910E01813019F08930E5
:1002900081F518C080910D01813A59F58E010F5FEB
:1002A0001F4FC80186DF8091E800877F8093E800B8
:1002B000C80168E070E0DED38091E8008B7780931E
:1002C000E80017C080910D01813299F48091E80017
:1002D000877F8093E8008E010F5F1F4FC80168E0A1
:1002E00070E026D48091E8008E778093E800C80102
:1002F0004FDF28960FB6F894DEBF0FBECDBFCF916B
:10030000DF911F910F9108950F931F9381E061EC8E
:1003100042E07AD0082F82E060EC42E075D010E035
:1003200090E00823192300FF02C090E601C090E985
:100330008BB18F70982B9BB91F910F91089584B743
:10034000877F84BF88E10FB6F89480936000109295
:1003500060000FBE80E090E020E80FB6F894209394
:100360006100809361000FBE8AB1806F8AB98BB142
:100370008F708BB91AC1E3DF8BB18F7080618BB93D
:10038000789428DF1BD5FDCFDA019330B1F094309B
:1003900028F4913041F0923079F50AC0913211F190
:1003A000923251F524C0E8EBF0E022E130E028C0C1
:1003B000EAECF0E029E230E023C0813049F08130FE
:1003C00018F08230C9F40AC0E3EFF0E0849103C072
:1003D000E7EFF0E08491282F30E012C0E1E1F1E096
:1003E0008491F9CFECEDF0E029E030E009C0E8E9D4
:1003F000F0E020E230E004C0E0E0F0E020E030E0B7
:10040000ED93FC93C9010895382F282F2CC0209319
:10041000E900231721F4762F942F50E006C0709145
:10042000EC009091ED005091F00091FF1BC0809185
:10043000EB008E7F8093EB008091ED0082708093C3
:10044000ED008091EB0081608093EB007093EC00F5
:100450009093ED005093F0008091EE0087FD02C074
:1004600080E008952F5F273090F23093E90081E01B
:10047000089580910D0188239CF404C080910C01A3
:100480008823B9F08091E80082FFF8CF8091E800DE
:100490008B778093E800089580910C01882349F0C0
:1004A0008091E80080FFF8CF8091E8008E778093FC
:1004B000E80008954091E4005091E50024E6809121
:1004C000EC0080FF05C08091E80080FF05C022C0DD
:1004D0008091E80082FD1EC080910C01882311F4F8
:1004E00082E00895853011F483E008958091EB0057
:1004F00085FF02C081E008958091E4009091E500BD
:1005000084179507E1F2222311F484E00895215025
:10051000AC01D5CF80E00895EF92FF920F931F9327
:100520004DD054D008ED10E0F8018081982F9F77CE
:1005300090838068808380818F7D8083E7EDF0E009
:1005400080818068808319BC10920C0110920A018E
:10055000109209011092080180EEE82EF12CF701AB
:1005600080818B7F8083F80180818160808380E03F
:1005700060E042E049DFE1EEF0E080818E7F808341
:10058000E2EEF0E0808181608083808188608083FA
:10059000F70180818E7F8083F80180818061808374
:1005A0001F910F91FF90EF900895E7EDF0E08081AB
:1005B0008160808381E080930B01AECFE8EDF0E0B5
:1005C00080818C7F80831092E20008951092DA007F
:1005D0001092E10008951F920F920FB60F920BB682
:1005E0000F9211242F933F934F935F936F937F93B9
:1005F0008F939F93AF93BF93EF93FF938091E1000D
:1006000082FF0AC08091E20082FF06C08091E10073
:100610008B7F8093E1002DD28091DA0080FF1EC095
:100620008091D80080FF1AC08091DA008E7F80937D
:10063000DA008091D90080FF0DC08CE089BD89B5BA
:10064000826089BD09B400FEFDCF81E080930C017A
:1006500095DD04C019BC10920C0195DD8091E1007C
:1006600080FF18C08091E20080FF14C08091E200FA
:100670008E7F8093E2008091E20080618093E200AF
:100680008091D80080628093D80019BC85E0809367
:100690000C01EFD18091E10084FF2EC08091E20037
:1006A00084FF2AC08CE089BD89B5826089BD09B408
:1006B00000FEFDCF8091D8008F7D8093D80080917F
:1006C000E1008F7E8093E1008091E2008F7E809335
:1006D000E2008091E20081608093E20080910A0153
:1006E000882331F48091E30087FD02C081E001C0DE
:1006F00084E080930C01BDD18091E10083FF22C092
:100700008091E20083FF1EC08091E100877F80938B
:10071000E10082E080930C0110920A018091E100D7
:100720008E7F8093E1008091E2008E7F8093E200D3
:100730008091E20080618093E20080E060E042E02E
:1007400063DE97D1FF91EF91BF91AF919F918F9110
:100750007F916F915F914F913F912F910F900BBEC1
:100760000F900FBE0F901F9018950F931F93DF935C
:10077000CF93CDB7DEB7AC970FB6F894DEBF0FBE00
:10078000CDBF8091F10080930D018091F1008093A5
:100790000E018091F1009091F100EFE0F1E0809383
:1007A0000F01909310018091F1009091F1008093DE
:1007B000110193838091F1009091F10080931301D6
:1007C000958355DD8091E80083FF3AC180910D014A
:1007D00030910E01353009F487C0363040F43130A5
:1007E000C9F1313070F0333009F02AC133C03830EC
:1007F00009F4F8C0393009F407C1363009F020C1D6
:1008000099C0803821F0823809F01AC108C090914F
:10081000080180910901882399F0926011C08091AC
:10082000110187708093E9008091EB0090E025E052
:10083000969587952A95E1F7982F91701092E90087
:100840008091E800877F8093E8009093F1001092F8
:10085000F100D3C0882319F0823009F0F1C090E094
:100860008F719070009721F0029709F0E9C00CC0D9
:1008700080910F01813009F0E3C0109209013330FB
:1008800069F5809309012AC080910F01882331F511
:1008900020911101277009F4D3C02093E9008091C1
:1008A000EB0080FF1BC0333021F48091EB008062AD
:1008B00013C08091EB0080618093EB0081E090E0B9
:1008C00002C0880F991F2A95E2F78093EA001092E0
:1008D000EA008091EB0088608093EB001092E900C1
:1008E0008091E800877F8CC0882309F0A9C010910F
:1008F0000F011F770FB7F8948091E800877F8093EE
:10090000E800B7DD8091E80080FFFCCF8091E30034
:100910008078812B8093E3008091E300806880934E
:10092000E300112311F482E001C083E080930C0105
:100930000FBF86C08058823008F082C080910F01BE
:100940009091100123E08C3D920709F033C083E0C1
:100950008C838AE28B837FB7F894DE0115966EE074
:1009600040E050E011E2E62FF0E010935700849150
:1009700040FF03C082958F706F5F8F70282F30E02B
:100980008A3018F0C901C79602C0C901C0968D937C
:100990009D934F5F5F4F4431510529F77FBF809191
:1009A000E800877F8093E800CE0103966AE270E05A
:1009B00061D012C060911101AE014F5F5F4FE4DC66
:1009C000BC01009709F43CC08091E800877F8093C8
:1009D000E80089819A81EDD08091E8008B7780933F
:1009E000E8002EC0803861F58091E800877F809311
:1009F000E80080910A018093F1008091E8008E77F1
:100A00008093E80036DD1CC08823D1F490910F015B
:100A10009230B0F48091E800877F8093E800909353
:100A20000A0127DD80910A01882331F48091E300D7
:100A300087FD02C081E001C084E080930C0164DC8A
:100A40008091E80083FF0AC08091EB008062809370
:100A5000EB008091E800877F8093E800AC960FB6AA
:100A6000F894DEBF0FBECDBFCF91DF911F910F91E4
:100A7000089508959C014091130150911401461767
:100A8000570718F4F90190E03DC06115710511F0A8
:100A9000AB01F8CF8091E8008E778093E80040E0CA
:100AA00050E0F0CF80910C018823F1F18530F1F115
:100AB0008091E80083FF02C081E008958091E80002
:100AC00082FD2CC08091E80080FF1CC02091F200C4
:100AD0003091F30007C081918093F1004150504064
:100AE0002F5F3F4F4115510519F02830310598F31C
:100AF00090E02830310509F491E08091E8008E778C
:100B00008093E8004115510569F6992359F606C00E
:100B100080910C01882341F0853041F08091E800FC
:100B200082FFF6CF80E0089582E0089583E0089583
:100B30009C016115710529F48091E8008B77809301
:100B4000E800F90122C080910C01882371F1853001
:100B500071F18091E80083FF02C081E008958091E7
:100B6000E80082FFF0CF06C08091F10081936150D0
:100B7000704031F08091F2009091F300892BA1F741
:100B80008091E8008B778093E80061157105D9F6B4
:100B900006C080910C01882341F0853041F080919E
:100BA000E80080FFF6CF80E0089582E0089583E0BA
:100BB00008959C0140911301509114014617570765
:100BC00018F4F90190E040C06115710511F0AB0116
:100BD000F8CF8091E8008E778093E80040E050E005
:100BE000F0CF80910C01882309F440C0853009F4CE
:100BF0003FC08091E80083FF02C081E008958091AA
:100C0000E80082FD2DC08091E80080FF1DC020918A
:100C1000F2003091F30008C084918093F100319686
:100C2000415050402F5F3F4F4115510519F028307A
:100C3000310590F390E02830310509F491E080917E
:100C4000E8008E778093E8004115510551F699230D
:100C500041F606C080910C01882341F0853041F0B7
:100C60008091E80082FFF6CF80E0089582E0089549
:100C700083E00895BF92CF92DF92EF92FF920F939D
:100C80001F93CF93DF93182F092F7B016A0112DC8A
:100C9000B82E8823B1F5812F902F9C01E901C11452
:100CA000D10439F0F60180819181E81AF90AC80F60
:100CB000D91F00E010E022C08091E80085FD16C039
:100CC0008091E8008B778093E800C114D10449F04B
:100CD000F60180819181800F911F9183808385E04F
:100CE00011C06CD0E7DB882349F00CC08091F10083
:100CF00089930894E108F1080F5F1F4FE114F10494
:100D0000D9F68B2DDF91CF911F910F91FF90EF902E
:100D1000DF90CF90BF900895BF92CF92DF92EF9275
:100D2000FF920F931F93CF93DF93182F092F7B010F
:100D30006A01C0DBB82E8823B1F5812F902F9C016A
:100D4000E901C114D10439F0F60180819181E81ADA
:100D5000F90AC80FD91F00E010E022C08091E80016
:100D600085FD16C08091E8008E778093E800C1145D
:100D7000D10449F0F60180819181800F911F918308
:100D8000808385E011C01AD095DB882349F00CC020
:100D900089918093F1000894E108F1080F5F1F4FDB
:100DA000E114F104D9F68B2DDF91CF911F910F91B2
:100DB000FF90EF90DF90CF90BF9008951F938091A8
:100DC0000C01882361F01091E9001092E9008091F4
:100DD000E80083FF01C0C9DC17701093E9001F9180
:060DE0000895F894FFCF16
:00000001FF
