:100000008BC00000A7C00000A5C00000A3C0000076
:10001000A1C000009FC000009DC000009BC0000068
:1000200099C0000097C00000C3C6000084C600004D
:1000300091C000008FC000008DC000008BC0000088
:1000400089C0000087C0000085C0000083C0000098
:1000500081C000007FC000007DC000007BC00000A8
:1000600079C0000077C0000075C0000073C00000B8
:1000700071C000006FC000006DC000006BC00000C8
:1000800069C0000067C0000065C0000063C00000D8
:1000900061C000005FC000001201100100000008F4
:1000A000EB03452001000102DC01090220000101EF
:1000B0000080320904000002080650000705830290
:1000C000400001070504024000010403090418036D
:1000D0004400650061006E002000430061006D0077
:1000E00065007200610000002E034C0055004600C0
:1000F000410020004D006100730073002000530098
:1001000074006F0072006100670065002000440009
:1001100065006D006F00000011241FBECFEFD0E21C
:10012000DEBFCDBF11E0A0E0B1E0EAE9F9E100E017
:100130000BBF02C007900D92AE36B107D9F711E0A0
:10014000AEE6B1E001C01D92AB37B107E1F75AD07E
:100150000C94CB0C55CF8BB18F70806A8BB90895FE
:100160008BB18F7080618BB908952BB12F70206295
:100170002BB9D6D39BB19F7090669BB9089580E050
:1001800091E00C94920C80E091E00E94570C80FD6D
:1001900002C090E901C090E68BB18F70982B9BB99B
:1001A000089584B7877F84BF88E10FB6F894809361
:1001B0006000109260000FBE80E090E020E80FB673
:1001C000F89420936100809361000FBE8AB1806F24
:1001D0008AB98BB18F708BB984B1866084B984B1D0
:1001E000867F84B985B1896085B98CE58CBD8DB574
:1001F00081608DBD8DB183608DB98EB183608EB904
:1002000084D581C0CEDF8BB18F7080618BB978943B
:1002100080E091E00E94340B0E94210BF9CFDA01BB
:10022000923049F0933061F09130F9F4E8E9F0E070
:1002300022E130E01EC0EAEAF0E020E230E019C03E
:10024000813049F0813018F0823079F408C0EAEC4E
:10025000F0E0849107C0EEECF0E0849103C0E8EE9A
:10026000F0E08491282F30E004C0E0E0F0E020E0EE
:1002700030E0ED93FC93C90108959C018EB1836039
:100280008EB980E42030380758F420FF05C08EB1C5
:100290008C7F81608EB908958EB18C7F82608EB91B
:1002A00008958EB19EB193609EB99EB183709C7F7C
:1002B000892B8EB90895F5DF87ED8EBD0DB407FE4D
:1002C000FDCF1EBC0DB407FEFDCF0EB407FEF9CF67
:1002D000E8CF9C013695279536E0969587953A9517
:1002E000E1F78EBD0DB407FEFDCF822F880F880F7A
:1002F000880F872B8EBD0DB407FEFDCF6EBD0DB4EC
:1003000007FEFDCF08958EB18C7F82608EB987ED98
:100310008EBD0DB407FEFDCF1EBC0DB407FEFDCF94
:100320000EB401FE15C0BDDF8DE38EBD0DB407FE1A
:10033000FDCF8AE28EBD0DB407FEFDCF8FE78EBDE7
:100340000DB407FEFDCF8AE98EBD0DB407FEFDCFCB
:100350008EB18C7F81608EB987ED8EBD0DB407FEA6
:10036000FDCF1EBC0DB407FEFDCF0EB401FE15C0BF
:1003700098DF8DE38EBD0DB407FEFDCF8AE28EBD02
:100380000DB407FEFDCF8FE78EBD0DB407FEFDCF88
:100390008AE98EBD0DB407FEFDCF8EB183608EB9A4
:1003A00008958EB18C7F82608EB98FE98EBD0DB4B9
:1003B00007FEFDCF1EBC0DB407FEFDCF9EB58EB16E
:1003C00083608EB99F3111F080E008958EB18C7FEB
:1003D00081608EB98FE98EBD0DB407FEFDCF1EBCC6
:1003E0000DB407FEFDCF9EB58EB183608EB980E05F
:1003F0009F3109F481E00895AF92BF92CF92DF92CE
:10040000EF92FF920F931F93DF93CF930F92CDB78D
:10041000DEB75C017901E9E0440F551F661F771FC5
:10042000EA95D1F7DB01CA013AE0B695A795979511
:1004300087953A95D1F78C012FEFC22E23E0D22E6B
:10044000C422D5221ADF82ED8EBD0DB407FEFDCF8A
:10045000C801B6013EDF1EBC0DB407FEFDCF1EBCB9
:100460000DB407FEFDCF1EBC0DB407FEFDCF1EBCB4
:100470000DB407FEFDCFCED3882309F0C5C094E0AC
:10048000D694C7949A95E1F79C2D82EDC82EACC006
:10049000DD248091E80085FD0BC08091E8008E7717
:1004A0008093E8009983B6D39981882309F0ACC082
:1004B0009034E9F40F5F1F4FC801DFDECEBC0DB4EE
:1004C00007FEFDCFC80160E070E003DF1EBC0DB485
:1004D00007FEFDCF1EBC0DB407FEFDCF1EBC0DB444
:1004E00007FEFDCF1EBC0DB407FEFDCF90E01EBC85
:1004F0000DB407FEFDCF8EB58093F1001EBC0DB488
:1005000007FEFDCF8EB58093F1001EBC0DB407FE33
:10051000FDCF8EB58093F1001EBC0DB407FEFDCF5C
:100520008EB58093F1001EBC0DB407FEFDCF8EB5D5
:100530008093F1001EBC0DB407FEFDCF8EB58093F5
:10054000F1001EBC0DB407FEFDCF8EB58093F10007
:100550001EBC0DB407FEFDCF8EB58093F1001EBC0E
:100560000DB407FEFDCF8EB58093F1001EBC0DB417
:1005700007FEFDCF8EB58093F1001EBC0DB407FEC3
:10058000FDCF8EB58093F1001EBC0DB407FEFDCFEC
:100590008EB58093F1001EBC0DB407FEFDCF8EB565
:1005A0008093F1001EBC0DB407FEFDCF8EB5809385
:1005B000F1001EBC0DB407FEFDCF8EB58093F10097
:1005C0001EBC0DB407FEFDCF8EB58093F100F50182
:1005D00086A98823C9F49F5FD394F0E2DF1609F05F
:1005E00058CF0894E108F108E114F10409F050CF64
:1005F0008091E80085FD05C08091E8008E778093AA
:10060000E8008EB183608EB90F90CF91DF911F917A
:100610000F91FF90EF90DF90CF90BF90AF90089533
:100620008F929F92AF92BF92CF92DF92EF92FF9202
:100630000F931F93DF93CF930F92CDB7DEB75C017B
:10064000790109E0440F551F661F771F0A95D1F7FE
:10065000DB01CA011AE0B695A795979587951A957B
:10066000D1F78C01BFEFCB2EB3E0DB2EC422D52215
:1006700004DE83E58EBD0DB407FEFDCFC80160E04A
:1006800070E027DE18DE84E88EBD0DB407FEFDCFD6
:1006900080E090E0B6011DDEBDD2882309F0EAC0FB
:1006A000A4E0D694C794AA95E1F79C2D4701F5E004
:1006B000880C991CFA95E1F7DD24BDC0CC2480910B
:1006C000E80085FD0BC08091E8008B778093E800FF
:1006D0009983A0D29981882309F0CCC0903409F085
:1006E00039C0E9DDDD2011F483E801C086E88EBD64
:1006F0000DB407FEFDCFC80160E070E0EADD0F5FDA
:100700001F4F8EB18370813009F4D826C801B5DD42
:1007100020E48216910478F4CEDDDD2011F483E527
:1007200001C085E58EBD0DB407FEFDCFC80160E0B8
:1007300070E0CFDDC0DDDD2011F484E801C087E882
:100740008EBD0DB407FEFDCF80E090E060E070E06C
:10075000C0DD90E08091F1008EBD0DB407FEFDCFAD
:100760008091F1008EBD0DB407FEFDCF8091F100A8
:100770008EBD0DB407FEFDCF8091F1008EBD0DB48E
:1007800007FEFDCF8091F1008EBD0DB407FEFDCFB9
:100790008091F1008EBD0DB407FEFDCF8091F10078
:1007A0008EBD0DB407FEFDCF8091F1008EBD0DB45E
:1007B00007FEFDCF8091F1008EBD0DB407FEFDCF89
:1007C0008091F1008EBD0DB407FEFDCF8091F10048
:1007D0008EBD0DB407FEFDCF8091F1008EBD0DB42E
:1007E00007FEFDCF8091F1008EBD0DB407FEFDCF59
:1007F0008091F1008EBD0DB407FEFDCF8091F10018
:100800008EBD0DB407FEFDCF8091F1008EBD0DB4FD
:1008100007FEFDCFF50186A9882361F59F5FC3948C
:10082000F0E2CF1609F04BCF0894E108F10820EE72
:100830003FEF820E931EE114F10409F03FCF3BDD40
:10084000DD2011F483E801C086E88EBD0DB407FEFB
:10085000FDCFC80160E070E03CDD2DDD8091E80057
:1008600085FD05C08091E8008B778093E8008EB10C
:1008700083608EB90F90CF91DF911F910F91FF9000
:10088000EF90DF90CF90BF90AF909F908F900895A2
:100890000F931F93CF93DF938C01862FF801468D22
:1008A000558D648D738DC1A1D0A14030F0E85F07F4
:1008B000F0E06F07F0E07F0768F080913901807FFA
:1008C00085608093390181E2809343011092440155
:1008D00080E021C0882321F0C8019E018DDD03C086
:1008E000C8019E019DDE9E0140E050E089E0220F9C
:1008F000331F441F551F8A95D1F7F80182899389C8
:10090000A489B589821B930BA40BB50B828B938BA7
:10091000A48BB58B81E0DF91CF911F910F9108954A
:10092000CF92DF92EF92FF920F931F93DF93CF93BB
:10093000CDB7DEB728970FB6F894DEBF0FBECDBF98
:100940007C01FC01818D8D3109F4A6C08E3178F4D3
:10095000833009F452C0843020F4882309F4D9C0CC
:10096000DEC08231B9F08A3109F0D9C0B8C088320E
:1009700009F4AFC0893238F48E3109F4CAC0853227
:1009800009F0CDC05DC08A3209F4A0C08F3209F0F1
:10099000C6C0BFC0F701058D148D828D90E08370B5
:1009A0009070892B09F07CC0838D882309F078C072
:1009B00068010532110518F094E2C92ED12C89E4A2
:1009C00091E0B60140E050E0A9D5C8018C199D091D
:1009D00060E070E0F4D58091E8008E778093E800C5
:1009E000960140E050E0F70182899389A489B58996
:1009F000821B930BA40BB50B87C0F701158D012F3C
:100A0000133108F002E187E391E0602F70E040E0ED
:100A100050E084D5812F90E0801B910960E070E068
:100A2000CED58091E8008E778093E800F701828927
:100A30009389A489B589801B9109A109B10964C072
:100A40008FEF9FE7A0E0B0E089839A83AB83BC83FC
:100A500080E092E0A0E0B0E08D839E83AF83B88712
:100A6000CE01019664E070E040E050E006D5CE0192
:100A7000059664E070E040E050E0FFD48091E8002B
:100A80008E778093E800F70182899389A489B589DC
:100A90000897A109B10938C0F701828D82FD08C00D
:100AA00080913901807F85608093390184E23EC066
:100AB00078DC882371F580913901807F8460809390
:100AC0003901109243011092440133C0C70160E024
:100AD00002C0C70161E0DCDE882359F12CC010920E
:100AE000F1001092F1001092F1001092F10080914B
:100AF000E8008E778093E800F70182899389A489C2
:100B0000B5890497A109B109828B938BA48BB58B0E
:100B100012C0F701128A138A148A158A0CC08091B8
:100B20003901807F85608093390180E280934301A1
:100B3000CACF80E00AC080913901807F809339015B
:100B4000109243011092440181E028960FB6F89468
:100B5000DEBF0FBECDBFCF91DF911F910F91FF90F0
:100B6000EF90DF90CF900895382F282F2CC020933E
:100B7000E900231721F4762F942F50E006C07091DE
:100B8000EC009091ED005091F00091FF1BC080911E
:100B9000EB008E7F8093EB008091ED00827080935C
:100BA000ED008091EB0081608093EB007093EC008E
:100BB0009093ED005093F0008091EE0087FD02C00D
:100BC00080E008952F5F273090F23093E90081E0B4
:100BD00008958091730188239CF404C08091720170
:100BE0008823B9F08091E80082FFF8CF8091E80077
:100BF0008B778093E800089580917201882349F0F3
:100C00008091E80080FFF8CF8091E8008E77809394
:100C1000E80008954091E4005091E50024E68091B9
:100C2000EC0080FF05C08091E80080FF05C022C075
:100C30008091E80082FD1EC080917201882311F42A
:100C400082E00895853011F483E008958091EB00EF
:100C500085FF02C081E008958091E4009091E50055
:100C600084179507E1F2222311F484E008952150BE
:100C7000AC01D5CF80E00895EF92FF920F931F93C0
:100C80004DD054D008ED10E0F8018081982F9F7767
:100C900090838068808380818F7D8083E7EDF0E0A2
:100CA00080818068808319BC10927201109270015B
:100CB00010926F0110926E0180EEE82EF12CF70178
:100CC00080818B7F8083F80180818160808380E0D8
:100CD00060E042E049DFE1EEF0E080818E7F8083DA
:100CE000E2EEF0E080818160808380818860808393
:100CF000F70180818E7F8083F8018081806180830D
:100D00001F910F91FF90EF900895E7EDF0E0808143
:100D10008160808381E080937101AECFE8EDF0E0E7
:100D200080818C7F80831092E20008951092DA0017
:100D30001092E10008951F920F920FB60F920BB61A
:100D40000F9211241F932F933F934F935F936F93B1
:100D50007F938F939F93AF93BF93EF93FF93E9EEAE
:100D6000F0E0108117701082E0EFF0E08081877F63
:100D700080837894ECD0A9EEB0E01C92E0EFF0E034
:100D80008081886080831C93FF91EF91BF91AF9128
:100D90009F918F917F916F915F914F913F912F9193
:100DA0001F910F900BBE0F900FBE0F901F901895C4
:100DB0001F920F920FB60F920BB60F9211242F9322
:100DC0003F934F935F936F937F938F939F93AF93D3
:100DD000BF93EF93FF938091E10082FF0AC080915F
:100DE000E20082FF06C08091E1008B7F8093E100EA
:100DF00033D28091DA0080FF1EC08091D80080FF3E
:100E00001AC08091DA008E7F8093DA008091D90039
:100E100080FF0DC08CE089BD89B5826089BD09B4B1
:100E200000FEFDCF81E08093720195D904C019BC0A
:100E30001092720195D98091E10080FF18C08091D5
:100E4000E20080FF14C08091E2008E7F8093E20078
:100E50008091E20080618093E2008091D8008062FE
:100E60008093D80019BC85E080937201F5D1809100
:100E7000E10084FF2EC08091E20084FF2AC08CE054
:100E800089BD89B5826089BD09B400FEFDCF80911E
:100E9000D8008F7D8093D8008091E1008F7E809371
:100EA000E1008091E2008F7E8093E2008091E20079
:100EB00081608093E20080917001882331F48091F9
:100EC000E30087FD02C081E001C084E080937201ED
:100ED000C3D18091E10083FF27C08091E20083FFAE
:100EE00023C08091E100877F8093E10082E08093BE
:100EF0007201109270018091E1008E7F8093E10079
:100F00008091E2008E7F8093E2008091E200806118
:100F10008093E20080E060E042E026DE8091F00015
:100F200088608093F00098D1FF91EF91BF91AF91CD
:100F30009F918F917F916F915F914F913F912F91F1
:100F40000F900BBE0F900FBE0F901F9018950F9330
:100F50001F93DF93CF93CDB7DEB7AC970FB6F8945E
:100F6000DEBF0FBECDBF8091F100809373018091F1
:100F7000F100809374018091F1009091F100E5E718
:100F8000F1E080937501909376018091F10090914A
:100F9000F1008093770193838091F1009091F100AB
:100FA000809379019583EBD88091E80083FF3BC162
:100FB0008091730130917401353009F487C0363067
:100FC00040F43130C9F1313070F0333009F02BC1C9
:100FD00033C0383009F4F8C0393009F407C136306D
:100FE00009F021C199C0803821F0823809F01BC175
:100FF00008C090916E0180916F01882399F09260F2
:1010000011C08091770187708093E9008091EB0097
:1010100090E025E0969587952A95E1F7982F9170B5
:101020001092E9008091E800877F8093E800909318
:10103000F1001092F100D3C0882319F0823009F03A
:10104000F2C090E08F719070009721F0029709F044
:10105000EAC00CC080917501813009F0E4C01092A3
:101060006F01333069F580936F012AC0809175015B
:10107000882331F520917701277009F4D4C020939B
:10108000E9008091EB0080FF1BC0333021F4809198
:10109000EB00806213C08091EB0080618093EB00D5
:1010A00081E090E002C0880F991F2A95E2F78093B3
:1010B000EA001092EA008091EB0088608093EB00D8
:1010C0001092E9008091E800877F8CC0882309F0A6
:1010D000AAC0109175011F770FB7F8948091E800AE
:1010E000877F8093E80075DD8091E80080FFFCCF6A
:1010F0008091E3008078812B8093E3008091E3006E
:1011000080688093E300112311F482E001C083E042
:10111000809372010FBF87C08058823008F083C06F
:10112000809175019091760123E08C3D920709F042
:1011300033C083E08C838AE28B837FB7F894DE012F
:1011400015966EE040E050E011E2E62FF0E01093DB
:101150005700849140FF03C082958F706F5F8F703E
:10116000282F30E08A3018F0C901C79602C0C901A3
:10117000C0968D939D934F5F5F4F4431510529F782
:101180007FBF8091E800877F8093E800CE010396BF
:101190006AE270E062D012C060917701AE014F5FE9
:1011A0005F4F3DD8BC01009709F43DC08091E80035
:1011B000877F8093E80089819A81ADD08091E80093
:1011C0008B778093E8002FC0803869F58091E80024
:1011D000877F8093E800809170018093F100809177
:1011E000E8008E778093E800F4DC1DC08823D9F4F2
:1011F000909175019230B8F48091E800877F8093D8
:10120000E80090937001E5DC80917001882331F44F
:101210008091E30087FD02C081E001C084E08093FB
:1012200072010E94C3008091E80083FF0AC0809190
:10123000EB0080628093EB008091E800877F8093D1
:10124000E800AC960FB6F894DEBF0FBECDBFCF91CD
:10125000DF911F910F91089508959C0140917901AC
:1012600050917A014617570718F4F90190E03DC0F4
:101270006115710511F0AB01F8CF8091E8008E7710
:101280008093E80040E050E0F0CF80917201882325
:10129000F1F18530F1F18091E80083FF02C081E037
:1012A00008958091E80082FD2CC08091E80080FFC5
:1012B0001CC02091F2003091F30007C0819180930F
:1012C000F100415050402F5F3F4F4115510519F03B
:1012D0002830310598F390E02830310509F491E089
:1012E0008091E8008E778093E8004115510569F6FA
:1012F000992359F606C080917201882341F0853008
:1013000041F08091E80082FFF6CF80E0089582E00E
:10131000089583E008959C014091790150917A01EC
:101320004617570718F4F90190E040C061157105A0
:1013300011F0AB01F8CF8091E8008E778093E80040
:1013400040E050E0F0CF80917201882309F440C062
:10135000853009F43FC08091E80083FF02C081E03E
:1013600008958091E80082FD2DC08091E80080FF03
:101370001DC02091F2003091F30008C08491809349
:10138000F1003196415050402F5F3F4F41155105BC
:1013900019F02830310590F390E02830310509F438
:1013A00091E08091E8008E778093E8004115510527
:1013B00051F6992341F606C080917201882341F0CD
:1013C000853041F08091E80082FFF6CF80E00895FB
:1013D00082E0089583E00895BF92CF92DF92EF926A
:1013E000FF920F931F93CF93DF93182F092F7B0149
:1013F0006A0110DCB82E8823A9F5812F902F9C015B
:10140000E901C114D10439F0F60180819181E81A13
:10141000F90AC80FD91F00E010E021C08091E80050
:1014200085FD15C08091E8008B778093E800C1149A
:10143000D10449F0F60180819181800F911F918341
:10144000808385E010C0E6DB882349F00CC08091E2
:10145000F10089930894E108F1080F5F1F4FE11430
:10146000F104E1F68B2DDF91CF911F910F91FF9049
:10147000EF90DF90CF90BF900895BF92CF92DF9210
:10148000EF92FF920F931F93CF93DF938C01EB01A9
:101490006A01C0DBB82E8823B1F521970C0F1D1F00
:1014A0002196C114D10439F0F60180819181C81BC5
:1014B000D90B081B190BEE24FF2423C08091E800F0
:1014C00085FD15C08091E8008E778093E800C114F7
:1014D000D10449F0F601808191818E0D9F1D918389
:1014E000808385E011C096DB882359F00DC0F80198
:1014F00080818093F1000150104021970894E11CF5
:10150000F11C2097D9F68B2DDF91CF911F910F9170
:10151000FF90EF90DF90CF90BF900895BF92CF9251
:10152000DF92EF92FF920F931F93CF93DF93182FC9
:10153000092F7B016A016EDBB82E8823A9F5812F64
:10154000902F9C01E901C114D10439F0F60180818A
:101550009181E81AF90AC80FD91F00E010E021C0F4
:101560008091E80085FD15C08091E8008E7780931A
:10157000E800C114D10449F0F60180819181800F07
:10158000911F9183808385E010C044DB882349F05C
:101590000CC089918093F1000894E108F1080F5F75
:1015A0001F4FE114F104E1F68B2DDF91CF911F91D4
:1015B0000F91FF90EF90DF90CF90BF900895DF9252
:1015C000EF92FF920F931F93CF93DF93EC018B0168
:1015D00021DBD82E882361F50115110529F0F801CA
:1015E00080819181C81BD90BEE24FF241FC08091FC
:1015F000E80085FD15C08091E8008E778093E800B3
:101600000115110549F0F801808191818E0D9F1D12
:101610009183808385E00DC0FDDA882339F009C00D
:101620001092F10021970894E11CF11C2097F9F623
:101630008D2DDF91CF911F910F91FF90EF90DF9053
:1016400008951F9380917201882361F01091E90041
:101650001092E9008091E80083FF01C078DC1770E8
:101660001093E9001F910895CF92DF92EF92FF92BD
:101670000F931F93DF93CF9300D0CDB7DEB78C01CC
:1016800080917201843009F007C1F801958190932F
:10169000E9008091E80085FFC9C09093E9001A82B3
:1016A00019822AE0E22EF12CE00EF11E6E01089460
:1016B000C11CD11C05C0F80186A9882309F0B6C059
:1016C000C7016FE070E0A60187DE8530A1F3F80165
:1016D00082859385A485B58585559345A244B344F9
:1016E00081F4F80197898185981758F4868990E0EC
:1016F0008F719070892B29F4808D882311F08131AE
:1017000078F08091EB0080628093EB00F80181819A
:101710008093E9008091EB0080628093EB0086C0AB
:101720001A82198299E1E92EF12CE00EF11E6E0168
:101730000894C11CD11C05C0F80186A9882309F0B2
:1017400075C0F801608DC70170E0A60145DE8530E7
:1017500099F38091E8008B778093E800F8018689FF
:1017600087FF03C081818093E900C8010E94B50012
:1017700091E09827F80195AB25E533E542E453E580
:1017800021A732A743A754A72685378540895189C9
:1017900025A736A747A750AB2289338944895589A5
:1017A00021AB32AB43AB54AB913051F42115310531
:1017B0004105510529F08091EB0080628093EB0098
:1017C000F80185818093E90004C0F80186A9882387
:1017D00069F58091EB0085FDF8CFF8018181809358
:1017E000E90004C0F80186A9882301F58091EB0087
:1017F00085FDF8CF1A82198289E2E82EF12CE00EDD
:10180000F11E6E010894C11CD11C04C0F80186A908
:10181000882361F4C7016DE070E0A6017FDE8530AA
:10182000A9F38091E8008E778093E800F80186A9FB
:10183000882391F1458121E030E0C901042E02C0E6
:10184000880F991F0A94E2F78093EA001092EA0049
:101850009181092E02C0220F331F0A94E2F72093D0
:10186000EA001092EA004093E9008091EB00806169
:101870008093EB008091EB0088608093EB00909365
:10188000E9008091EB0080618093EB008091EB0098
:1018900088608093EB0016AA0F900F90CF91DF9194
:1018A0001F910F91FF90EF90DF90CF9008951F93BD
:1018B000CF93DF93EC010A96FC018DE2DF011D92CC
:1018C0008A95E9F711E08981181729F4EA81FB81EB
:1018D0008C8161E007C08D811817E1F4EE81FF81F2
:1018E000888560E0882311F440E001C044E020E0F6
:1018F00088E090E003C02F5F880F991F8E179F0725
:10190000D0F3606842602295207F422B812F2CD932
:10191000882321F01F5F1730B1F681E0DF91CF916E
:101920001F910895CF93DF93EC018091E80083FF2E
:101930002FC0888190E0209177013091780128179D
:10194000390731F5809174018E3F79F08F3F01F5B1
:10195000809173018132E1F48091E800877F809368
:10196000E80037D981E08EAB13C080917301813AD2
:1019700079F48091E800877F8093E8008985815021
:101980008093F1008091E8008E778093E80021D960
:0A199000DF91CF910895F894FFCF86
:10199A0000034000000440000001000000000000B5
:1019AA00000000000000000000000000000000002D
:1019BA00000000000000000000000000000000001D
:1019CA0000000000000000700000000000000A0093
:1019DA00000000000000000000008000021F00005C
:1019EA00004C5546410000000044617461666C6118
:0E19FA007368204469736B0000302E3030009B
:00000001FF
