:10000000AAC00000C5C00000C3C00000C1C00000FD
:10001000BFC00000BDC00000BBC00000B9C00000F0
:10002000B7C00000B5C000007CC20000B1C0000035
:10003000AFC00000ADC00000ABC00000A9C0000010
:10004000A7C00000A5C00000A3C00000A1C0000020
:100050009FC00000C0C000009BC0000099C000000D
:1000600097C0000095C0000093C0000091C0000040
:100070008FC000008DC000008BC0000089C0000050
:1000800087C0000085C0000083C0000081C0000060
:100090007FC000007DC000001201100100000008B8
:1000A000EB03462001000102000109026400020185
:1000B00000C0320904000000010100000924010011
:1000C000011E0001010C24020101010002030000D5
:1000D00000092403020103000100090401000001DA
:1000E00002000009040101010102000007240101CE
:1000F0000101000B2402010202100180BB0009056E
:10010000010D0001010000072501000000000403AB
:10011000090418034400650061006E0020004300DC
:1001200061006D00650072006100000028034C0052
:100130005500460041002000410075006400690040
:100140006F0020004F00750074002000440065001F
:100150006D006F00000011241FBECFEFD0E2DEBFA4
:10016000CDBF11E0A0E0B1E0E8E6FBE000E00BBFAE
:1001700002C007900D92A030B107D9F711E0A0E0BE
:10018000B1E001C01D92AE30B107E1F7DFD0EAC4A3
:1001900037CF8BB18F70806A8BB992E090936E00ED
:1001A00083E187BD94BD95BD87B1806687B981EF36
:1001B0008093900089E080939100089515BC10927F
:1001C000910087B18F7987B9109200018BB18F7040
:1001D00080618BB908951F920F920FB60F92112470
:1001E0002F933F934F935F936F937F938F939F933F
:1001F0007091E90081E08093E9008091E80082FF3E
:1002000050C080910001882309F44BC08091F10017
:10021000282F8091F100382F232F330F330B40917B
:10022000F100842F4091F100942F332727FD309562
:10023000892F990F990B482F552747FD5095CA01D3
:10024000820F931F95958795682F8091E80085FD13
:1002500005C08091E8008B778093E80080E890E00B
:100260002827392730939900209398004827592749
:1002700050939B0040939A00613114F090EF0DC0B1
:10028000693014F090EB09C0653014F090E305C0BC
:10029000633014F090E101C090E08BB18F70982B27
:1002A0009BB977707093E9009F918F917F916F91C7
:1002B0005F914F913F912F910F900FBE0F901F9024
:1002C00018951F93809107018B30A1F410910601BE
:1002D000113081F48091E800877F8093E800A1D0FD
:1002E000109200018091080190910901892B11F071
:1002F000109300011F91089581E060E446E55CD011
:1003000080FD02C090E901C090E68BB18F70982B00
:100310009BB9089584B7877F84BF88E10FB6F894AE
:1003200080936000109260000FBE80E090E020E8B3
:100330000FB6F89420936100809361000FBE8AB1DC
:10034000806F8AB98BB18F708BB9D5C0E3DF8BB169
:100350008F7080618BB97894F2D3FECFDA0192303E
:1003600049F0933061F09130F9F4E8E9F0E022E1EE
:1003700030E01EC0EAEAF0E024E630E019C0813047
:1003800049F0813018F0823079F408C0EEE0F1E0F5
:10039000849107C0E2E1F1E0849103C0ECE2F1E076
:1003A0008491282F30E004C0E0E0F0E020E030E06D
:1003B000ED93FC93C9010895382F282F2CC020936A
:1003C000E900231721F4762F942F50E006C0709196
:1003D000EC009091ED005091F00091FF1BC08091D6
:1003E000EB008E7F8093EB008091ED008270809314
:1003F000ED008091EB0081608093EB007093EC0046
:100400009093ED005093F0008091EE0087FD02C0C4
:1004100080E008952F5F273090F23093E90081E06B
:1004200008958091060188239CF404C08091050101
:100430008823B9F08091E80082FFF8CF8091E8002E
:100440008B778093E800089580910501882349F017
:100450008091E80080FFF8CF8091E8008E7780934C
:10046000E8000895EF92FF920F931F934DD054D060
:1004700008ED10E0F8018081982F9F7790838068C5
:10048000808380818F7D8083E7EDF0E080818068CC
:10049000808319BC10920501109203011092020191
:1004A0001092010180EEE82EF12CF70180818B7F04
:1004B0008083F80180818160808380E060E042E099
:1004C0007BDFE1EEF0E080818E7F8083E2EEF0E082
:1004D000808181608083808188608083F701808152
:1004E0008E7F8083F8018081806180831F910F91CE
:1004F000FF90EF900895E7EDF0E0808181608083C8
:1005000081E080930401AECFE8EDF0E080818C7F44
:1005100080831092E20008951092DA001092E100B8
:1005200008951F920F920FB60F920BB60F921124DF
:100530002F933F934F935F936F937F938F939F93EB
:10054000AF93BF93EF93FF938091E10082FF0AC0C6
:100550008091E20082FF06C08091E1008B7F809352
:10056000E1002DD28091DA0080FF1EC08091D8007A
:1005700080FF1AC08091DA008E7F8093DA0080912C
:10058000D90080FF0DC08CE089BD89B5826089BD2E
:1005900009B400FEFDCF81E080930501FADD04C0BF
:1005A00019BC109205010ADE8091E10080FF18C09D
:1005B0008091E20080FF14C08091E2008E7F8093E2
:1005C000E2008091E20080618093E2008091D80097
:1005D00080628093D80019BC85E080930501EFD13B
:1005E0008091E10084FF2EC08091E20084FF2AC048
:1005F0008CE089BD89B5826089BD09B400FEFDCF5C
:100600008091D8008F7D8093D8008091E1008F7E0B
:100610008093E1008091E2008F7E8093E2008091E0
:10062000E20081608093E20080910301882331F42D
:100630008091E30087FD02C081E001C084E08093E7
:100640000501BDD18091E10083FF22C08091E200CD
:1006500083FF1EC08091E100877F8093E10082E0EC
:1006600080930501109203018091E1008E7F8093B9
:10067000E1008091E2008E7F8093E2008091E200B1
:1006800080618093E20080E060E042E095DE97D1F7
:10069000FF91EF91BF91AF919F918F917F916F915A
:1006A0005F914F913F912F910F900BBE0F900FBE16
:1006B0000F901F9018950F931F93DF93CF93CDB793
:1006C000DEB7AC970FB6F894DEBF0FBECDBF8091FA
:1006D000F100809306018091F100809307018091E1
:1006E000F1009091F100E8E0F1E08093080190932F
:1006F00009018091F1009091F10080930A019383A8
:100700008091F1009091F10080930C019583D9DDE7
:100710008091E80083FF3AC1809106013091070182
:10072000353009F487C0363040F43130C9F131300A
:1007300070F0333009F02AC133C0383009F4F8C002
:10074000393009F407C1363009F020C199C080382A
:1007500021F0823809F01AC108C0909101018091FE
:100760000201882399F0926011C080910A0187707C
:100770008093E9008091EB0090E025E096958795C5
:100780002A95E1F7982F91701092E9008091E80086
:10079000877F8093E8009093F1001092F100D3C01E
:1007A000882319F0823009F0F1C090E08F719070C9
:1007B000009721F0029709F0E9C00CC08091080170
:1007C000813009F0E3C010920201333069F5809363
:1007D00002012AC080910801882331F520910A0185
:1007E000277009F4D3C02093E9008091EB0080FFCB
:1007F0001BC0333021F48091EB00806213C08091E4
:10080000EB0080618093EB0081E090E002C0880FF4
:10081000991F2A95E2F78093EA001092EA008091EE
:10082000EB0088608093EB001092E9008091E80073
:10083000877F8CC0882309F0A9C0109108011F7719
:100840000FB7F8948091E800877F8093E800E9DD96
:100850008091E80080FFFCCF8091E3008078812BBD
:100860008093E3008091E30080688093E30011238C
:1008700011F482E001C083E0809305010FBF86C0C0
:100880008058823008F082C080910801909109015F
:1008900023E08C3D920709F033C083E08C838AE229
:1008A0008B837FB7F894DE0115966EE040E050E050
:1008B00011E2E62FF0E010935700849140FF03C04F
:1008C00082958F706F5F8F70282F30E08A3018F01C
:1008D000C901C79602C0C901C0968D939D934F5F11
:1008E0005F4F4431510529F77FBF8091E800877F32
:1008F0008093E800CE0103966AE270E061D012C0F6
:1009000060910A01AE014F5F5F4F28DDBC01009787
:1009100009F43CC08091E800877F8093E8008981DA
:100920009A81ACD08091E8008B778093E8002EC04C
:10093000803861F58091E800877F8093E80080919E
:1009400003018093F1008091E8008E778093E800A6
:1009500068DD1CC08823D1F4909108019230B0F476
:100960008091E800877F8093E8009093030159DD30
:1009700080910301882331F48091E30087FD02C058
:1009800081E001C084E080930501B6DC8091E8003D
:1009900083FF0AC08091EB0080628093EB0080911E
:1009A000E800877F8093E800AC960FB6F894DEBF2E
:1009B0000FBECDBFCF91DF911F910F910895089584
:1009C0009C0140910C0150910D014617570718F4F6
:1009D000F90190E03DC06115710511F0AB01F8CF50
:1009E0008091E8008E778093E80040E050E0F0CFFF
:1009F000809105018823F1F18530F1F18091E800C3
:100A000083FF02C081E008958091E80082FD2CC040
:100A10008091E80080FF1CC02091F2003091F3002B
:100A200007C081918093F100415050402F5F3F4FAC
:100A30004115510519F02830310598F390E0283020
:100A4000310509F491E08091E8008E778093E80009
:100A50004115510569F6992359F606C080910501A3
:100A6000882341F0853041F08091E80082FFF6CF85
:100A700080E0089582E0089583E008959C0140910C
:100A80000C0150910D014617570718F4F90190E039
:100A900040C06115710511F0AB01F8CF8091E800FD
:100AA0008E778093E80040E050E0F0CF8091050120
:100AB000882309F440C0853009F43FC08091E800E4
:100AC00083FF02C081E008958091E80082FD2DC07F
:100AD0008091E80080FF1DC02091F2003091F3006A
:100AE00008C084918093F1003196415050402F5FAF
:100AF0003F4F4115510519F02830310590F390E032
:100B00002830310509F491E08091E8008E778093D8
:100B1000E8004115510551F6992341F606C0809130
:100B20000501882341F0853041F08091E80082FF83
:100B3000F6CF80E0089582E0089583E008951F9342
:100B400080910501882361F01091E9001092E9007D
:100B50008091E80083FF01C0AEDD17701093E900BB
:080B60001F910895F894FFCFE6
:00000001FF
